{
	"contracts/AenzbiToken.sol": {
		"AenzbiToken": {
			"abi": [
				{
					"inputs": [
						{
							"internalType": "uint256",
							"name": "initialSupply",
							"type": "uint256"
						}
					],
					"stateMutability": "nonpayable",
					"type": "constructor"
				},
				{
					"anonymous": false,
					"inputs": [
						{
							"indexed": true,
							"internalType": "address",
							"name": "from",
							"type": "address"
						},
						{
							"indexed": false,
							"internalType": "uint256",
							"name": "amount",
							"type": "uint256"
						}
					],
					"name": "PaymentReceived",
					"type": "event"
				},
				{
					"anonymous": false,
					"inputs": [
						{
							"indexed": true,
							"internalType": "address",
							"name": "buyer",
							"type": "address"
						},
						{
							"indexed": false,
							"internalType": "uint256",
							"name": "amount",
							"type": "uint256"
						}
					],
					"name": "TokenPurchased",
					"type": "event"
				},
				{
					"anonymous": false,
					"inputs": [
						{
							"indexed": true,
							"internalType": "address",
							"name": "from",
							"type": "address"
						},
						{
							"indexed": true,
							"internalType": "address",
							"name": "to",
							"type": "address"
						},
						{
							"indexed": false,
							"internalType": "uint256",
							"name": "value",
							"type": "uint256"
						}
					],
					"name": "Transfer",
					"type": "event"
				},
				{
					"inputs": [
						{
							"internalType": "address",
							"name": "account",
							"type": "address"
						}
					],
					"name": "balanceOf",
					"outputs": [
						{
							"internalType": "uint256",
							"name": "",
							"type": "uint256"
						}
					],
					"stateMutability": "view",
					"type": "function"
				},
				{
					"inputs": [],
					"name": "buyTokens",
					"outputs": [],
					"stateMutability": "payable",
					"type": "function"
				},
				{
					"inputs": [],
					"name": "decimals",
					"outputs": [
						{
							"internalType": "uint8",
							"name": "",
							"type": "uint8"
						}
					],
					"stateMutability": "view",
					"type": "function"
				},
				{
					"inputs": [],
					"name": "name",
					"outputs": [
						{
							"internalType": "string",
							"name": "",
							"type": "string"
						}
					],
					"stateMutability": "view",
					"type": "function"
				},
				{
					"inputs": [],
					"name": "owner",
					"outputs": [
						{
							"internalType": "address",
							"name": "",
							"type": "address"
						}
					],
					"stateMutability": "view",
					"type": "function"
				},
				{
					"inputs": [
						{
							"internalType": "uint256",
							"name": "amount",
							"type": "uint256"
						}
					],
					"name": "payWithTokens",
					"outputs": [],
					"stateMutability": "nonpayable",
					"type": "function"
				},
				{
					"inputs": [
						{
							"internalType": "uint256",
							"name": "newPriceWei",
							"type": "uint256"
						}
					],
					"name": "setTokenPrice",
					"outputs": [],
					"stateMutability": "nonpayable",
					"type": "function"
				},
				{
					"inputs": [],
					"name": "symbol",
					"outputs": [
						{
							"internalType": "string",
							"name": "",
							"type": "string"
						}
					],
					"stateMutability": "view",
					"type": "function"
				},
				{
					"inputs": [],
					"name": "tokenPrice",
					"outputs": [
						{
							"internalType": "uint256",
							"name": "",
							"type": "uint256"
						}
					],
					"stateMutability": "view",
					"type": "function"
				},
				{
					"inputs": [],
					"name": "totalSupply",
					"outputs": [
						{
							"internalType": "uint256",
							"name": "",
							"type": "uint256"
						}
					],
					"stateMutability": "view",
					"type": "function"
				},
				{
					"inputs": [
						{
							"internalType": "address",
							"name": "recipient",
							"type": "address"
						},
						{
							"internalType": "uint256",
							"name": "amount",
							"type": "uint256"
						}
					],
					"name": "transfer",
					"outputs": [
						{
							"internalType": "bool",
							"name": "",
							"type": "bool"
						}
					],
					"stateMutability": "nonpayable",
					"type": "function"
				},
				{
					"inputs": [],
					"name": "withdrawETH",
					"outputs": [],
					"stateMutability": "nonpayable",
					"type": "function"
				},
				{
					"stateMutability": "payable",
					"type": "receive"
				}
			],
			"devdoc": {
				"kind": "dev",
				"methods": {},
				"version": 1
			},
			"evm": {
				"assembly": "    /* \"contracts/AenzbiToken.sol\":474:509  string public name = \"Aenzbi Token\" */\n  0xc0\n    /* \"contracts/AenzbiToken.sol\":437:3006  contract AenzbiToken is IERC20 {... */\n  0x40\n    /* \"contracts/AenzbiToken.sol\":474:509  string public name = \"Aenzbi Token\" */\n  mstore\n  0x0c\n    /* \"contracts/AenzbiToken.sol\":437:3006  contract AenzbiToken is IERC20 {... */\n  0x80\n    /* \"contracts/AenzbiToken.sol\":474:509  string public name = \"Aenzbi Token\" */\n  swap1\n  dup2\n  mstore\n  mstore(0xa0, shl(0xa1, 0x20b2b73d3134902a37b5b2b7))\n  0x00\n  swap1\n  tag_1\n  swap1\n  dup3\n  tag_2\n  jump\t// in\ntag_1:\n  pop\n    /* \"contracts/AenzbiToken.sol\":515:543  string public symbol = \"AZT\" */\n  0x40\n  dup1\n  mload\n  dup1\n  dup3\n  add\n  swap1\n  swap2\n  mstore\n  0x03\n  dup2\n  mstore\n  shl(0xea, 0x105695)\n  0x20\n  dup3\n  add\n  mstore\n  0x01\n  swap1\n  tag_3\n  swap1\n  dup3\n  tag_2\n  jump\t// in\ntag_3:\n  pop\n    /* \"contracts/AenzbiToken.sol\":549:575  uint8 public decimals = 18 */\n  0x02\n  dup1\n  sload\n  not(0xff)\n  and\n    /* \"contracts/AenzbiToken.sol\":573:575  18 */\n  0x12\n    /* \"contracts/AenzbiToken.sol\":549:575  uint8 public decimals = 18 */\n  or\n  swap1\n  sstore\n    /* \"contracts/AenzbiToken.sol\":669:676  1 ether */\n  0x0de0b6b3a7640000\n    /* \"contracts/AenzbiToken.sol\":641:676  uint256 public tokenPrice = 1 ether */\n  0x05\n  sstore\n    /* \"contracts/AenzbiToken.sol\":1048:1183  constructor(uint256 initialSupply) {... */\n  callvalue\n  dup1\n  iszero\n  tag_4\n  jumpi\n  revert(0x00, 0x00)\ntag_4:\n  pop\n  mload(0x40)\n  sub(codesize, bytecodeSize)\n  dup1\n  bytecodeSize\n  dup4\n  codecopy\n  dup2\n  add\n  0x40\n  dup2\n  swap1\n  mstore\n  tag_5\n  swap2\n  tag_6\n  jump\t// in\ntag_5:\n    /* \"contracts/AenzbiToken.sol\":1093:1098  owner */\n  0x04\n    /* \"contracts/AenzbiToken.sol\":1093:1111  owner = msg.sender */\n  dup1\n  sload\n  not(sub(shl(0xa0, 0x01), 0x01))\n  and\n    /* \"contracts/AenzbiToken.sol\":1101:1111  msg.sender */\n  caller\n    /* \"contracts/AenzbiToken.sol\":1093:1111  owner = msg.sender */\n  swap1\n  dup2\n  or\n  swap1\n  swap2\n  sstore\n    /* \"contracts/AenzbiToken.sol\":1165:1173  decimals */\n  sload(0x02)\n    /* \"contracts/AenzbiToken.sol\":1121:1176  _mint(owner, initialSupply * (10 ** uint256(decimals))) */\n  tag_9\n  swap2\n    /* \"contracts/AenzbiToken.sol\":1101:1111  msg.sender */\n  swap1\n    /* \"contracts/AenzbiToken.sol\":1151:1174  10 ** uint256(decimals) */\n  tag_10\n  swap1\n    /* \"contracts/AenzbiToken.sol\":1165:1173  decimals */\n  0xff\n  and\n    /* \"contracts/AenzbiToken.sol\":1151:1153  10 */\n  0x0a\n    /* \"contracts/AenzbiToken.sol\":1151:1174  10 ** uint256(decimals) */\n  tag_11\n  jump\t// in\ntag_10:\n    /* \"contracts/AenzbiToken.sol\":1134:1175  initialSupply * (10 ** uint256(decimals)) */\n  tag_12\n  swap1\n    /* \"contracts/AenzbiToken.sol\":1134:1147  initialSupply */\n  dup5\n    /* \"contracts/AenzbiToken.sol\":1134:1175  initialSupply * (10 ** uint256(decimals)) */\n  tag_13\n  jump\t// in\ntag_12:\n    /* \"contracts/AenzbiToken.sol\":1121:1126  _mint */\n  tag_14\n    /* \"contracts/AenzbiToken.sol\":1121:1176  _mint(owner, initialSupply * (10 ** uint256(decimals))) */\n  jump\t// in\ntag_9:\n    /* \"contracts/AenzbiToken.sol\":1048:1183  constructor(uint256 initialSupply) {... */\n  pop\n    /* \"contracts/AenzbiToken.sol\":437:3006  contract AenzbiToken is IERC20 {... */\n  jump(tag_33)\n    /* \"contracts/AenzbiToken.sol\":2687:2943  function _mint(address account, uint256 amount) internal {... */\ntag_14:\n  not(0x09)\n  sub(shl(0xa0, 0x01), 0x01)\n    /* \"contracts/AenzbiToken.sol\":2762:2784  account != address(10) */\n  dup4\n  and\n  add\n    /* \"contracts/AenzbiToken.sol\":2754:2813  require(account != address(10), \"Zero address not allowed\") */\n  tag_17\n  jumpi\n  mload(0x40)\n  shl(0xe5, 0x461bcd)\n  dup2\n  mstore\n    /* \"#utility.yul\":4774:4776   */\n  0x20\n    /* \"contracts/AenzbiToken.sol\":2754:2813  require(account != address(10), \"Zero address not allowed\") */\n  0x04\n  dup3\n  add\n    /* \"#utility.yul\":4756:4777   */\n  mstore\n    /* \"#utility.yul\":4813:4815   */\n  0x18\n    /* \"#utility.yul\":4793:4811   */\n  0x24\n  dup3\n  add\n    /* \"#utility.yul\":4786:4816   */\n  mstore\n    /* \"#utility.yul\":4852:4878   */\n  0x5a65726f2061646472657373206e6f7420616c6c6f7765640000000000000000\n    /* \"#utility.yul\":4832:4850   */\n  0x44\n  dup3\n  add\n    /* \"#utility.yul\":4825:4879   */\n  mstore\n    /* \"#utility.yul\":4896:4914   */\n  0x64\n  add\n    /* \"contracts/AenzbiToken.sol\":2754:2813  require(account != address(10), \"Zero address not allowed\") */\n  mload(0x40)\n  dup1\n  swap2\n  sub\n  swap1\n  revert\ntag_17:\n    /* \"contracts/AenzbiToken.sol\":2839:2845  amount */\n  dup1\n    /* \"contracts/AenzbiToken.sol\":2823:2835  _totalSupply */\n  0x03\n  0x00\n    /* \"contracts/AenzbiToken.sol\":2823:2845  _totalSupply += amount */\n  dup3\n  dup3\n  sload\n  tag_20\n  swap2\n  swap1\n  tag_21\n  jump\t// in\ntag_20:\n  swap1\n  swap2\n  sstore\n  pop\n  pop\n  sub(shl(0xa0, 0x01), 0x01)\n    /* \"contracts/AenzbiToken.sol\":2855:2873  _balances[account] */\n  dup3\n  and\n  0x00\n  swap1\n  dup2\n  mstore\n    /* \"contracts/AenzbiToken.sol\":2855:2864  _balances */\n  0x06\n    /* \"contracts/AenzbiToken.sol\":2855:2873  _balances[account] */\n  0x20\n  mstore\n  0x40\n  dup2\n  keccak256\n    /* \"contracts/AenzbiToken.sol\":2855:2883  _balances[account] += amount */\n  dup1\n  sload\n    /* \"contracts/AenzbiToken.sol\":2877:2883  amount */\n  dup4\n  swap3\n    /* \"contracts/AenzbiToken.sol\":2855:2873  _balances[account] */\n  swap1\n    /* \"contracts/AenzbiToken.sol\":2855:2883  _balances[account] += amount */\n  tag_22\n  swap1\n    /* \"contracts/AenzbiToken.sol\":2877:2883  amount */\n  dup5\n  swap1\n    /* \"contracts/AenzbiToken.sol\":2855:2883  _balances[account] += amount */\n  tag_21\n  jump\t// in\ntag_22:\n  swap1\n  swap2\n  sstore\n  pop\n  pop\n    /* \"contracts/AenzbiToken.sol\":2898:2936  Transfer(address(10), account, amount) */\n  mload(0x40)\n    /* \"#utility.yul\":5201:5226   */\n  dup2\n  dup2\n  mstore\n  sub(shl(0xa0, 0x01), 0x01)\n    /* \"contracts/AenzbiToken.sol\":2898:2936  Transfer(address(10), account, amount) */\n  dup4\n  and\n  swap1\n    /* \"contracts/AenzbiToken.sol\":2915:2917  10 */\n  0x0a\n  swap1\n    /* \"contracts/AenzbiToken.sol\":2898:2936  Transfer(address(10), account, amount) */\n  0xddf252ad1be2c89b69c2b068fc378daa952ba7f163c4a11628f55a4df523b3ef\n  swap1\n    /* \"#utility.yul\":5189:5191   */\n  0x20\n    /* \"#utility.yul\":5174:5192   */\n  add\n    /* \"contracts/AenzbiToken.sol\":2898:2936  Transfer(address(10), account, amount) */\n  mload(0x40)\n  dup1\n  swap2\n  sub\n  swap1\n  log3\n    /* \"contracts/AenzbiToken.sol\":2687:2943  function _mint(address account, uint256 amount) internal {... */\n  pop\n  pop\n  jump\t// out\n    /* \"#utility.yul\":14:141   */\ntag_25:\n    /* \"#utility.yul\":75:85   */\n  0x4e487b71\n    /* \"#utility.yul\":70:73   */\n  0xe0\n    /* \"#utility.yul\":66:86   */\n  shl\n    /* \"#utility.yul\":63:64   */\n  0x00\n    /* \"#utility.yul\":56:87   */\n  mstore\n    /* \"#utility.yul\":106:110   */\n  0x41\n    /* \"#utility.yul\":103:104   */\n  0x04\n    /* \"#utility.yul\":96:111   */\n  mstore\n    /* \"#utility.yul\":130:134   */\n  0x24\n    /* \"#utility.yul\":127:128   */\n  0x00\n    /* \"#utility.yul\":120:135   */\n  revert\n    /* \"#utility.yul\":146:526   */\ntag_26:\n    /* \"#utility.yul\":225:226   */\n  0x01\n    /* \"#utility.yul\":221:233   */\n  dup2\n  dup2\n  shr\n  swap1\n    /* \"#utility.yul\":268:280   */\n  dup3\n  and\n  dup1\n    /* \"#utility.yul\":289:350   */\n  tag_36\n  jumpi\n    /* \"#utility.yul\":343:347   */\n  0x7f\n    /* \"#utility.yul\":335:341   */\n  dup3\n    /* \"#utility.yul\":331:348   */\n  and\n    /* \"#utility.yul\":321:348   */\n  swap2\n  pop\n    /* \"#utility.yul\":289:350   */\ntag_36:\n    /* \"#utility.yul\":396:398   */\n  0x20\n    /* \"#utility.yul\":388:394   */\n  dup3\n    /* \"#utility.yul\":385:399   */\n  lt\n    /* \"#utility.yul\":365:383   */\n  dup2\n    /* \"#utility.yul\":362:400   */\n  sub\n    /* \"#utility.yul\":359:520   */\n  tag_37\n  jumpi\n    /* \"#utility.yul\":442:452   */\n  0x4e487b71\n    /* \"#utility.yul\":437:440   */\n  0xe0\n    /* \"#utility.yul\":433:453   */\n  shl\n    /* \"#utility.yul\":430:431   */\n  0x00\n    /* \"#utility.yul\":423:454   */\n  mstore\n    /* \"#utility.yul\":477:481   */\n  0x22\n    /* \"#utility.yul\":474:475   */\n  0x04\n    /* \"#utility.yul\":467:482   */\n  mstore\n    /* \"#utility.yul\":505:509   */\n  0x24\n    /* \"#utility.yul\":502:503   */\n  0x00\n    /* \"#utility.yul\":495:510   */\n  revert\n    /* \"#utility.yul\":359:520   */\ntag_37:\n  pop\n    /* \"#utility.yul\":146:526   */\n  swap2\n  swap1\n  pop\n  jump\t// out\n    /* \"#utility.yul\":657:1175   */\ntag_28:\n    /* \"#utility.yul\":759:761   */\n  0x1f\n    /* \"#utility.yul\":754:757   */\n  dup3\n    /* \"#utility.yul\":751:762   */\n  gt\n    /* \"#utility.yul\":748:1169   */\n  iszero\n  tag_40\n  jumpi\n    /* \"#utility.yul\":795:800   */\n  dup1\n    /* \"#utility.yul\":792:793   */\n  0x00\n    /* \"#utility.yul\":785:801   */\n  mstore\n    /* \"#utility.yul\":839:843   */\n  0x20\n    /* \"#utility.yul\":836:837   */\n  0x00\n    /* \"#utility.yul\":826:844   */\n  keccak256\n    /* \"#utility.yul\":909:911   */\n  0x1f\n    /* \"#utility.yul\":897:907   */\n  dup5\n    /* \"#utility.yul\":893:912   */\n  add\n    /* \"#utility.yul\":890:891   */\n  0x05\n    /* \"#utility.yul\":886:913   */\n  shr\n    /* \"#utility.yul\":880:884   */\n  dup2\n    /* \"#utility.yul\":876:914   */\n  add\n    /* \"#utility.yul\":945:949   */\n  0x20\n    /* \"#utility.yul\":933:943   */\n  dup6\n    /* \"#utility.yul\":930:950   */\n  lt\n    /* \"#utility.yul\":927:974   */\n  iszero\n  tag_41\n  jumpi\n  pop\n    /* \"#utility.yul\":968:972   */\n  dup1\n    /* \"#utility.yul\":927:974   */\ntag_41:\n    /* \"#utility.yul\":1023:1025   */\n  0x1f\n    /* \"#utility.yul\":1018:1021   */\n  dup5\n    /* \"#utility.yul\":1014:1026   */\n  add\n    /* \"#utility.yul\":1011:1012   */\n  0x05\n    /* \"#utility.yul\":1007:1027   */\n  shr\n    /* \"#utility.yul\":1001:1005   */\n  dup3\n    /* \"#utility.yul\":997:1028   */\n  add\n    /* \"#utility.yul\":987:1028   */\n  swap2\n  pop\n    /* \"#utility.yul\":1078:1159   */\ntag_42:\n    /* \"#utility.yul\":1096:1098   */\n  dup2\n    /* \"#utility.yul\":1089:1094   */\n  dup2\n    /* \"#utility.yul\":1086:1099   */\n  lt\n    /* \"#utility.yul\":1078:1159   */\n  iszero\n  tag_44\n  jumpi\n    /* \"#utility.yul\":1155:1156   */\n  0x00\n    /* \"#utility.yul\":1141:1157   */\n  dup2\n  sstore\n    /* \"#utility.yul\":1122:1123   */\n  0x01\n    /* \"#utility.yul\":1111:1124   */\n  add\n    /* \"#utility.yul\":1078:1159   */\n  jump(tag_42)\ntag_44:\n    /* \"#utility.yul\":1082:1085   */\n  pop\n  pop\n    /* \"#utility.yul\":748:1169   */\ntag_40:\n    /* \"#utility.yul\":657:1175   */\n  pop\n  pop\n  pop\n  jump\t// out\n    /* \"#utility.yul\":1351:2650   */\ntag_2:\n    /* \"#utility.yul\":1471:1481   */\n  dup2\n  mload\n  sub(shl(0x40, 0x01), 0x01)\n    /* \"#utility.yul\":1493:1523   */\n  dup2\n  gt\n    /* \"#utility.yul\":1490:1546   */\n  iszero\n  tag_48\n  jumpi\n    /* \"#utility.yul\":1526:1544   */\n  tag_48\n  tag_25\n  jump\t// in\ntag_48:\n    /* \"#utility.yul\":1555:1652   */\n  tag_49\n    /* \"#utility.yul\":1645:1651   */\n  dup2\n    /* \"#utility.yul\":1605:1643   */\n  tag_50\n    /* \"#utility.yul\":1637:1641   */\n  dup5\n    /* \"#utility.yul\":1631:1642   */\n  sload\n    /* \"#utility.yul\":1605:1643   */\n  tag_26\n  jump\t// in\ntag_50:\n    /* \"#utility.yul\":1599:1603   */\n  dup5\n    /* \"#utility.yul\":1555:1652   */\n  tag_28\n  jump\t// in\ntag_49:\n    /* \"#utility.yul\":1701:1705   */\n  0x20\n    /* \"#utility.yul\":1732:1734   */\n  0x1f\n    /* \"#utility.yul\":1721:1735   */\n  dup3\n  gt\n    /* \"#utility.yul\":1749:1750   */\n  0x01\n    /* \"#utility.yul\":1744:2393   */\n  dup2\n  eq\n  tag_52\n  jumpi\n    /* \"#utility.yul\":2437:2438   */\n  0x00\n    /* \"#utility.yul\":2454:2460   */\n  dup4\n    /* \"#utility.yul\":2451:2540   */\n  iszero\n  tag_53\n  jumpi\n  pop\n    /* \"#utility.yul\":2506:2525   */\n  dup5\n  dup3\n  add\n    /* \"#utility.yul\":2500:2526   */\n  mload\n    /* \"#utility.yul\":2451:2540   */\ntag_53:\n  not(0x00)\n    /* \"#utility.yul\":1308:1309   */\n  0x03\n    /* \"#utility.yul\":1304:1315   */\n  dup6\n  swap1\n  shl\n    /* \"#utility.yul\":1300:1324   */\n  shr\n    /* \"#utility.yul\":1296:1325   */\n  not\n    /* \"#utility.yul\":1286:1326   */\n  and\n    /* \"#utility.yul\":1332:1333   */\n  0x01\n    /* \"#utility.yul\":1328:1339   */\n  dup5\n  swap1\n  shl\n    /* \"#utility.yul\":1283:1340   */\n  or\n    /* \"#utility.yul\":2553:2634   */\n  dup5\n  sstore\n    /* \"#utility.yul\":1714:2644   */\n  jump(tag_44)\n    /* \"#utility.yul\":1744:2393   */\ntag_52:\n    /* \"#utility.yul\":604:605   */\n  0x00\n    /* \"#utility.yul\":597:611   */\n  dup5\n  dup2\n  mstore\n    /* \"#utility.yul\":641:645   */\n  0x20\n    /* \"#utility.yul\":628:646   */\n  dup2\n  keccak256\n  not(0x1f)\n    /* \"#utility.yul\":1780:1800   */\n  dup6\n  and\n  swap2\n    /* \"#utility.yul\":1898:2120   */\ntag_56:\n    /* \"#utility.yul\":1912:1919   */\n  dup3\n    /* \"#utility.yul\":1909:1910   */\n  dup2\n    /* \"#utility.yul\":1906:1920   */\n  lt\n    /* \"#utility.yul\":1898:2120   */\n  iszero\n  tag_58\n  jumpi\n    /* \"#utility.yul\":1994:2013   */\n  dup8\n  dup6\n  add\n    /* \"#utility.yul\":1988:2014   */\n  mload\n    /* \"#utility.yul\":1973:2015   */\n  dup3\n  sstore\n    /* \"#utility.yul\":2101:2105   */\n  0x20\n    /* \"#utility.yul\":2086:2106   */\n  swap5\n  dup6\n  add\n  swap5\n    /* \"#utility.yul\":2054:2055   */\n  0x01\n    /* \"#utility.yul\":2042:2056   */\n  swap1\n  swap3\n  add\n  swap2\n    /* \"#utility.yul\":1928:1940   */\n  add\n    /* \"#utility.yul\":1898:2120   */\n  jump(tag_56)\ntag_58:\n    /* \"#utility.yul\":1902:1905   */\n  pop\n    /* \"#utility.yul\":2148:2154   */\n  dup5\n    /* \"#utility.yul\":2139:2146   */\n  dup3\n    /* \"#utility.yul\":2136:2155   */\n  lt\n    /* \"#utility.yul\":2133:2334   */\n  iszero\n  tag_59\n  jumpi\n    /* \"#utility.yul\":2209:2228   */\n  dup7\n  dup5\n  add\n    /* \"#utility.yul\":2203:2229   */\n  mload\n  not(0x00)\n    /* \"#utility.yul\":2292:2293   */\n  0x03\n    /* \"#utility.yul\":2288:2302   */\n  dup8\n  swap1\n  shl\n    /* \"#utility.yul\":2304:2307   */\n  0xf8\n    /* \"#utility.yul\":2284:2308   */\n  and\n    /* \"#utility.yul\":2280:2317   */\n  shr\n    /* \"#utility.yul\":2276:2318   */\n  not\n    /* \"#utility.yul\":2261:2319   */\n  and\n    /* \"#utility.yul\":2246:2320   */\n  dup2\n  sstore\n    /* \"#utility.yul\":2133:2334   */\ntag_59:\n  pop\n  pop\n  pop\n  pop\n    /* \"#utility.yul\":2380:2381   */\n  0x01\n    /* \"#utility.yul\":2364:2378   */\n  swap1\n  dup2\n  shl\n    /* \"#utility.yul\":2360:2382   */\n  add\n    /* \"#utility.yul\":2347:2383   */\n  swap1\n  sstore\n  pop\n    /* \"#utility.yul\":1351:2650   */\n  jump\t// out\n    /* \"#utility.yul\":2655:2839   */\ntag_6:\n    /* \"#utility.yul\":2725:2731   */\n  0x00\n    /* \"#utility.yul\":2778:2780   */\n  0x20\n    /* \"#utility.yul\":2766:2775   */\n  dup3\n    /* \"#utility.yul\":2757:2764   */\n  dup5\n    /* \"#utility.yul\":2753:2776   */\n  sub\n    /* \"#utility.yul\":2749:2781   */\n  slt\n    /* \"#utility.yul\":2746:2798   */\n  iszero\n  tag_61\n  jumpi\n    /* \"#utility.yul\":2794:2795   */\n  0x00\n    /* \"#utility.yul\":2791:2792   */\n  0x00\n    /* \"#utility.yul\":2784:2796   */\n  revert\n    /* \"#utility.yul\":2746:2798   */\ntag_61:\n  pop\n    /* \"#utility.yul\":2817:2833   */\n  mload\n  swap2\n    /* \"#utility.yul\":2655:2839   */\n  swap1\n  pop\n  jump\t// out\n    /* \"#utility.yul\":2844:2971   */\ntag_30:\n    /* \"#utility.yul\":2905:2915   */\n  0x4e487b71\n    /* \"#utility.yul\":2900:2903   */\n  0xe0\n    /* \"#utility.yul\":2896:2916   */\n  shl\n    /* \"#utility.yul\":2893:2894   */\n  0x00\n    /* \"#utility.yul\":2886:2917   */\n  mstore\n    /* \"#utility.yul\":2936:2940   */\n  0x11\n    /* \"#utility.yul\":2933:2934   */\n  0x04\n    /* \"#utility.yul\":2926:2941   */\n  mstore\n    /* \"#utility.yul\":2960:2964   */\n  0x24\n    /* \"#utility.yul\":2957:2958   */\n  0x00\n    /* \"#utility.yul\":2950:2965   */\n  revert\n    /* \"#utility.yul\":2976:3351   */\ntag_31:\n    /* \"#utility.yul\":3064:3065   */\n  0x01\n    /* \"#utility.yul\":3082:3087   */\n  dup2\n    /* \"#utility.yul\":3096:3345   */\ntag_64:\n    /* \"#utility.yul\":3117:3118   */\n  0x01\n    /* \"#utility.yul\":3107:3115   */\n  dup5\n    /* \"#utility.yul\":3104:3119   */\n  gt\n    /* \"#utility.yul\":3096:3345   */\n  iszero\n  tag_66\n  jumpi\n    /* \"#utility.yul\":3167:3171   */\n  dup1\n    /* \"#utility.yul\":3162:3165   */\n  dup6\n    /* \"#utility.yul\":3158:3172   */\n  div\n    /* \"#utility.yul\":3152:3156   */\n  dup2\n    /* \"#utility.yul\":3149:3173   */\n  gt\n    /* \"#utility.yul\":3146:3196   */\n  iszero\n  tag_68\n  jumpi\n    /* \"#utility.yul\":3176:3194   */\n  tag_68\n  tag_30\n  jump\t// in\ntag_68:\n    /* \"#utility.yul\":3226:3227   */\n  0x01\n    /* \"#utility.yul\":3216:3224   */\n  dup5\n    /* \"#utility.yul\":3212:3228   */\n  and\n    /* \"#utility.yul\":3209:3258   */\n  iszero\n  tag_69\n  jumpi\n    /* \"#utility.yul\":3240:3256   */\n  swap1\n  dup2\n  mul\n  swap1\n    /* \"#utility.yul\":3209:3258   */\ntag_69:\n    /* \"#utility.yul\":3323:3324   */\n  0x01\n    /* \"#utility.yul\":3319:3335   */\n  swap4\n  swap1\n  swap4\n  shr\n  swap3\n    /* \"#utility.yul\":3279:3294   */\n  dup1\n  mul\n    /* \"#utility.yul\":3096:3345   */\n  jump(tag_64)\ntag_66:\n    /* \"#utility.yul\":2976:3351   */\n  swap4\n  pop\n  swap4\n  swap2\n  pop\n  pop\n  jump\t// out\n    /* \"#utility.yul\":3356:4258   */\ntag_32:\n    /* \"#utility.yul\":3405:3410   */\n  0x00\n    /* \"#utility.yul\":3435:3443   */\n  dup3\n    /* \"#utility.yul\":3425:3505   */\n  tag_71\n  jumpi\n  pop\n    /* \"#utility.yul\":3476:3477   */\n  0x01\n    /* \"#utility.yul\":3490:3495   */\n  jump(tag_70)\n    /* \"#utility.yul\":3425:3505   */\ntag_71:\n    /* \"#utility.yul\":3524:3528   */\n  dup2\n    /* \"#utility.yul\":3514:3590   */\n  tag_72\n  jumpi\n  pop\n    /* \"#utility.yul\":3561:3562   */\n  0x00\n    /* \"#utility.yul\":3575:3580   */\n  jump(tag_70)\n    /* \"#utility.yul\":3514:3590   */\ntag_72:\n    /* \"#utility.yul\":3606:3610   */\n  dup2\n    /* \"#utility.yul\":3624:3625   */\n  0x01\n    /* \"#utility.yul\":3619:3678   */\n  dup2\n  eq\n  tag_74\n  jumpi\n    /* \"#utility.yul\":3692:3693   */\n  0x02\n    /* \"#utility.yul\":3687:3861   */\n  dup2\n  eq\n  tag_75\n  jumpi\n    /* \"#utility.yul\":3599:3861   */\n  jump(tag_73)\n    /* \"#utility.yul\":3619:3678   */\ntag_74:\n    /* \"#utility.yul\":3649:3650   */\n  0x01\n    /* \"#utility.yul\":3640:3650   */\n  swap2\n  pop\n    /* \"#utility.yul\":3663:3668   */\n  pop\n  jump(tag_70)\n    /* \"#utility.yul\":3687:3861   */\ntag_75:\n    /* \"#utility.yul\":3724:3727   */\n  0xff\n    /* \"#utility.yul\":3714:3722   */\n  dup5\n    /* \"#utility.yul\":3711:3728   */\n  gt\n    /* \"#utility.yul\":3708:3751   */\n  iszero\n  tag_77\n  jumpi\n    /* \"#utility.yul\":3731:3749   */\n  tag_77\n  tag_30\n  jump\t// in\ntag_77:\n  pop\n  pop\n    /* \"#utility.yul\":3787:3788   */\n  0x01\n    /* \"#utility.yul\":3773:3789   */\n  dup3\n  shl\n    /* \"#utility.yul\":3846:3851   */\n  jump(tag_70)\n    /* \"#utility.yul\":3599:3861   */\ntag_73:\n  pop\n    /* \"#utility.yul\":3945:3947   */\n  0x20\n    /* \"#utility.yul\":3935:3943   */\n  dup4\n    /* \"#utility.yul\":3932:3948   */\n  lt\n    /* \"#utility.yul\":3926:3929   */\n  0x0133\n    /* \"#utility.yul\":3920:3924   */\n  dup4\n    /* \"#utility.yul\":3917:3930   */\n  lt\n    /* \"#utility.yul\":3913:3949   */\n  and\n    /* \"#utility.yul\":3907:3909   */\n  0x4e\n    /* \"#utility.yul\":3897:3905   */\n  dup5\n    /* \"#utility.yul\":3894:3910   */\n  lt\n    /* \"#utility.yul\":3889:3891   */\n  0x0b\n    /* \"#utility.yul\":3883:3887   */\n  dup5\n    /* \"#utility.yul\":3880:3892   */\n  lt\n    /* \"#utility.yul\":3876:3911   */\n  and\n    /* \"#utility.yul\":3873:3950   */\n  or\n    /* \"#utility.yul\":3870:4073   */\n  iszero\n  tag_78\n  jumpi\n  pop\n    /* \"#utility.yul\":3982:4001   */\n  dup2\n  dup2\n  exp\n    /* \"#utility.yul\":4058:4063   */\n  jump(tag_70)\n    /* \"#utility.yul\":3870:4073   */\ntag_78:\n    /* \"#utility.yul\":4105:4147   */\n  tag_79\n  not(0x00)\n    /* \"#utility.yul\":4130:4138   */\n  dup5\n    /* \"#utility.yul\":4124:4128   */\n  dup5\n    /* \"#utility.yul\":4105:4147   */\n  tag_31\n  jump\t// in\ntag_79:\n    /* \"#utility.yul\":4183:4189   */\n  dup1\n    /* \"#utility.yul\":4179:4180   */\n  0x00\n    /* \"#utility.yul\":4175:4181   */\n  not\n    /* \"#utility.yul\":4171:4190   */\n  div\n    /* \"#utility.yul\":4162:4169   */\n  dup3\n    /* \"#utility.yul\":4159:4191   */\n  gt\n    /* \"#utility.yul\":4156:4214   */\n  iszero\n  tag_81\n  jumpi\n    /* \"#utility.yul\":4194:4212   */\n  tag_81\n  tag_30\n  jump\t// in\ntag_81:\n    /* \"#utility.yul\":4232:4252   */\n  mul\n  swap1\n  pop\n    /* \"#utility.yul\":3356:4258   */\ntag_70:\n  swap3\n  swap2\n  pop\n  pop\n  jump\t// out\n    /* \"#utility.yul\":4263:4394   */\ntag_11:\n    /* \"#utility.yul\":4323:4328   */\n  0x00\n    /* \"#utility.yul\":4352:4388   */\n  tag_83\n    /* \"#utility.yul\":4379:4387   */\n  dup4\n    /* \"#utility.yul\":4373:4377   */\n  dup4\n    /* \"#utility.yul\":4352:4388   */\n  tag_32\n  jump\t// in\ntag_83:\n    /* \"#utility.yul\":4343:4388   */\n  swap4\n    /* \"#utility.yul\":4263:4394   */\n  swap3\n  pop\n  pop\n  pop\n  jump\t// out\n    /* \"#utility.yul\":4399:4567   */\ntag_13:\n    /* \"#utility.yul\":4472:4481   */\n  dup1\n  dup3\n  mul\n    /* \"#utility.yul\":4503:4512   */\n  dup2\n  iszero\n    /* \"#utility.yul\":4520:4535   */\n  dup3\n  dup3\n  div\n    /* \"#utility.yul\":4514:4536   */\n  dup5\n  eq\n    /* \"#utility.yul\":4500:4537   */\n  or\n    /* \"#utility.yul\":4490:4561   */\n  tag_70\n  jumpi\n    /* \"#utility.yul\":4541:4559   */\n  tag_70\n  tag_30\n  jump\t// in\n    /* \"#utility.yul\":4925:5050   */\ntag_21:\n    /* \"#utility.yul\":4990:4999   */\n  dup1\n  dup3\n  add\n    /* \"#utility.yul\":5011:5021   */\n  dup1\n  dup3\n  gt\n    /* \"#utility.yul\":5008:5044   */\n  iszero\n  tag_70\n  jumpi\n    /* \"#utility.yul\":5024:5042   */\n  tag_70\n  tag_30\n  jump\t// in\n    /* \"#utility.yul\":5055:5232   */\ntag_33:\n    /* \"contracts/AenzbiToken.sol\":437:3006  contract AenzbiToken is IERC20 {... */\n  dataSize(sub_0)\n  dup1\n  dataOffset(sub_0)\n  0x00\n  codecopy\n  0x00\n  return\nstop\n\nsub_0: assembly {\n        /* \"contracts/AenzbiToken.sol\":437:3006  contract AenzbiToken is IERC20 {... */\n      mstore(0x40, 0x80)\n      jumpi(tag_1, lt(calldatasize, 0x04))\n      shr(0xe0, calldataload(0x00))\n      dup1\n      0x7ff9b596\n      gt\n      tag_15\n      jumpi\n      dup1\n      0x7ff9b596\n      eq\n      tag_9\n      jumpi\n      dup1\n      0x8da5cb5b\n      eq\n      tag_10\n      jumpi\n      dup1\n      0x95d89b41\n      eq\n      tag_11\n      jumpi\n      dup1\n      0xa9059cbb\n      eq\n      tag_12\n      jumpi\n      dup1\n      0xd0febe4c\n      eq\n      tag_13\n      jumpi\n      dup1\n      0xe086e5ec\n      eq\n      tag_14\n      jumpi\n      revert(0x00, 0x00)\n    tag_15:\n      dup1\n      0x06fdde03\n      eq\n      tag_3\n      jumpi\n      dup1\n      0x18160ddd\n      eq\n      tag_4\n      jumpi\n      dup1\n      0x313ce567\n      eq\n      tag_5\n      jumpi\n      dup1\n      0x4064a6ee\n      eq\n      tag_6\n      jumpi\n      dup1\n      0x6a61e5fc\n      eq\n      tag_7\n      jumpi\n      dup1\n      0x70a08231\n      eq\n      tag_8\n      jumpi\n      revert(0x00, 0x00)\n    tag_1:\n      jumpi(tag_2, calldatasize)\n        /* \"contracts/AenzbiToken.sol\":2986:2997  buyTokens() */\n      tag_18\n        /* \"contracts/AenzbiToken.sol\":2986:2995  buyTokens */\n      tag_19\n        /* \"contracts/AenzbiToken.sol\":2986:2997  buyTokens() */\n      jump\t// in\n    tag_18:\n        /* \"contracts/AenzbiToken.sol\":437:3006  contract AenzbiToken is IERC20 {... */\n      stop\n    tag_2:\n      revert(0x00, 0x00)\n        /* \"contracts/AenzbiToken.sol\":474:509  string public name = \"Aenzbi Token\" */\n    tag_3:\n      callvalue\n      dup1\n      iszero\n      tag_20\n      jumpi\n      revert(0x00, 0x00)\n    tag_20:\n      pop\n      tag_21\n      tag_22\n      jump\t// in\n    tag_21:\n      mload(0x40)\n      tag_23\n      swap2\n      swap1\n      tag_24\n      jump\t// in\n    tag_23:\n      mload(0x40)\n      dup1\n      swap2\n      sub\n      swap1\n      return\n        /* \"contracts/AenzbiToken.sol\":1189:1287  function totalSupply() public view override returns (uint256) {... */\n    tag_4:\n      callvalue\n      dup1\n      iszero\n      tag_25\n      jumpi\n      revert(0x00, 0x00)\n    tag_25:\n      pop\n        /* \"contracts/AenzbiToken.sol\":1268:1280  _totalSupply */\n      sload(0x03)\n        /* \"contracts/AenzbiToken.sol\":1189:1287  function totalSupply() public view override returns (uint256) {... */\n    tag_26:\n      mload(0x40)\n        /* \"#utility.yul\":583:608   */\n      swap1\n      dup2\n      mstore\n        /* \"#utility.yul\":571:573   */\n      0x20\n        /* \"#utility.yul\":556:574   */\n      add\n        /* \"contracts/AenzbiToken.sol\":1189:1287  function totalSupply() public view override returns (uint256) {... */\n      tag_23\n        /* \"#utility.yul\":437:614   */\n      jump\n        /* \"contracts/AenzbiToken.sol\":549:575  uint8 public decimals = 18 */\n    tag_5:\n      callvalue\n      dup1\n      iszero\n      tag_30\n      jumpi\n      revert(0x00, 0x00)\n    tag_30:\n      pop\n      sload(0x02)\n      tag_31\n      swap1\n      0xff\n      and\n      dup2\n      jump\n    tag_31:\n      mload(0x40)\n        /* \"#utility.yul\":791:795   */\n      0xff\n        /* \"#utility.yul\":779:796   */\n      swap1\n      swap2\n      and\n        /* \"#utility.yul\":761:797   */\n      dup2\n      mstore\n        /* \"#utility.yul\":749:751   */\n      0x20\n        /* \"#utility.yul\":734:752   */\n      add\n        /* \"contracts/AenzbiToken.sol\":549:575  uint8 public decimals = 18 */\n      tag_23\n        /* \"#utility.yul\":619:803   */\n      jump\n        /* \"contracts/AenzbiToken.sol\":2154:2464  function payWithTokens(uint256 amount) public {... */\n    tag_6:\n      callvalue\n      dup1\n      iszero\n      tag_35\n      jumpi\n      revert(0x00, 0x00)\n    tag_35:\n      pop\n      tag_18\n      tag_37\n      calldatasize\n      0x04\n      tag_38\n      jump\t// in\n    tag_37:\n      tag_39\n      jump\t// in\n        /* \"contracts/AenzbiToken.sol\":2470:2572  function setTokenPrice(uint256 newPriceWei) public onlyOwner {... */\n    tag_7:\n      callvalue\n      dup1\n      iszero\n      tag_40\n      jumpi\n      revert(0x00, 0x00)\n    tag_40:\n      pop\n      tag_18\n      tag_42\n      calldatasize\n      0x04\n      tag_38\n      jump\t// in\n    tag_42:\n      tag_43\n      jump\t// in\n        /* \"contracts/AenzbiToken.sol\":1293:1410  function balanceOf(address account) public view override returns (uint256) {... */\n    tag_8:\n      callvalue\n      dup1\n      iszero\n      tag_44\n      jumpi\n      revert(0x00, 0x00)\n    tag_44:\n      pop\n      tag_26\n      tag_46\n      calldatasize\n      0x04\n      tag_47\n      jump\t// in\n    tag_46:\n      sub(shl(0xa0, 0x01), 0x01)\n        /* \"contracts/AenzbiToken.sol\":1385:1403  _balances[account] */\n      and\n        /* \"contracts/AenzbiToken.sol\":1359:1366  uint256 */\n      0x00\n        /* \"contracts/AenzbiToken.sol\":1385:1403  _balances[account] */\n      swap1\n      dup2\n      mstore\n        /* \"contracts/AenzbiToken.sol\":1385:1394  _balances */\n      0x06\n        /* \"contracts/AenzbiToken.sol\":1385:1403  _balances[account] */\n      0x20\n      mstore\n      0x40\n      swap1\n      keccak256\n      sload\n      swap1\n        /* \"contracts/AenzbiToken.sol\":1293:1410  function balanceOf(address account) public view override returns (uint256) {... */\n      jump\n        /* \"contracts/AenzbiToken.sol\":641:676  uint256 public tokenPrice = 1 ether */\n    tag_9:\n      callvalue\n      dup1\n      iszero\n      tag_50\n      jumpi\n      revert(0x00, 0x00)\n    tag_50:\n      pop\n      tag_26\n      sload(0x05)\n      dup2\n      jump\n        /* \"contracts/AenzbiToken.sol\":615:635  address public owner */\n    tag_10:\n      callvalue\n      dup1\n      iszero\n      tag_54\n      jumpi\n      revert(0x00, 0x00)\n    tag_54:\n      pop\n      sload(0x04)\n      tag_55\n      swap1\n      sub(shl(0xa0, 0x01), 0x01)\n      and\n      dup2\n      jump\n    tag_55:\n      mload(0x40)\n      sub(shl(0xa0, 0x01), 0x01)\n        /* \"#utility.yul\":1572:1604   */\n      swap1\n      swap2\n      and\n        /* \"#utility.yul\":1554:1605   */\n      dup2\n      mstore\n        /* \"#utility.yul\":1542:1544   */\n      0x20\n        /* \"#utility.yul\":1527:1545   */\n      add\n        /* \"contracts/AenzbiToken.sol\":615:635  address public owner */\n      tag_23\n        /* \"#utility.yul\":1408:1611   */\n      jump\n        /* \"contracts/AenzbiToken.sol\":515:543  string public symbol = \"AZT\" */\n    tag_11:\n      callvalue\n      dup1\n      iszero\n      tag_59\n      jumpi\n      revert(0x00, 0x00)\n    tag_59:\n      pop\n      tag_21\n      tag_61\n      jump\t// in\n        /* \"contracts/AenzbiToken.sol\":1416:1734  function transfer(address recipient, uint256 amount) public override returns (bool) {... */\n    tag_12:\n      callvalue\n      dup1\n      iszero\n      tag_63\n      jumpi\n      revert(0x00, 0x00)\n    tag_63:\n      pop\n      tag_64\n      tag_65\n      calldatasize\n      0x04\n      tag_66\n      jump\t// in\n    tag_65:\n      tag_67\n      jump\t// in\n    tag_64:\n      mload(0x40)\n        /* \"#utility.yul\":2086:2100   */\n      swap1\n      iszero\n        /* \"#utility.yul\":2079:2101   */\n      iszero\n        /* \"#utility.yul\":2061:2102   */\n      dup2\n      mstore\n        /* \"#utility.yul\":2049:2051   */\n      0x20\n        /* \"#utility.yul\":2034:2052   */\n      add\n        /* \"contracts/AenzbiToken.sol\":1416:1734  function transfer(address recipient, uint256 amount) public override returns (bool) {... */\n      tag_23\n        /* \"#utility.yul\":1921:2108   */\n      jump\n        /* \"contracts/AenzbiToken.sol\":1740:2148  function buyTokens() public payable {... */\n    tag_13:\n      tag_18\n      tag_19\n      jump\t// in\n        /* \"contracts/AenzbiToken.sol\":2578:2681  function withdrawETH() public onlyOwner {... */\n    tag_14:\n      callvalue\n      dup1\n      iszero\n      tag_71\n      jumpi\n      revert(0x00, 0x00)\n    tag_71:\n      pop\n      tag_18\n      tag_73\n      jump\t// in\n        /* \"contracts/AenzbiToken.sol\":1740:2148  function buyTokens() public payable {... */\n    tag_19:\n        /* \"contracts/AenzbiToken.sol\":1806:1807  0 */\n      0x00\n        /* \"contracts/AenzbiToken.sol\":1794:1803  msg.value */\n      callvalue\n        /* \"contracts/AenzbiToken.sol\":1794:1807  msg.value > 0 */\n      gt\n        /* \"contracts/AenzbiToken.sol\":1786:1834  require(msg.value > 0, \"Send ETH to buy tokens\") */\n      tag_75\n      jumpi\n      mload(0x40)\n      shl(0xe5, 0x461bcd)\n      dup2\n      mstore\n        /* \"#utility.yul\":2315:2317   */\n      0x20\n        /* \"contracts/AenzbiToken.sol\":1786:1834  require(msg.value > 0, \"Send ETH to buy tokens\") */\n      0x04\n      dup3\n      add\n        /* \"#utility.yul\":2297:2318   */\n      mstore\n        /* \"#utility.yul\":2354:2356   */\n      0x16\n        /* \"#utility.yul\":2334:2352   */\n      0x24\n      dup3\n      add\n        /* \"#utility.yul\":2327:2357   */\n      mstore\n      shl(0x50, 0x53656e642045544820746f2062757920746f6b656e73)\n        /* \"#utility.yul\":2373:2391   */\n      0x44\n      dup3\n      add\n        /* \"#utility.yul\":2366:2418   */\n      mstore\n        /* \"#utility.yul\":2435:2453   */\n      0x64\n      add\n        /* \"contracts/AenzbiToken.sol\":1786:1834  require(msg.value > 0, \"Send ETH to buy tokens\") */\n    tag_76:\n      mload(0x40)\n      dup1\n      swap2\n      sub\n      swap1\n      revert\n    tag_75:\n        /* \"contracts/AenzbiToken.sol\":1908:1918  tokenPrice */\n      sload(0x05)\n        /* \"contracts/AenzbiToken.sol\":1894:1902  decimals */\n      sload(0x02)\n        /* \"contracts/AenzbiToken.sol\":1844:1863  uint256 tokensToBuy */\n      0x00\n      swap2\n        /* \"contracts/AenzbiToken.sol\":1908:1918  tokenPrice */\n      swap1\n        /* \"contracts/AenzbiToken.sol\":1880:1903  10 ** uint256(decimals) */\n      tag_78\n      swap1\n        /* \"contracts/AenzbiToken.sol\":1894:1902  decimals */\n      0xff\n      and\n        /* \"contracts/AenzbiToken.sol\":1880:1882  10 */\n      0x0a\n        /* \"contracts/AenzbiToken.sol\":1880:1903  10 ** uint256(decimals) */\n      tag_79\n      jump\t// in\n    tag_78:\n        /* \"contracts/AenzbiToken.sol\":1867:1904  msg.value * (10 ** uint256(decimals)) */\n      tag_80\n      swap1\n        /* \"contracts/AenzbiToken.sol\":1867:1876  msg.value */\n      callvalue\n        /* \"contracts/AenzbiToken.sol\":1867:1904  msg.value * (10 ** uint256(decimals)) */\n      tag_81\n      jump\t// in\n    tag_80:\n        /* \"contracts/AenzbiToken.sol\":1866:1918  (msg.value * (10 ** uint256(decimals))) / tokenPrice */\n      tag_82\n      swap2\n      swap1\n      tag_83\n      jump\t// in\n    tag_82:\n        /* \"contracts/AenzbiToken.sol\":1946:1951  owner */\n      and(sub(shl(0xa0, 0x01), 0x01), sload(0x04))\n        /* \"contracts/AenzbiToken.sol\":1936:1952  _balances[owner] */\n      0x00\n      swap1\n      dup2\n      mstore\n        /* \"contracts/AenzbiToken.sol\":1936:1945  _balances */\n      0x06\n        /* \"contracts/AenzbiToken.sol\":1936:1952  _balances[owner] */\n      0x20\n      mstore\n      0x40\n      swap1\n      keccak256\n      sload\n        /* \"contracts/AenzbiToken.sol\":1844:1918  uint256 tokensToBuy = (msg.value * (10 ** uint256(decimals))) / tokenPrice */\n      swap1\n      swap2\n      pop\n        /* \"contracts/AenzbiToken.sol\":1936:1967  _balances[owner] >= tokensToBuy */\n      dup2\n      gt\n      iszero\n        /* \"contracts/AenzbiToken.sol\":1928:2000  require(_balances[owner] >= tokensToBuy, \"Not enough tokens in reserve\") */\n      tag_84\n      jumpi\n      mload(0x40)\n      shl(0xe5, 0x461bcd)\n      dup2\n      mstore\n        /* \"#utility.yul\":4616:4618   */\n      0x20\n        /* \"contracts/AenzbiToken.sol\":1928:2000  require(_balances[owner] >= tokensToBuy, \"Not enough tokens in reserve\") */\n      0x04\n      dup3\n      add\n        /* \"#utility.yul\":4598:4619   */\n      mstore\n        /* \"#utility.yul\":4655:4657   */\n      0x1c\n        /* \"#utility.yul\":4635:4653   */\n      0x24\n      dup3\n      add\n        /* \"#utility.yul\":4628:4658   */\n      mstore\n        /* \"#utility.yul\":4694:4724   */\n      0x4e6f7420656e6f75676820746f6b656e7320696e207265736572766500000000\n        /* \"#utility.yul\":4674:4692   */\n      0x44\n      dup3\n      add\n        /* \"#utility.yul\":4667:4725   */\n      mstore\n        /* \"#utility.yul\":4742:4760   */\n      0x64\n      add\n        /* \"contracts/AenzbiToken.sol\":1928:2000  require(_balances[owner] >= tokensToBuy, \"Not enough tokens in reserve\") */\n      tag_76\n        /* \"#utility.yul\":4414:4766   */\n      jump\n        /* \"contracts/AenzbiToken.sol\":1928:2000  require(_balances[owner] >= tokensToBuy, \"Not enough tokens in reserve\") */\n    tag_84:\n        /* \"contracts/AenzbiToken.sol\":2020:2025  owner */\n      and(sub(shl(0xa0, 0x01), 0x01), sload(0x04))\n        /* \"contracts/AenzbiToken.sol\":2010:2026  _balances[owner] */\n      0x00\n      swap1\n      dup2\n      mstore\n        /* \"contracts/AenzbiToken.sol\":2010:2019  _balances */\n      0x06\n        /* \"contracts/AenzbiToken.sol\":2010:2026  _balances[owner] */\n      0x20\n      mstore\n      0x40\n      dup2\n      keccak256\n        /* \"contracts/AenzbiToken.sol\":2010:2041  _balances[owner] -= tokensToBuy */\n      dup1\n      sload\n        /* \"contracts/AenzbiToken.sol\":2030:2041  tokensToBuy */\n      dup4\n      swap3\n        /* \"contracts/AenzbiToken.sol\":2010:2026  _balances[owner] */\n      swap1\n        /* \"contracts/AenzbiToken.sol\":2010:2041  _balances[owner] -= tokensToBuy */\n      tag_87\n      swap1\n        /* \"contracts/AenzbiToken.sol\":2030:2041  tokensToBuy */\n      dup5\n      swap1\n        /* \"contracts/AenzbiToken.sol\":2010:2041  _balances[owner] -= tokensToBuy */\n      tag_88\n      jump\t// in\n    tag_87:\n      swap1\n      swap2\n      sstore\n      pop\n      pop\n        /* \"contracts/AenzbiToken.sol\":2061:2071  msg.sender */\n      caller\n        /* \"contracts/AenzbiToken.sol\":2051:2072  _balances[msg.sender] */\n      0x00\n      swap1\n      dup2\n      mstore\n        /* \"contracts/AenzbiToken.sol\":2051:2060  _balances */\n      0x06\n        /* \"contracts/AenzbiToken.sol\":2051:2072  _balances[msg.sender] */\n      0x20\n      mstore\n      0x40\n      dup2\n      keccak256\n        /* \"contracts/AenzbiToken.sol\":2051:2087  _balances[msg.sender] += tokensToBuy */\n      dup1\n      sload\n        /* \"contracts/AenzbiToken.sol\":2076:2087  tokensToBuy */\n      dup4\n      swap3\n        /* \"contracts/AenzbiToken.sol\":2051:2072  _balances[msg.sender] */\n      swap1\n        /* \"contracts/AenzbiToken.sol\":2051:2087  _balances[msg.sender] += tokensToBuy */\n      tag_89\n      swap1\n        /* \"contracts/AenzbiToken.sol\":2076:2087  tokensToBuy */\n      dup5\n      swap1\n        /* \"contracts/AenzbiToken.sol\":2051:2087  _balances[msg.sender] += tokensToBuy */\n      tag_90\n      jump\t// in\n    tag_89:\n      swap1\n      swap2\n      sstore\n      pop\n      pop\n        /* \"contracts/AenzbiToken.sol\":2102:2141  TokenPurchased(msg.sender, tokensToBuy) */\n      mload(0x40)\n        /* \"#utility.yul\":583:608   */\n      dup2\n      dup2\n      mstore\n        /* \"contracts/AenzbiToken.sol\":2117:2127  msg.sender */\n      caller\n      swap1\n        /* \"contracts/AenzbiToken.sol\":2102:2141  TokenPurchased(msg.sender, tokensToBuy) */\n      0x55c18555197c6574627cf460c66073d10aa05d412468800b7b71feeaf82ea92d\n      swap1\n        /* \"#utility.yul\":571:573   */\n      0x20\n        /* \"#utility.yul\":556:574   */\n      add\n        /* \"contracts/AenzbiToken.sol\":2102:2141  TokenPurchased(msg.sender, tokensToBuy) */\n    tag_91:\n      mload(0x40)\n      dup1\n      swap2\n      sub\n      swap1\n      log2\n        /* \"contracts/AenzbiToken.sol\":1776:2148  {... */\n      pop\n        /* \"contracts/AenzbiToken.sol\":1740:2148  function buyTokens() public payable {... */\n      jump\t// out\n        /* \"contracts/AenzbiToken.sol\":474:509  string public name = \"Aenzbi Token\" */\n    tag_22:\n      0x00\n      dup1\n      sload\n      tag_92\n      swap1\n      tag_93\n      jump\t// in\n    tag_92:\n      dup1\n      0x1f\n      add\n      0x20\n      dup1\n      swap2\n      div\n      mul\n      0x20\n      add\n      mload(0x40)\n      swap1\n      dup2\n      add\n      0x40\n      mstore\n      dup1\n      swap3\n      swap2\n      swap1\n      dup2\n      dup2\n      mstore\n      0x20\n      add\n      dup3\n      dup1\n      sload\n      tag_94\n      swap1\n      tag_93\n      jump\t// in\n    tag_94:\n      dup1\n      iszero\n      tag_95\n      jumpi\n      dup1\n      0x1f\n      lt\n      tag_96\n      jumpi\n      0x0100\n      dup1\n      dup4\n      sload\n      div\n      mul\n      dup4\n      mstore\n      swap2\n      0x20\n      add\n      swap2\n      jump(tag_95)\n    tag_96:\n      dup3\n      add\n      swap2\n      swap1\n      0x00\n      mstore\n      keccak256(0x00, 0x20)\n      swap1\n    tag_97:\n      dup2\n      sload\n      dup2\n      mstore\n      swap1\n      0x01\n      add\n      swap1\n      0x20\n      add\n      dup1\n      dup4\n      gt\n      tag_97\n      jumpi\n      dup3\n      swap1\n      sub\n      0x1f\n      and\n      dup3\n      add\n      swap2\n    tag_95:\n      pop\n      pop\n      pop\n      pop\n      pop\n      dup2\n      jump\t// out\n        /* \"contracts/AenzbiToken.sol\":2154:2464  function payWithTokens(uint256 amount) public {... */\n    tag_39:\n        /* \"contracts/AenzbiToken.sol\":2228:2238  msg.sender */\n      caller\n        /* \"contracts/AenzbiToken.sol\":2218:2239  _balances[msg.sender] */\n      0x00\n      swap1\n      dup2\n      mstore\n        /* \"contracts/AenzbiToken.sol\":2218:2227  _balances */\n      0x06\n        /* \"contracts/AenzbiToken.sol\":2218:2239  _balances[msg.sender] */\n      0x20\n      mstore\n      0x40\n      swap1\n      keccak256\n      sload\n        /* \"contracts/AenzbiToken.sol\":2218:2249  _balances[msg.sender] >= amount */\n      dup2\n      gt\n      iszero\n        /* \"contracts/AenzbiToken.sol\":2210:2280  require(_balances[msg.sender] >= amount, \"Insufficient token balance\") */\n      tag_100\n      jumpi\n      mload(0x40)\n      shl(0xe5, 0x461bcd)\n      dup2\n      mstore\n        /* \"#utility.yul\":5621:5623   */\n      0x20\n        /* \"contracts/AenzbiToken.sol\":2210:2280  require(_balances[msg.sender] >= amount, \"Insufficient token balance\") */\n      0x04\n      dup3\n      add\n        /* \"#utility.yul\":5603:5624   */\n      mstore\n        /* \"#utility.yul\":5660:5662   */\n      0x1a\n        /* \"#utility.yul\":5640:5658   */\n      0x24\n      dup3\n      add\n        /* \"#utility.yul\":5633:5663   */\n      mstore\n        /* \"#utility.yul\":5699:5727   */\n      0x496e73756666696369656e7420746f6b656e2062616c616e6365000000000000\n        /* \"#utility.yul\":5679:5697   */\n      0x44\n      dup3\n      add\n        /* \"#utility.yul\":5672:5728   */\n      mstore\n        /* \"#utility.yul\":5745:5763   */\n      0x64\n      add\n        /* \"contracts/AenzbiToken.sol\":2210:2280  require(_balances[msg.sender] >= amount, \"Insufficient token balance\") */\n      tag_76\n        /* \"#utility.yul\":5419:5769   */\n      jump\n        /* \"contracts/AenzbiToken.sol\":2210:2280  require(_balances[msg.sender] >= amount, \"Insufficient token balance\") */\n    tag_100:\n        /* \"contracts/AenzbiToken.sol\":2300:2310  msg.sender */\n      caller\n        /* \"contracts/AenzbiToken.sol\":2290:2311  _balances[msg.sender] */\n      0x00\n      swap1\n      dup2\n      mstore\n        /* \"contracts/AenzbiToken.sol\":2290:2299  _balances */\n      0x06\n        /* \"contracts/AenzbiToken.sol\":2290:2311  _balances[msg.sender] */\n      0x20\n      mstore\n      0x40\n      dup2\n      keccak256\n        /* \"contracts/AenzbiToken.sol\":2290:2321  _balances[msg.sender] -= amount */\n      dup1\n      sload\n        /* \"contracts/AenzbiToken.sol\":2315:2321  amount */\n      dup4\n      swap3\n        /* \"contracts/AenzbiToken.sol\":2290:2311  _balances[msg.sender] */\n      swap1\n        /* \"contracts/AenzbiToken.sol\":2290:2321  _balances[msg.sender] -= amount */\n      tag_103\n      swap1\n        /* \"contracts/AenzbiToken.sol\":2315:2321  amount */\n      dup5\n      swap1\n        /* \"contracts/AenzbiToken.sol\":2290:2321  _balances[msg.sender] -= amount */\n      tag_88\n      jump\t// in\n    tag_103:\n      swap1\n      swap2\n      sstore\n      pop\n      pop\n        /* \"contracts/AenzbiToken.sol\":2341:2346  owner */\n      and(sub(shl(0xa0, 0x01), 0x01), sload(0x04))\n        /* \"contracts/AenzbiToken.sol\":2331:2347  _balances[owner] */\n      0x00\n      swap1\n      dup2\n      mstore\n        /* \"contracts/AenzbiToken.sol\":2331:2340  _balances */\n      0x06\n        /* \"contracts/AenzbiToken.sol\":2331:2347  _balances[owner] */\n      0x20\n      mstore\n      0x40\n      dup2\n      keccak256\n        /* \"contracts/AenzbiToken.sol\":2331:2357  _balances[owner] += amount */\n      dup1\n      sload\n        /* \"contracts/AenzbiToken.sol\":2351:2357  amount */\n      dup4\n      swap3\n        /* \"contracts/AenzbiToken.sol\":2331:2347  _balances[owner] */\n      swap1\n        /* \"contracts/AenzbiToken.sol\":2331:2357  _balances[owner] += amount */\n      tag_104\n      swap1\n        /* \"contracts/AenzbiToken.sol\":2351:2357  amount */\n      dup5\n      swap1\n        /* \"contracts/AenzbiToken.sol\":2331:2357  _balances[owner] += amount */\n      tag_90\n      jump\t// in\n    tag_104:\n      swap1\n      swap2\n      sstore\n      pop\n      pop\n        /* \"contracts/AenzbiToken.sol\":2393:2398  owner */\n      sload(0x04)\n        /* \"contracts/AenzbiToken.sol\":2372:2407  Transfer(msg.sender, owner, amount) */\n      mload(0x40)\n        /* \"#utility.yul\":583:608   */\n      dup3\n      dup2\n      mstore\n      sub(shl(0xa0, 0x01), 0x01)\n        /* \"contracts/AenzbiToken.sol\":2393:2398  owner */\n      swap1\n      swap2\n      and\n      swap1\n        /* \"contracts/AenzbiToken.sol\":2381:2391  msg.sender */\n      caller\n      swap1\n        /* \"contracts/AenzbiToken.sol\":2372:2407  Transfer(msg.sender, owner, amount) */\n      0xddf252ad1be2c89b69c2b068fc378daa952ba7f163c4a11628f55a4df523b3ef\n      swap1\n        /* \"#utility.yul\":571:573   */\n      0x20\n        /* \"#utility.yul\":556:574   */\n      add\n        /* \"contracts/AenzbiToken.sol\":2372:2407  Transfer(msg.sender, owner, amount) */\n      mload(0x40)\n      dup1\n      swap2\n      sub\n      swap1\n      log3\n        /* \"contracts/AenzbiToken.sol\":2422:2457  PaymentReceived(msg.sender, amount) */\n      mload(0x40)\n        /* \"#utility.yul\":583:608   */\n      dup2\n      dup2\n      mstore\n        /* \"contracts/AenzbiToken.sol\":2438:2448  msg.sender */\n      caller\n      swap1\n        /* \"contracts/AenzbiToken.sol\":2422:2457  PaymentReceived(msg.sender, amount) */\n      0x6ef95f06320e7a25a04a175ca677b7052bdd97131872c2192525a629f51be770\n      swap1\n        /* \"#utility.yul\":571:573   */\n      0x20\n        /* \"#utility.yul\":556:574   */\n      add\n        /* \"contracts/AenzbiToken.sol\":2422:2457  PaymentReceived(msg.sender, amount) */\n      tag_91\n        /* \"#utility.yul\":437:614   */\n      jump\n        /* \"contracts/AenzbiToken.sol\":2470:2572  function setTokenPrice(uint256 newPriceWei) public onlyOwner {... */\n    tag_43:\n        /* \"contracts/AenzbiToken.sol\":996:1001  owner */\n      and(sub(shl(0xa0, 0x01), 0x01), sload(0x04))\n        /* \"contracts/AenzbiToken.sol\":982:992  msg.sender */\n      caller\n        /* \"contracts/AenzbiToken.sol\":982:1001  msg.sender == owner */\n      eq\n        /* \"contracts/AenzbiToken.sol\":974:1024  require(msg.sender == owner, \"Only owner allowed\") */\n      tag_108\n      jumpi\n      mload(0x40)\n      shl(0xe5, 0x461bcd)\n      dup2\n      mstore\n        /* \"#utility.yul\":5976:5978   */\n      0x20\n        /* \"contracts/AenzbiToken.sol\":974:1024  require(msg.sender == owner, \"Only owner allowed\") */\n      0x04\n      dup3\n      add\n        /* \"#utility.yul\":5958:5979   */\n      mstore\n        /* \"#utility.yul\":6015:6017   */\n      0x12\n        /* \"#utility.yul\":5995:6013   */\n      0x24\n      dup3\n      add\n        /* \"#utility.yul\":5988:6018   */\n      mstore\n      shl(0x72, 0x13db9b1e481bdddb995c88185b1b1bddd959)\n        /* \"#utility.yul\":6034:6052   */\n      0x44\n      dup3\n      add\n        /* \"#utility.yul\":6027:6075   */\n      mstore\n        /* \"#utility.yul\":6092:6110   */\n      0x64\n      add\n        /* \"contracts/AenzbiToken.sol\":974:1024  require(msg.sender == owner, \"Only owner allowed\") */\n      tag_76\n        /* \"#utility.yul\":5774:6116   */\n      jump\n        /* \"contracts/AenzbiToken.sol\":974:1024  require(msg.sender == owner, \"Only owner allowed\") */\n    tag_108:\n        /* \"contracts/AenzbiToken.sol\":2541:2551  tokenPrice */\n      0x05\n        /* \"contracts/AenzbiToken.sol\":2541:2565  tokenPrice = newPriceWei */\n      sstore\n        /* \"contracts/AenzbiToken.sol\":2470:2572  function setTokenPrice(uint256 newPriceWei) public onlyOwner {... */\n      jump\t// out\n        /* \"contracts/AenzbiToken.sol\":515:543  string public symbol = \"AZT\" */\n    tag_61:\n      0x01\n      dup1\n      sload\n      tag_92\n      swap1\n      tag_93\n      jump\t// in\n        /* \"contracts/AenzbiToken.sol\":1416:1734  function transfer(address recipient, uint256 amount) public override returns (bool) {... */\n    tag_67:\n        /* \"contracts/AenzbiToken.sol\":1528:1538  msg.sender */\n      caller\n        /* \"contracts/AenzbiToken.sol\":1494:1498  bool */\n      0x00\n        /* \"contracts/AenzbiToken.sol\":1518:1539  _balances[msg.sender] */\n      swap1\n      dup2\n      mstore\n        /* \"contracts/AenzbiToken.sol\":1518:1527  _balances */\n      0x06\n        /* \"contracts/AenzbiToken.sol\":1518:1539  _balances[msg.sender] */\n      0x20\n      mstore\n      0x40\n      dup2\n      keccak256\n      sload\n        /* \"contracts/AenzbiToken.sol\":1518:1549  _balances[msg.sender] >= amount */\n      dup3\n      gt\n      iszero\n        /* \"contracts/AenzbiToken.sol\":1510:1571  require(_balances[msg.sender] >= amount, \"Not enough tokens\") */\n      tag_119\n      jumpi\n      mload(0x40)\n      shl(0xe5, 0x461bcd)\n      dup2\n      mstore\n        /* \"#utility.yul\":6323:6325   */\n      0x20\n        /* \"contracts/AenzbiToken.sol\":1510:1571  require(_balances[msg.sender] >= amount, \"Not enough tokens\") */\n      0x04\n      dup3\n      add\n        /* \"#utility.yul\":6305:6326   */\n      mstore\n        /* \"#utility.yul\":6362:6364   */\n      0x11\n        /* \"#utility.yul\":6342:6360   */\n      0x24\n      dup3\n      add\n        /* \"#utility.yul\":6335:6365   */\n      mstore\n      shl(0x78, 0x4e6f7420656e6f75676820746f6b656e73)\n        /* \"#utility.yul\":6381:6399   */\n      0x44\n      dup3\n      add\n        /* \"#utility.yul\":6374:6421   */\n      mstore\n        /* \"#utility.yul\":6438:6456   */\n      0x64\n      add\n        /* \"contracts/AenzbiToken.sol\":1510:1571  require(_balances[msg.sender] >= amount, \"Not enough tokens\") */\n      tag_76\n        /* \"#utility.yul\":6121:6462   */\n      jump\n        /* \"contracts/AenzbiToken.sol\":1510:1571  require(_balances[msg.sender] >= amount, \"Not enough tokens\") */\n    tag_119:\n        /* \"contracts/AenzbiToken.sol\":1591:1601  msg.sender */\n      caller\n        /* \"contracts/AenzbiToken.sol\":1581:1602  _balances[msg.sender] */\n      0x00\n      swap1\n      dup2\n      mstore\n        /* \"contracts/AenzbiToken.sol\":1581:1590  _balances */\n      0x06\n        /* \"contracts/AenzbiToken.sol\":1581:1602  _balances[msg.sender] */\n      0x20\n      mstore\n      0x40\n      dup2\n      keccak256\n        /* \"contracts/AenzbiToken.sol\":1581:1612  _balances[msg.sender] -= amount */\n      dup1\n      sload\n        /* \"contracts/AenzbiToken.sol\":1606:1612  amount */\n      dup5\n      swap3\n        /* \"contracts/AenzbiToken.sol\":1581:1602  _balances[msg.sender] */\n      swap1\n        /* \"contracts/AenzbiToken.sol\":1581:1612  _balances[msg.sender] -= amount */\n      tag_122\n      swap1\n        /* \"contracts/AenzbiToken.sol\":1606:1612  amount */\n      dup5\n      swap1\n        /* \"contracts/AenzbiToken.sol\":1581:1612  _balances[msg.sender] -= amount */\n      tag_88\n      jump\t// in\n    tag_122:\n      swap1\n      swap2\n      sstore\n      pop\n      pop\n      sub(shl(0xa0, 0x01), 0x01)\n        /* \"contracts/AenzbiToken.sol\":1622:1642  _balances[recipient] */\n      dup4\n      and\n      0x00\n      swap1\n      dup2\n      mstore\n        /* \"contracts/AenzbiToken.sol\":1622:1631  _balances */\n      0x06\n        /* \"contracts/AenzbiToken.sol\":1622:1642  _balances[recipient] */\n      0x20\n      mstore\n      0x40\n      dup2\n      keccak256\n        /* \"contracts/AenzbiToken.sol\":1622:1652  _balances[recipient] += amount */\n      dup1\n      sload\n        /* \"contracts/AenzbiToken.sol\":1646:1652  amount */\n      dup5\n      swap3\n        /* \"contracts/AenzbiToken.sol\":1622:1642  _balances[recipient] */\n      swap1\n        /* \"contracts/AenzbiToken.sol\":1622:1652  _balances[recipient] += amount */\n      tag_123\n      swap1\n        /* \"contracts/AenzbiToken.sol\":1646:1652  amount */\n      dup5\n      swap1\n        /* \"contracts/AenzbiToken.sol\":1622:1652  _balances[recipient] += amount */\n      tag_90\n      jump\t// in\n    tag_123:\n      swap1\n      swap2\n      sstore\n      pop\n      pop\n        /* \"contracts/AenzbiToken.sol\":1667:1706  Transfer(msg.sender, recipient, amount) */\n      mload(0x40)\n        /* \"#utility.yul\":583:608   */\n      dup3\n      dup2\n      mstore\n      sub(shl(0xa0, 0x01), 0x01)\n        /* \"contracts/AenzbiToken.sol\":1667:1706  Transfer(msg.sender, recipient, amount) */\n      dup5\n      and\n      swap1\n        /* \"contracts/AenzbiToken.sol\":1676:1686  msg.sender */\n      caller\n      swap1\n        /* \"contracts/AenzbiToken.sol\":1667:1706  Transfer(msg.sender, recipient, amount) */\n      0xddf252ad1be2c89b69c2b068fc378daa952ba7f163c4a11628f55a4df523b3ef\n      swap1\n        /* \"#utility.yul\":571:573   */\n      0x20\n        /* \"#utility.yul\":556:574   */\n      add\n        /* \"contracts/AenzbiToken.sol\":1667:1706  Transfer(msg.sender, recipient, amount) */\n      mload(0x40)\n      dup1\n      swap2\n      sub\n      swap1\n      log3\n      pop\n        /* \"contracts/AenzbiToken.sol\":1723:1727  true */\n      0x01\n        /* \"contracts/AenzbiToken.sol\":1416:1734  function transfer(address recipient, uint256 amount) public override returns (bool) {... */\n    tag_118:\n      swap3\n      swap2\n      pop\n      pop\n      jump\t// out\n        /* \"contracts/AenzbiToken.sol\":2578:2681  function withdrawETH() public onlyOwner {... */\n    tag_73:\n        /* \"contracts/AenzbiToken.sol\":996:1001  owner */\n      and(sub(shl(0xa0, 0x01), 0x01), sload(0x04))\n        /* \"contracts/AenzbiToken.sol\":982:992  msg.sender */\n      caller\n        /* \"contracts/AenzbiToken.sol\":982:1001  msg.sender == owner */\n      eq\n        /* \"contracts/AenzbiToken.sol\":974:1024  require(msg.sender == owner, \"Only owner allowed\") */\n      tag_126\n      jumpi\n      mload(0x40)\n      shl(0xe5, 0x461bcd)\n      dup2\n      mstore\n        /* \"#utility.yul\":5976:5978   */\n      0x20\n        /* \"contracts/AenzbiToken.sol\":974:1024  require(msg.sender == owner, \"Only owner allowed\") */\n      0x04\n      dup3\n      add\n        /* \"#utility.yul\":5958:5979   */\n      mstore\n        /* \"#utility.yul\":6015:6017   */\n      0x12\n        /* \"#utility.yul\":5995:6013   */\n      0x24\n      dup3\n      add\n        /* \"#utility.yul\":5988:6018   */\n      mstore\n      shl(0x72, 0x13db9b1e481bdddb995c88185b1b1bddd959)\n        /* \"#utility.yul\":6034:6052   */\n      0x44\n      dup3\n      add\n        /* \"#utility.yul\":6027:6075   */\n      mstore\n        /* \"#utility.yul\":6092:6110   */\n      0x64\n      add\n        /* \"contracts/AenzbiToken.sol\":974:1024  require(msg.sender == owner, \"Only owner allowed\") */\n      tag_76\n        /* \"#utility.yul\":5774:6116   */\n      jump\n        /* \"contracts/AenzbiToken.sol\":974:1024  require(msg.sender == owner, \"Only owner allowed\") */\n    tag_126:\n        /* \"contracts/AenzbiToken.sol\":2636:2641  owner */\n      sload(0x04)\n        /* \"contracts/AenzbiToken.sol\":2628:2674  payable(owner).transfer(address(this).balance) */\n      mload(0x40)\n      sub(shl(0xa0, 0x01), 0x01)\n        /* \"contracts/AenzbiToken.sol\":2636:2641  owner */\n      swap1\n      swap2\n      and\n      swap1\n        /* \"contracts/AenzbiToken.sol\":2652:2673  address(this).balance */\n      selfbalance\n        /* \"contracts/AenzbiToken.sol\":2628:2674  payable(owner).transfer(address(this).balance) */\n      dup1\n      iszero\n      0x08fc\n      mul\n      swap2\n        /* \"contracts/AenzbiToken.sol\":2636:2641  owner */\n      0x00\n        /* \"contracts/AenzbiToken.sol\":2628:2674  payable(owner).transfer(address(this).balance) */\n      dup2\n        /* \"contracts/AenzbiToken.sol\":2636:2641  owner */\n      dup2\n        /* \"contracts/AenzbiToken.sol\":2628:2674  payable(owner).transfer(address(this).balance) */\n      dup2\n        /* \"contracts/AenzbiToken.sol\":2652:2673  address(this).balance */\n      dup6\n        /* \"contracts/AenzbiToken.sol\":2636:2641  owner */\n      dup9\n        /* \"contracts/AenzbiToken.sol\":2628:2674  payable(owner).transfer(address(this).balance) */\n      dup9\n      call\n      swap4\n      pop\n      pop\n      pop\n      pop\n      iszero\n      dup1\n      iszero\n      tag_130\n      jumpi\n      returndatacopy(0x00, 0x00, returndatasize)\n      revert(0x00, returndatasize)\n    tag_130:\n      pop\n        /* \"contracts/AenzbiToken.sol\":2578:2681  function withdrawETH() public onlyOwner {... */\n      jump\t// out\n        /* \"#utility.yul\":14:432   */\n    tag_24:\n        /* \"#utility.yul\":163:165   */\n      0x20\n        /* \"#utility.yul\":152:161   */\n      dup2\n        /* \"#utility.yul\":145:166   */\n      mstore\n        /* \"#utility.yul\":126:130   */\n      0x00\n        /* \"#utility.yul\":195:201   */\n      dup3\n        /* \"#utility.yul\":189:202   */\n      mload\n        /* \"#utility.yul\":238:244   */\n      dup1\n        /* \"#utility.yul\":233:235   */\n      0x20\n        /* \"#utility.yul\":222:231   */\n      dup5\n        /* \"#utility.yul\":218:236   */\n      add\n        /* \"#utility.yul\":211:245   */\n      mstore\n        /* \"#utility.yul\":297:303   */\n      dup1\n        /* \"#utility.yul\":292:294   */\n      0x20\n        /* \"#utility.yul\":284:290   */\n      dup6\n        /* \"#utility.yul\":280:295   */\n      add\n        /* \"#utility.yul\":275:277   */\n      0x40\n        /* \"#utility.yul\":264:273   */\n      dup6\n        /* \"#utility.yul\":260:278   */\n      add\n        /* \"#utility.yul\":254:304   */\n      mcopy\n        /* \"#utility.yul\":353:354   */\n      0x00\n        /* \"#utility.yul\":348:350   */\n      0x40\n        /* \"#utility.yul\":339:345   */\n      dup3\n        /* \"#utility.yul\":328:337   */\n      dup6\n        /* \"#utility.yul\":324:346   */\n      add\n        /* \"#utility.yul\":320:351   */\n      add\n        /* \"#utility.yul\":313:355   */\n      mstore\n        /* \"#utility.yul\":423:425   */\n      0x40\n        /* \"#utility.yul\":416:418   */\n      0x1f\n        /* \"#utility.yul\":412:419   */\n      not\n        /* \"#utility.yul\":407:409   */\n      0x1f\n        /* \"#utility.yul\":399:405   */\n      dup4\n        /* \"#utility.yul\":395:410   */\n      add\n        /* \"#utility.yul\":391:420   */\n      and\n        /* \"#utility.yul\":380:389   */\n      dup5\n        /* \"#utility.yul\":376:421   */\n      add\n        /* \"#utility.yul\":372:426   */\n      add\n        /* \"#utility.yul\":364:426   */\n      swap2\n      pop\n      pop\n        /* \"#utility.yul\":14:432   */\n      swap3\n      swap2\n      pop\n      pop\n      jump\t// out\n        /* \"#utility.yul\":808:1034   */\n    tag_38:\n        /* \"#utility.yul\":867:873   */\n      0x00\n        /* \"#utility.yul\":920:922   */\n      0x20\n        /* \"#utility.yul\":908:917   */\n      dup3\n        /* \"#utility.yul\":899:906   */\n      dup5\n        /* \"#utility.yul\":895:918   */\n      sub\n        /* \"#utility.yul\":891:923   */\n      slt\n        /* \"#utility.yul\":888:940   */\n      iszero\n      tag_140\n      jumpi\n        /* \"#utility.yul\":936:937   */\n      0x00\n        /* \"#utility.yul\":933:934   */\n      0x00\n        /* \"#utility.yul\":926:938   */\n      revert\n        /* \"#utility.yul\":888:940   */\n    tag_140:\n      pop\n        /* \"#utility.yul\":981:1004   */\n      calldataload\n      swap2\n        /* \"#utility.yul\":808:1034   */\n      swap1\n      pop\n      jump\t// out\n        /* \"#utility.yul\":1039:1212   */\n    tag_131:\n        /* \"#utility.yul\":1107:1127   */\n      dup1\n      calldataload\n      sub(shl(0xa0, 0x01), 0x01)\n        /* \"#utility.yul\":1156:1187   */\n      dup2\n      and\n        /* \"#utility.yul\":1146:1188   */\n      dup2\n      eq\n        /* \"#utility.yul\":1136:1206   */\n      tag_142\n      jumpi\n        /* \"#utility.yul\":1202:1203   */\n      0x00\n        /* \"#utility.yul\":1199:1200   */\n      0x00\n        /* \"#utility.yul\":1192:1204   */\n      revert\n        /* \"#utility.yul\":1136:1206   */\n    tag_142:\n        /* \"#utility.yul\":1039:1212   */\n      swap2\n      swap1\n      pop\n      jump\t// out\n        /* \"#utility.yul\":1217:1403   */\n    tag_47:\n        /* \"#utility.yul\":1276:1282   */\n      0x00\n        /* \"#utility.yul\":1329:1331   */\n      0x20\n        /* \"#utility.yul\":1317:1326   */\n      dup3\n        /* \"#utility.yul\":1308:1315   */\n      dup5\n        /* \"#utility.yul\":1304:1327   */\n      sub\n        /* \"#utility.yul\":1300:1332   */\n      slt\n        /* \"#utility.yul\":1297:1349   */\n      iszero\n      tag_144\n      jumpi\n        /* \"#utility.yul\":1345:1346   */\n      0x00\n        /* \"#utility.yul\":1342:1343   */\n      0x00\n        /* \"#utility.yul\":1335:1347   */\n      revert\n        /* \"#utility.yul\":1297:1349   */\n    tag_144:\n        /* \"#utility.yul\":1368:1397   */\n      tag_145\n        /* \"#utility.yul\":1387:1396   */\n      dup3\n        /* \"#utility.yul\":1368:1397   */\n      tag_131\n      jump\t// in\n    tag_145:\n        /* \"#utility.yul\":1358:1397   */\n      swap4\n        /* \"#utility.yul\":1217:1403   */\n      swap3\n      pop\n      pop\n      pop\n      jump\t// out\n        /* \"#utility.yul\":1616:1916   */\n    tag_66:\n        /* \"#utility.yul\":1684:1690   */\n      0x00\n        /* \"#utility.yul\":1692:1698   */\n      0x00\n        /* \"#utility.yul\":1745:1747   */\n      0x40\n        /* \"#utility.yul\":1733:1742   */\n      dup4\n        /* \"#utility.yul\":1724:1731   */\n      dup6\n        /* \"#utility.yul\":1720:1743   */\n      sub\n        /* \"#utility.yul\":1716:1748   */\n      slt\n        /* \"#utility.yul\":1713:1765   */\n      iszero\n      tag_148\n      jumpi\n        /* \"#utility.yul\":1761:1762   */\n      0x00\n        /* \"#utility.yul\":1758:1759   */\n      0x00\n        /* \"#utility.yul\":1751:1763   */\n      revert\n        /* \"#utility.yul\":1713:1765   */\n    tag_148:\n        /* \"#utility.yul\":1784:1813   */\n      tag_149\n        /* \"#utility.yul\":1803:1812   */\n      dup4\n        /* \"#utility.yul\":1784:1813   */\n      tag_131\n      jump\t// in\n    tag_149:\n        /* \"#utility.yul\":1774:1813   */\n      swap5\n        /* \"#utility.yul\":1882:1884   */\n      0x20\n        /* \"#utility.yul\":1867:1885   */\n      swap4\n      swap1\n      swap4\n      add\n        /* \"#utility.yul\":1854:1886   */\n      calldataload\n      swap4\n      pop\n      pop\n      pop\n        /* \"#utility.yul\":1616:1916   */\n      jump\t// out\n        /* \"#utility.yul\":2464:2591   */\n    tag_132:\n        /* \"#utility.yul\":2525:2535   */\n      0x4e487b71\n        /* \"#utility.yul\":2520:2523   */\n      0xe0\n        /* \"#utility.yul\":2516:2536   */\n      shl\n        /* \"#utility.yul\":2513:2514   */\n      0x00\n        /* \"#utility.yul\":2506:2537   */\n      mstore\n        /* \"#utility.yul\":2556:2560   */\n      0x11\n        /* \"#utility.yul\":2553:2554   */\n      0x04\n        /* \"#utility.yul\":2546:2561   */\n      mstore\n        /* \"#utility.yul\":2580:2584   */\n      0x24\n        /* \"#utility.yul\":2577:2578   */\n      0x00\n        /* \"#utility.yul\":2570:2585   */\n      revert\n        /* \"#utility.yul\":2596:2971   */\n    tag_133:\n        /* \"#utility.yul\":2684:2685   */\n      0x01\n        /* \"#utility.yul\":2702:2707   */\n      dup2\n        /* \"#utility.yul\":2716:2965   */\n    tag_154:\n        /* \"#utility.yul\":2737:2738   */\n      0x01\n        /* \"#utility.yul\":2727:2735   */\n      dup5\n        /* \"#utility.yul\":2724:2739   */\n      gt\n        /* \"#utility.yul\":2716:2965   */\n      iszero\n      tag_156\n      jumpi\n        /* \"#utility.yul\":2787:2791   */\n      dup1\n        /* \"#utility.yul\":2782:2785   */\n      dup6\n        /* \"#utility.yul\":2778:2792   */\n      div\n        /* \"#utility.yul\":2772:2776   */\n      dup2\n        /* \"#utility.yul\":2769:2793   */\n      gt\n        /* \"#utility.yul\":2766:2816   */\n      iszero\n      tag_158\n      jumpi\n        /* \"#utility.yul\":2796:2814   */\n      tag_158\n      tag_132\n      jump\t// in\n    tag_158:\n        /* \"#utility.yul\":2846:2847   */\n      0x01\n        /* \"#utility.yul\":2836:2844   */\n      dup5\n        /* \"#utility.yul\":2832:2848   */\n      and\n        /* \"#utility.yul\":2829:2878   */\n      iszero\n      tag_159\n      jumpi\n        /* \"#utility.yul\":2860:2876   */\n      swap1\n      dup2\n      mul\n      swap1\n        /* \"#utility.yul\":2829:2878   */\n    tag_159:\n        /* \"#utility.yul\":2943:2944   */\n      0x01\n        /* \"#utility.yul\":2939:2955   */\n      swap4\n      swap1\n      swap4\n      shr\n      swap3\n        /* \"#utility.yul\":2899:2914   */\n      dup1\n      mul\n        /* \"#utility.yul\":2716:2965   */\n      jump(tag_154)\n    tag_156:\n        /* \"#utility.yul\":2596:2971   */\n      swap4\n      pop\n      swap4\n      swap2\n      pop\n      pop\n      jump\t// out\n        /* \"#utility.yul\":2976:3878   */\n    tag_134:\n        /* \"#utility.yul\":3025:3030   */\n      0x00\n        /* \"#utility.yul\":3055:3063   */\n      dup3\n        /* \"#utility.yul\":3045:3125   */\n      tag_161\n      jumpi\n      pop\n        /* \"#utility.yul\":3096:3097   */\n      0x01\n        /* \"#utility.yul\":3110:3115   */\n      jump(tag_118)\n        /* \"#utility.yul\":3045:3125   */\n    tag_161:\n        /* \"#utility.yul\":3144:3148   */\n      dup2\n        /* \"#utility.yul\":3134:3210   */\n      tag_162\n      jumpi\n      pop\n        /* \"#utility.yul\":3181:3182   */\n      0x00\n        /* \"#utility.yul\":3195:3200   */\n      jump(tag_118)\n        /* \"#utility.yul\":3134:3210   */\n    tag_162:\n        /* \"#utility.yul\":3226:3230   */\n      dup2\n        /* \"#utility.yul\":3244:3245   */\n      0x01\n        /* \"#utility.yul\":3239:3298   */\n      dup2\n      eq\n      tag_164\n      jumpi\n        /* \"#utility.yul\":3312:3313   */\n      0x02\n        /* \"#utility.yul\":3307:3481   */\n      dup2\n      eq\n      tag_165\n      jumpi\n        /* \"#utility.yul\":3219:3481   */\n      jump(tag_163)\n        /* \"#utility.yul\":3239:3298   */\n    tag_164:\n        /* \"#utility.yul\":3269:3270   */\n      0x01\n        /* \"#utility.yul\":3260:3270   */\n      swap2\n      pop\n        /* \"#utility.yul\":3283:3288   */\n      pop\n      jump(tag_118)\n        /* \"#utility.yul\":3307:3481   */\n    tag_165:\n        /* \"#utility.yul\":3344:3347   */\n      0xff\n        /* \"#utility.yul\":3334:3342   */\n      dup5\n        /* \"#utility.yul\":3331:3348   */\n      gt\n        /* \"#utility.yul\":3328:3371   */\n      iszero\n      tag_167\n      jumpi\n        /* \"#utility.yul\":3351:3369   */\n      tag_167\n      tag_132\n      jump\t// in\n    tag_167:\n      pop\n      pop\n        /* \"#utility.yul\":3407:3408   */\n      0x01\n        /* \"#utility.yul\":3393:3409   */\n      dup3\n      shl\n        /* \"#utility.yul\":3466:3471   */\n      jump(tag_118)\n        /* \"#utility.yul\":3219:3481   */\n    tag_163:\n      pop\n        /* \"#utility.yul\":3565:3567   */\n      0x20\n        /* \"#utility.yul\":3555:3563   */\n      dup4\n        /* \"#utility.yul\":3552:3568   */\n      lt\n        /* \"#utility.yul\":3546:3549   */\n      0x0133\n        /* \"#utility.yul\":3540:3544   */\n      dup4\n        /* \"#utility.yul\":3537:3550   */\n      lt\n        /* \"#utility.yul\":3533:3569   */\n      and\n        /* \"#utility.yul\":3527:3529   */\n      0x4e\n        /* \"#utility.yul\":3517:3525   */\n      dup5\n        /* \"#utility.yul\":3514:3530   */\n      lt\n        /* \"#utility.yul\":3509:3511   */\n      0x0b\n        /* \"#utility.yul\":3503:3507   */\n      dup5\n        /* \"#utility.yul\":3500:3512   */\n      lt\n        /* \"#utility.yul\":3496:3531   */\n      and\n        /* \"#utility.yul\":3493:3570   */\n      or\n        /* \"#utility.yul\":3490:3693   */\n      iszero\n      tag_168\n      jumpi\n      pop\n        /* \"#utility.yul\":3602:3621   */\n      dup2\n      dup2\n      exp\n        /* \"#utility.yul\":3678:3683   */\n      jump(tag_118)\n        /* \"#utility.yul\":3490:3693   */\n    tag_168:\n        /* \"#utility.yul\":3725:3767   */\n      tag_169\n      not(0x00)\n        /* \"#utility.yul\":3750:3758   */\n      dup5\n        /* \"#utility.yul\":3744:3748   */\n      dup5\n        /* \"#utility.yul\":3725:3767   */\n      tag_133\n      jump\t// in\n    tag_169:\n        /* \"#utility.yul\":3803:3809   */\n      dup1\n        /* \"#utility.yul\":3799:3800   */\n      0x00\n        /* \"#utility.yul\":3795:3801   */\n      not\n        /* \"#utility.yul\":3791:3810   */\n      div\n        /* \"#utility.yul\":3782:3789   */\n      dup3\n        /* \"#utility.yul\":3779:3811   */\n      gt\n        /* \"#utility.yul\":3776:3834   */\n      iszero\n      tag_171\n      jumpi\n        /* \"#utility.yul\":3814:3832   */\n      tag_171\n      tag_132\n      jump\t// in\n    tag_171:\n        /* \"#utility.yul\":3852:3872   */\n      mul\n      swap4\n        /* \"#utility.yul\":2976:3878   */\n      swap3\n      pop\n      pop\n      pop\n      jump\t// out\n        /* \"#utility.yul\":3883:4014   */\n    tag_79:\n        /* \"#utility.yul\":3943:3948   */\n      0x00\n        /* \"#utility.yul\":3972:4008   */\n      tag_145\n        /* \"#utility.yul\":3999:4007   */\n      dup4\n        /* \"#utility.yul\":3993:3997   */\n      dup4\n        /* \"#utility.yul\":3972:4008   */\n      tag_134\n      jump\t// in\n        /* \"#utility.yul\":4019:4187   */\n    tag_81:\n        /* \"#utility.yul\":4092:4101   */\n      dup1\n      dup3\n      mul\n        /* \"#utility.yul\":4123:4132   */\n      dup2\n      iszero\n        /* \"#utility.yul\":4140:4155   */\n      dup3\n      dup3\n      div\n        /* \"#utility.yul\":4134:4156   */\n      dup5\n      eq\n        /* \"#utility.yul\":4120:4157   */\n      or\n        /* \"#utility.yul\":4110:4181   */\n      tag_118\n      jumpi\n        /* \"#utility.yul\":4161:4179   */\n      tag_118\n      tag_132\n      jump\t// in\n        /* \"#utility.yul\":4192:4409   */\n    tag_83:\n        /* \"#utility.yul\":4232:4233   */\n      0x00\n        /* \"#utility.yul\":4258:4259   */\n      dup3\n        /* \"#utility.yul\":4248:4380   */\n      tag_178\n      jumpi\n        /* \"#utility.yul\":4302:4312   */\n      0x4e487b71\n        /* \"#utility.yul\":4297:4300   */\n      0xe0\n        /* \"#utility.yul\":4293:4313   */\n      shl\n        /* \"#utility.yul\":4290:4291   */\n      0x00\n        /* \"#utility.yul\":4283:4314   */\n      mstore\n        /* \"#utility.yul\":4337:4341   */\n      0x12\n        /* \"#utility.yul\":4334:4335   */\n      0x04\n        /* \"#utility.yul\":4327:4342   */\n      mstore\n        /* \"#utility.yul\":4365:4369   */\n      0x24\n        /* \"#utility.yul\":4362:4363   */\n      0x00\n        /* \"#utility.yul\":4355:4370   */\n      revert\n        /* \"#utility.yul\":4248:4380   */\n    tag_178:\n      pop\n        /* \"#utility.yul\":4394:4403   */\n      div\n      swap1\n        /* \"#utility.yul\":4192:4409   */\n      jump\t// out\n        /* \"#utility.yul\":4771:4899   */\n    tag_88:\n        /* \"#utility.yul\":4838:4847   */\n      dup2\n      dup2\n      sub\n        /* \"#utility.yul\":4859:4870   */\n      dup2\n      dup2\n      gt\n        /* \"#utility.yul\":4856:4893   */\n      iszero\n      tag_118\n      jumpi\n        /* \"#utility.yul\":4873:4891   */\n      tag_118\n      tag_132\n      jump\t// in\n        /* \"#utility.yul\":4904:5029   */\n    tag_90:\n        /* \"#utility.yul\":4969:4978   */\n      dup1\n      dup3\n      add\n        /* \"#utility.yul\":4990:5000   */\n      dup1\n      dup3\n      gt\n        /* \"#utility.yul\":4987:5023   */\n      iszero\n      tag_118\n      jumpi\n        /* \"#utility.yul\":5003:5021   */\n      tag_118\n      tag_132\n      jump\t// in\n        /* \"#utility.yul\":5034:5414   */\n    tag_93:\n        /* \"#utility.yul\":5113:5114   */\n      0x01\n        /* \"#utility.yul\":5109:5121   */\n      dup2\n      dup2\n      shr\n      swap1\n        /* \"#utility.yul\":5156:5168   */\n      dup3\n      and\n      dup1\n        /* \"#utility.yul\":5177:5238   */\n      tag_187\n      jumpi\n        /* \"#utility.yul\":5231:5235   */\n      0x7f\n        /* \"#utility.yul\":5223:5229   */\n      dup3\n        /* \"#utility.yul\":5219:5236   */\n      and\n        /* \"#utility.yul\":5209:5236   */\n      swap2\n      pop\n        /* \"#utility.yul\":5177:5238   */\n    tag_187:\n        /* \"#utility.yul\":5284:5286   */\n      0x20\n        /* \"#utility.yul\":5276:5282   */\n      dup3\n        /* \"#utility.yul\":5273:5287   */\n      lt\n        /* \"#utility.yul\":5253:5271   */\n      dup2\n        /* \"#utility.yul\":5250:5288   */\n      sub\n        /* \"#utility.yul\":5247:5408   */\n      tag_188\n      jumpi\n        /* \"#utility.yul\":5330:5340   */\n      0x4e487b71\n        /* \"#utility.yul\":5325:5328   */\n      0xe0\n        /* \"#utility.yul\":5321:5341   */\n      shl\n        /* \"#utility.yul\":5318:5319   */\n      0x00\n        /* \"#utility.yul\":5311:5342   */\n      mstore\n        /* \"#utility.yul\":5365:5369   */\n      0x22\n        /* \"#utility.yul\":5362:5363   */\n      0x04\n        /* \"#utility.yul\":5355:5370   */\n      mstore\n        /* \"#utility.yul\":5393:5397   */\n      0x24\n        /* \"#utility.yul\":5390:5391   */\n      0x00\n        /* \"#utility.yul\":5383:5398   */\n      revert\n        /* \"#utility.yul\":5247:5408   */\n    tag_188:\n      pop\n        /* \"#utility.yul\":5034:5414   */\n      swap2\n      swap1\n      pop\n      jump\t// out\n\n    auxdata: 0xa264697066735822122020d13434a56024e7572e53b9f7a5a1b54482886da7bfaca7e6842c738175704664736f6c634300081e0033\n}\n",
				"bytecode": {
					"linkReferences": {},
					"object": "60c0604052600c60809081526b20b2b73d3134902a37b5b2b760a11b60a0525f9061002a9082610253565b5060408051808201909152600381526210569560ea1b60208201526001906100529082610253565b506002805460ff19166012179055670de0b6b3a7640000600555348015610077575f5ffd5b50604051610e1e380380610e1e8339810160408190526100969161030d565b600480546001600160a01b031916339081179091556002546100d091906100c19060ff16600a61041d565b6100cb908461042f565b6100d6565b50610459565b6009196001600160a01b038316016101345760405162461bcd60e51b815260206004820152601860248201527f5a65726f2061646472657373206e6f7420616c6c6f7765640000000000000000604482015260640160405180910390fd5b8060035f8282546101459190610446565b90915550506001600160a01b0382165f9081526006602052604081208054839290610171908490610446565b90915550506040518181526001600160a01b03831690600a907fddf252ad1be2c89b69c2b068fc378daa952ba7f163c4a11628f55a4df523b3ef9060200160405180910390a35050565b634e487b7160e01b5f52604160045260245ffd5b600181811c908216806101e357607f821691505b60208210810361020157634e487b7160e01b5f52602260045260245ffd5b50919050565b601f82111561024e57805f5260205f20601f840160051c8101602085101561022c5750805b601f840160051c820191505b8181101561024b575f8155600101610238565b50505b505050565b81516001600160401b0381111561026c5761026c6101bb565b6102808161027a84546101cf565b84610207565b6020601f8211600181146102b2575f831561029b5750848201515b5f19600385901b1c1916600184901b17845561024b565b5f84815260208120601f198516915b828110156102e157878501518255602094850194600190920191016102c1565b50848210156102fe57868401515f19600387901b60f8161c191681555b50505050600190811b01905550565b5f6020828403121561031d575f5ffd5b5051919050565b634e487b7160e01b5f52601160045260245ffd5b6001815b60018411156103735780850481111561035757610357610324565b600184161561036557908102905b60019390931c92800261033c565b935093915050565b5f8261038957506001610417565b8161039557505f610417565b81600181146103ab57600281146103b5576103d1565b6001915050610417565b60ff8411156103c6576103c6610324565b50506001821b610417565b5060208310610133831016604e8410600b84101617156103f4575081810a610417565b6104005f198484610338565b805f190482111561041357610413610324565b0290505b92915050565b5f610428838361037b565b9392505050565b808202811582820484141761041757610417610324565b8082018082111561041757610417610324565b6109b8806104665f395ff3fe6080604052600436106100a8575f3560e01c80637ff9b596116100625780637ff9b596146101a05780638da5cb5b146101b557806395d89b41146101ec578063a9059cbb14610200578063d0febe4c1461022f578063e086e5ec14610237575f5ffd5b806306fdde03146100bb57806318160ddd146100e5578063313ce567146101035780634064a6ee1461012e5780636a61e5fc1461014d57806370a082311461016c575f5ffd5b366100b7576100b561024b565b005b5f5ffd5b3480156100c6575f5ffd5b506100cf6103b9565b6040516100dc919061073d565b60405180910390f35b3480156100f0575f5ffd5b506003545b6040519081526020016100dc565b34801561010e575f5ffd5b5060025461011c9060ff1681565b60405160ff90911681526020016100dc565b348015610139575f5ffd5b506100b5610148366004610772565b610444565b348015610158575f5ffd5b506100b5610167366004610772565b610569565b348015610177575f5ffd5b506100f56101863660046107a4565b6001600160a01b03165f9081526006602052604090205490565b3480156101ab575f5ffd5b506100f560055481565b3480156101c0575f5ffd5b506004546101d4906001600160a01b031681565b6040516001600160a01b0390911681526020016100dc565b3480156101f7575f5ffd5b506100cf6105bd565b34801561020b575f5ffd5b5061021f61021a3660046107c4565b6105ca565b60405190151581526020016100dc565b6100b561024b565b348015610242575f5ffd5b506100b56106b5565b5f34116102985760405162461bcd60e51b815260206004820152601660248201527553656e642045544820746f2062757920746f6b656e7360501b60448201526064015b60405180910390fd5b6005546002545f91906102af9060ff16600a6108e3565b6102b990346108ee565b6102c39190610905565b6004546001600160a01b03165f9081526006602052604090205490915081111561032f5760405162461bcd60e51b815260206004820152601c60248201527f4e6f7420656e6f75676820746f6b656e7320696e207265736572766500000000604482015260640161028f565b6004546001600160a01b03165f9081526006602052604081208054839290610358908490610924565b9091555050335f908152600660205260408120805483929061037b908490610937565b909155505060405181815233907f55c18555197c6574627cf460c66073d10aa05d412468800b7b71feeaf82ea92d906020015b60405180910390a250565b5f80546103c59061094a565b80601f01602080910402602001604051908101604052809291908181526020018280546103f19061094a565b801561043c5780601f106104135761010080835404028352916020019161043c565b820191905f5260205f20905b81548152906001019060200180831161041f57829003601f168201915b505050505081565b335f908152600660205260409020548111156104a25760405162461bcd60e51b815260206004820152601a60248201527f496e73756666696369656e7420746f6b656e2062616c616e6365000000000000604482015260640161028f565b335f90815260066020526040812080548392906104c0908490610924565b90915550506004546001600160a01b03165f90815260066020526040812080548392906104ee908490610937565b90915550506004546040518281526001600160a01b039091169033907fddf252ad1be2c89b69c2b068fc378daa952ba7f163c4a11628f55a4df523b3ef9060200160405180910390a360405181815233907f6ef95f06320e7a25a04a175ca677b7052bdd97131872c2192525a629f51be770906020016103ae565b6004546001600160a01b031633146105b85760405162461bcd60e51b815260206004820152601260248201527113db9b1e481bdddb995c88185b1b1bddd95960721b604482015260640161028f565b600555565b600180546103c59061094a565b335f9081526006602052604081205482111561061c5760405162461bcd60e51b81526020600482015260116024820152704e6f7420656e6f75676820746f6b656e7360781b604482015260640161028f565b335f908152600660205260408120805484929061063a908490610924565b90915550506001600160a01b0383165f9081526006602052604081208054849290610666908490610937565b90915550506040518281526001600160a01b0384169033907fddf252ad1be2c89b69c2b068fc378daa952ba7f163c4a11628f55a4df523b3ef9060200160405180910390a35060015b92915050565b6004546001600160a01b031633146107045760405162461bcd60e51b815260206004820152601260248201527113db9b1e481bdddb995c88185b1b1bddd95960721b604482015260640161028f565b6004546040516001600160a01b03909116904780156108fc02915f818181858888f1935050505015801561073a573d5f5f3e3d5ffd5b50565b602081525f82518060208401528060208501604085015e5f604082850101526040601f19601f83011684010191505092915050565b5f60208284031215610782575f5ffd5b5035919050565b80356001600160a01b038116811461079f575f5ffd5b919050565b5f602082840312156107b4575f5ffd5b6107bd82610789565b9392505050565b5f5f604083850312156107d5575f5ffd5b6107de83610789565b946020939093013593505050565b634e487b7160e01b5f52601160045260245ffd5b6001815b600184111561083b5780850481111561081f5761081f6107ec565b600184161561082d57908102905b60019390931c928002610804565b935093915050565b5f82610851575060016106af565b8161085d57505f6106af565b8160018114610873576002811461087d57610899565b60019150506106af565b60ff84111561088e5761088e6107ec565b50506001821b6106af565b5060208310610133831016604e8410600b84101617156108bc575081810a6106af565b6108c85f198484610800565b805f19048211156108db576108db6107ec565b029392505050565b5f6107bd8383610843565b80820281158282048414176106af576106af6107ec565b5f8261091f57634e487b7160e01b5f52601260045260245ffd5b500490565b818103818111156106af576106af6107ec565b808201808211156106af576106af6107ec565b600181811c9082168061095e57607f821691505b60208210810361097c57634e487b7160e01b5f52602260045260245ffd5b5091905056fea264697066735822122020d13434a56024e7572e53b9f7a5a1b54482886da7bfaca7e6842c738175704664736f6c634300081e0033",
					"opcodes": "PUSH1 0xC0 PUSH1 0x40 MSTORE PUSH1 0xC PUSH1 0x80 SWAP1 DUP2 MSTORE PUSH12 0x20B2B73D3134902A37B5B2B7 PUSH1 0xA1 SHL PUSH1 0xA0 MSTORE PUSH0 SWAP1 PUSH2 0x2A SWAP1 DUP3 PUSH2 0x253 JUMP JUMPDEST POP PUSH1 0x40 DUP1 MLOAD DUP1 DUP3 ADD SWAP1 SWAP2 MSTORE PUSH1 0x3 DUP2 MSTORE PUSH3 0x105695 PUSH1 0xEA SHL PUSH1 0x20 DUP3 ADD MSTORE PUSH1 0x1 SWAP1 PUSH2 0x52 SWAP1 DUP3 PUSH2 0x253 JUMP JUMPDEST POP PUSH1 0x2 DUP1 SLOAD PUSH1 0xFF NOT AND PUSH1 0x12 OR SWAP1 SSTORE PUSH8 0xDE0B6B3A7640000 PUSH1 0x5 SSTORE CALLVALUE DUP1 ISZERO PUSH2 0x77 JUMPI PUSH0 PUSH0 REVERT JUMPDEST POP PUSH1 0x40 MLOAD PUSH2 0xE1E CODESIZE SUB DUP1 PUSH2 0xE1E DUP4 CODECOPY DUP2 ADD PUSH1 0x40 DUP2 SWAP1 MSTORE PUSH2 0x96 SWAP2 PUSH2 0x30D JUMP JUMPDEST PUSH1 0x4 DUP1 SLOAD PUSH1 0x1 PUSH1 0x1 PUSH1 0xA0 SHL SUB NOT AND CALLER SWAP1 DUP2 OR SWAP1 SWAP2 SSTORE PUSH1 0x2 SLOAD PUSH2 0xD0 SWAP2 SWAP1 PUSH2 0xC1 SWAP1 PUSH1 0xFF AND PUSH1 0xA PUSH2 0x41D JUMP JUMPDEST PUSH2 0xCB SWAP1 DUP5 PUSH2 0x42F JUMP JUMPDEST PUSH2 0xD6 JUMP JUMPDEST POP PUSH2 0x459 JUMP JUMPDEST PUSH1 0x9 NOT PUSH1 0x1 PUSH1 0x1 PUSH1 0xA0 SHL SUB DUP4 AND ADD PUSH2 0x134 JUMPI PUSH1 0x40 MLOAD PUSH3 0x461BCD PUSH1 0xE5 SHL DUP2 MSTORE PUSH1 0x20 PUSH1 0x4 DUP3 ADD MSTORE PUSH1 0x18 PUSH1 0x24 DUP3 ADD MSTORE PUSH32 0x5A65726F2061646472657373206E6F7420616C6C6F7765640000000000000000 PUSH1 0x44 DUP3 ADD MSTORE PUSH1 0x64 ADD PUSH1 0x40 MLOAD DUP1 SWAP2 SUB SWAP1 REVERT JUMPDEST DUP1 PUSH1 0x3 PUSH0 DUP3 DUP3 SLOAD PUSH2 0x145 SWAP2 SWAP1 PUSH2 0x446 JUMP JUMPDEST SWAP1 SWAP2 SSTORE POP POP PUSH1 0x1 PUSH1 0x1 PUSH1 0xA0 SHL SUB DUP3 AND PUSH0 SWAP1 DUP2 MSTORE PUSH1 0x6 PUSH1 0x20 MSTORE PUSH1 0x40 DUP2 KECCAK256 DUP1 SLOAD DUP4 SWAP3 SWAP1 PUSH2 0x171 SWAP1 DUP5 SWAP1 PUSH2 0x446 JUMP JUMPDEST SWAP1 SWAP2 SSTORE POP POP PUSH1 0x40 MLOAD DUP2 DUP2 MSTORE PUSH1 0x1 PUSH1 0x1 PUSH1 0xA0 SHL SUB DUP4 AND SWAP1 PUSH1 0xA SWAP1 PUSH32 0xDDF252AD1BE2C89B69C2B068FC378DAA952BA7F163C4A11628F55A4DF523B3EF SWAP1 PUSH1 0x20 ADD PUSH1 0x40 MLOAD DUP1 SWAP2 SUB SWAP1 LOG3 POP POP JUMP JUMPDEST PUSH4 0x4E487B71 PUSH1 0xE0 SHL PUSH0 MSTORE PUSH1 0x41 PUSH1 0x4 MSTORE PUSH1 0x24 PUSH0 REVERT JUMPDEST PUSH1 0x1 DUP2 DUP2 SHR SWAP1 DUP3 AND DUP1 PUSH2 0x1E3 JUMPI PUSH1 0x7F DUP3 AND SWAP2 POP JUMPDEST PUSH1 0x20 DUP3 LT DUP2 SUB PUSH2 0x201 JUMPI PUSH4 0x4E487B71 PUSH1 0xE0 SHL PUSH0 MSTORE PUSH1 0x22 PUSH1 0x4 MSTORE PUSH1 0x24 PUSH0 REVERT JUMPDEST POP SWAP2 SWAP1 POP JUMP JUMPDEST PUSH1 0x1F DUP3 GT ISZERO PUSH2 0x24E JUMPI DUP1 PUSH0 MSTORE PUSH1 0x20 PUSH0 KECCAK256 PUSH1 0x1F DUP5 ADD PUSH1 0x5 SHR DUP2 ADD PUSH1 0x20 DUP6 LT ISZERO PUSH2 0x22C JUMPI POP DUP1 JUMPDEST PUSH1 0x1F DUP5 ADD PUSH1 0x5 SHR DUP3 ADD SWAP2 POP JUMPDEST DUP2 DUP2 LT ISZERO PUSH2 0x24B JUMPI PUSH0 DUP2 SSTORE PUSH1 0x1 ADD PUSH2 0x238 JUMP JUMPDEST POP POP JUMPDEST POP POP POP JUMP JUMPDEST DUP2 MLOAD PUSH1 0x1 PUSH1 0x1 PUSH1 0x40 SHL SUB DUP2 GT ISZERO PUSH2 0x26C JUMPI PUSH2 0x26C PUSH2 0x1BB JUMP JUMPDEST PUSH2 0x280 DUP2 PUSH2 0x27A DUP5 SLOAD PUSH2 0x1CF JUMP JUMPDEST DUP5 PUSH2 0x207 JUMP JUMPDEST PUSH1 0x20 PUSH1 0x1F DUP3 GT PUSH1 0x1 DUP2 EQ PUSH2 0x2B2 JUMPI PUSH0 DUP4 ISZERO PUSH2 0x29B JUMPI POP DUP5 DUP3 ADD MLOAD JUMPDEST PUSH0 NOT PUSH1 0x3 DUP6 SWAP1 SHL SHR NOT AND PUSH1 0x1 DUP5 SWAP1 SHL OR DUP5 SSTORE PUSH2 0x24B JUMP JUMPDEST PUSH0 DUP5 DUP2 MSTORE PUSH1 0x20 DUP2 KECCAK256 PUSH1 0x1F NOT DUP6 AND SWAP2 JUMPDEST DUP3 DUP2 LT ISZERO PUSH2 0x2E1 JUMPI DUP8 DUP6 ADD MLOAD DUP3 SSTORE PUSH1 0x20 SWAP5 DUP6 ADD SWAP5 PUSH1 0x1 SWAP1 SWAP3 ADD SWAP2 ADD PUSH2 0x2C1 JUMP JUMPDEST POP DUP5 DUP3 LT ISZERO PUSH2 0x2FE JUMPI DUP7 DUP5 ADD MLOAD PUSH0 NOT PUSH1 0x3 DUP8 SWAP1 SHL PUSH1 0xF8 AND SHR NOT AND DUP2 SSTORE JUMPDEST POP POP POP POP PUSH1 0x1 SWAP1 DUP2 SHL ADD SWAP1 SSTORE POP JUMP JUMPDEST PUSH0 PUSH1 0x20 DUP3 DUP5 SUB SLT ISZERO PUSH2 0x31D JUMPI PUSH0 PUSH0 REVERT JUMPDEST POP MLOAD SWAP2 SWAP1 POP JUMP JUMPDEST PUSH4 0x4E487B71 PUSH1 0xE0 SHL PUSH0 MSTORE PUSH1 0x11 PUSH1 0x4 MSTORE PUSH1 0x24 PUSH0 REVERT JUMPDEST PUSH1 0x1 DUP2 JUMPDEST PUSH1 0x1 DUP5 GT ISZERO PUSH2 0x373 JUMPI DUP1 DUP6 DIV DUP2 GT ISZERO PUSH2 0x357 JUMPI PUSH2 0x357 PUSH2 0x324 JUMP JUMPDEST PUSH1 0x1 DUP5 AND ISZERO PUSH2 0x365 JUMPI SWAP1 DUP2 MUL SWAP1 JUMPDEST PUSH1 0x1 SWAP4 SWAP1 SWAP4 SHR SWAP3 DUP1 MUL PUSH2 0x33C JUMP JUMPDEST SWAP4 POP SWAP4 SWAP2 POP POP JUMP JUMPDEST PUSH0 DUP3 PUSH2 0x389 JUMPI POP PUSH1 0x1 PUSH2 0x417 JUMP JUMPDEST DUP2 PUSH2 0x395 JUMPI POP PUSH0 PUSH2 0x417 JUMP JUMPDEST DUP2 PUSH1 0x1 DUP2 EQ PUSH2 0x3AB JUMPI PUSH1 0x2 DUP2 EQ PUSH2 0x3B5 JUMPI PUSH2 0x3D1 JUMP JUMPDEST PUSH1 0x1 SWAP2 POP POP PUSH2 0x417 JUMP JUMPDEST PUSH1 0xFF DUP5 GT ISZERO PUSH2 0x3C6 JUMPI PUSH2 0x3C6 PUSH2 0x324 JUMP JUMPDEST POP POP PUSH1 0x1 DUP3 SHL PUSH2 0x417 JUMP JUMPDEST POP PUSH1 0x20 DUP4 LT PUSH2 0x133 DUP4 LT AND PUSH1 0x4E DUP5 LT PUSH1 0xB DUP5 LT AND OR ISZERO PUSH2 0x3F4 JUMPI POP DUP2 DUP2 EXP PUSH2 0x417 JUMP JUMPDEST PUSH2 0x400 PUSH0 NOT DUP5 DUP5 PUSH2 0x338 JUMP JUMPDEST DUP1 PUSH0 NOT DIV DUP3 GT ISZERO PUSH2 0x413 JUMPI PUSH2 0x413 PUSH2 0x324 JUMP JUMPDEST MUL SWAP1 POP JUMPDEST SWAP3 SWAP2 POP POP JUMP JUMPDEST PUSH0 PUSH2 0x428 DUP4 DUP4 PUSH2 0x37B JUMP JUMPDEST SWAP4 SWAP3 POP POP POP JUMP JUMPDEST DUP1 DUP3 MUL DUP2 ISZERO DUP3 DUP3 DIV DUP5 EQ OR PUSH2 0x417 JUMPI PUSH2 0x417 PUSH2 0x324 JUMP JUMPDEST DUP1 DUP3 ADD DUP1 DUP3 GT ISZERO PUSH2 0x417 JUMPI PUSH2 0x417 PUSH2 0x324 JUMP JUMPDEST PUSH2 0x9B8 DUP1 PUSH2 0x466 PUSH0 CODECOPY PUSH0 RETURN INVALID PUSH1 0x80 PUSH1 0x40 MSTORE PUSH1 0x4 CALLDATASIZE LT PUSH2 0xA8 JUMPI PUSH0 CALLDATALOAD PUSH1 0xE0 SHR DUP1 PUSH4 0x7FF9B596 GT PUSH2 0x62 JUMPI DUP1 PUSH4 0x7FF9B596 EQ PUSH2 0x1A0 JUMPI DUP1 PUSH4 0x8DA5CB5B EQ PUSH2 0x1B5 JUMPI DUP1 PUSH4 0x95D89B41 EQ PUSH2 0x1EC JUMPI DUP1 PUSH4 0xA9059CBB EQ PUSH2 0x200 JUMPI DUP1 PUSH4 0xD0FEBE4C EQ PUSH2 0x22F JUMPI DUP1 PUSH4 0xE086E5EC EQ PUSH2 0x237 JUMPI PUSH0 PUSH0 REVERT JUMPDEST DUP1 PUSH4 0x6FDDE03 EQ PUSH2 0xBB JUMPI DUP1 PUSH4 0x18160DDD EQ PUSH2 0xE5 JUMPI DUP1 PUSH4 0x313CE567 EQ PUSH2 0x103 JUMPI DUP1 PUSH4 0x4064A6EE EQ PUSH2 0x12E JUMPI DUP1 PUSH4 0x6A61E5FC EQ PUSH2 0x14D JUMPI DUP1 PUSH4 0x70A08231 EQ PUSH2 0x16C JUMPI PUSH0 PUSH0 REVERT JUMPDEST CALLDATASIZE PUSH2 0xB7 JUMPI PUSH2 0xB5 PUSH2 0x24B JUMP JUMPDEST STOP JUMPDEST PUSH0 PUSH0 REVERT JUMPDEST CALLVALUE DUP1 ISZERO PUSH2 0xC6 JUMPI PUSH0 PUSH0 REVERT JUMPDEST POP PUSH2 0xCF PUSH2 0x3B9 JUMP JUMPDEST PUSH1 0x40 MLOAD PUSH2 0xDC SWAP2 SWAP1 PUSH2 0x73D JUMP JUMPDEST PUSH1 0x40 MLOAD DUP1 SWAP2 SUB SWAP1 RETURN JUMPDEST CALLVALUE DUP1 ISZERO PUSH2 0xF0 JUMPI PUSH0 PUSH0 REVERT JUMPDEST POP PUSH1 0x3 SLOAD JUMPDEST PUSH1 0x40 MLOAD SWAP1 DUP2 MSTORE PUSH1 0x20 ADD PUSH2 0xDC JUMP JUMPDEST CALLVALUE DUP1 ISZERO PUSH2 0x10E JUMPI PUSH0 PUSH0 REVERT JUMPDEST POP PUSH1 0x2 SLOAD PUSH2 0x11C SWAP1 PUSH1 0xFF AND DUP2 JUMP JUMPDEST PUSH1 0x40 MLOAD PUSH1 0xFF SWAP1 SWAP2 AND DUP2 MSTORE PUSH1 0x20 ADD PUSH2 0xDC JUMP JUMPDEST CALLVALUE DUP1 ISZERO PUSH2 0x139 JUMPI PUSH0 PUSH0 REVERT JUMPDEST POP PUSH2 0xB5 PUSH2 0x148 CALLDATASIZE PUSH1 0x4 PUSH2 0x772 JUMP JUMPDEST PUSH2 0x444 JUMP JUMPDEST CALLVALUE DUP1 ISZERO PUSH2 0x158 JUMPI PUSH0 PUSH0 REVERT JUMPDEST POP PUSH2 0xB5 PUSH2 0x167 CALLDATASIZE PUSH1 0x4 PUSH2 0x772 JUMP JUMPDEST PUSH2 0x569 JUMP JUMPDEST CALLVALUE DUP1 ISZERO PUSH2 0x177 JUMPI PUSH0 PUSH0 REVERT JUMPDEST POP PUSH2 0xF5 PUSH2 0x186 CALLDATASIZE PUSH1 0x4 PUSH2 0x7A4 JUMP JUMPDEST PUSH1 0x1 PUSH1 0x1 PUSH1 0xA0 SHL SUB AND PUSH0 SWAP1 DUP2 MSTORE PUSH1 0x6 PUSH1 0x20 MSTORE PUSH1 0x40 SWAP1 KECCAK256 SLOAD SWAP1 JUMP JUMPDEST CALLVALUE DUP1 ISZERO PUSH2 0x1AB JUMPI PUSH0 PUSH0 REVERT JUMPDEST POP PUSH2 0xF5 PUSH1 0x5 SLOAD DUP2 JUMP JUMPDEST CALLVALUE DUP1 ISZERO PUSH2 0x1C0 JUMPI PUSH0 PUSH0 REVERT JUMPDEST POP PUSH1 0x4 SLOAD PUSH2 0x1D4 SWAP1 PUSH1 0x1 PUSH1 0x1 PUSH1 0xA0 SHL SUB AND DUP2 JUMP JUMPDEST PUSH1 0x40 MLOAD PUSH1 0x1 PUSH1 0x1 PUSH1 0xA0 SHL SUB SWAP1 SWAP2 AND DUP2 MSTORE PUSH1 0x20 ADD PUSH2 0xDC JUMP JUMPDEST CALLVALUE DUP1 ISZERO PUSH2 0x1F7 JUMPI PUSH0 PUSH0 REVERT JUMPDEST POP PUSH2 0xCF PUSH2 0x5BD JUMP JUMPDEST CALLVALUE DUP1 ISZERO PUSH2 0x20B JUMPI PUSH0 PUSH0 REVERT JUMPDEST POP PUSH2 0x21F PUSH2 0x21A CALLDATASIZE PUSH1 0x4 PUSH2 0x7C4 JUMP JUMPDEST PUSH2 0x5CA JUMP JUMPDEST PUSH1 0x40 MLOAD SWAP1 ISZERO ISZERO DUP2 MSTORE PUSH1 0x20 ADD PUSH2 0xDC JUMP JUMPDEST PUSH2 0xB5 PUSH2 0x24B JUMP JUMPDEST CALLVALUE DUP1 ISZERO PUSH2 0x242 JUMPI PUSH0 PUSH0 REVERT JUMPDEST POP PUSH2 0xB5 PUSH2 0x6B5 JUMP JUMPDEST PUSH0 CALLVALUE GT PUSH2 0x298 JUMPI PUSH1 0x40 MLOAD PUSH3 0x461BCD PUSH1 0xE5 SHL DUP2 MSTORE PUSH1 0x20 PUSH1 0x4 DUP3 ADD MSTORE PUSH1 0x16 PUSH1 0x24 DUP3 ADD MSTORE PUSH22 0x53656E642045544820746F2062757920746F6B656E73 PUSH1 0x50 SHL PUSH1 0x44 DUP3 ADD MSTORE PUSH1 0x64 ADD JUMPDEST PUSH1 0x40 MLOAD DUP1 SWAP2 SUB SWAP1 REVERT JUMPDEST PUSH1 0x5 SLOAD PUSH1 0x2 SLOAD PUSH0 SWAP2 SWAP1 PUSH2 0x2AF SWAP1 PUSH1 0xFF AND PUSH1 0xA PUSH2 0x8E3 JUMP JUMPDEST PUSH2 0x2B9 SWAP1 CALLVALUE PUSH2 0x8EE JUMP JUMPDEST PUSH2 0x2C3 SWAP2 SWAP1 PUSH2 0x905 JUMP JUMPDEST PUSH1 0x4 SLOAD PUSH1 0x1 PUSH1 0x1 PUSH1 0xA0 SHL SUB AND PUSH0 SWAP1 DUP2 MSTORE PUSH1 0x6 PUSH1 0x20 MSTORE PUSH1 0x40 SWAP1 KECCAK256 SLOAD SWAP1 SWAP2 POP DUP2 GT ISZERO PUSH2 0x32F JUMPI PUSH1 0x40 MLOAD PUSH3 0x461BCD PUSH1 0xE5 SHL DUP2 MSTORE PUSH1 0x20 PUSH1 0x4 DUP3 ADD MSTORE PUSH1 0x1C PUSH1 0x24 DUP3 ADD MSTORE PUSH32 0x4E6F7420656E6F75676820746F6B656E7320696E207265736572766500000000 PUSH1 0x44 DUP3 ADD MSTORE PUSH1 0x64 ADD PUSH2 0x28F JUMP JUMPDEST PUSH1 0x4 SLOAD PUSH1 0x1 PUSH1 0x1 PUSH1 0xA0 SHL SUB AND PUSH0 SWAP1 DUP2 MSTORE PUSH1 0x6 PUSH1 0x20 MSTORE PUSH1 0x40 DUP2 KECCAK256 DUP1 SLOAD DUP4 SWAP3 SWAP1 PUSH2 0x358 SWAP1 DUP5 SWAP1 PUSH2 0x924 JUMP JUMPDEST SWAP1 SWAP2 SSTORE POP POP CALLER PUSH0 SWAP1 DUP2 MSTORE PUSH1 0x6 PUSH1 0x20 MSTORE PUSH1 0x40 DUP2 KECCAK256 DUP1 SLOAD DUP4 SWAP3 SWAP1 PUSH2 0x37B SWAP1 DUP5 SWAP1 PUSH2 0x937 JUMP JUMPDEST SWAP1 SWAP2 SSTORE POP POP PUSH1 0x40 MLOAD DUP2 DUP2 MSTORE CALLER SWAP1 PUSH32 0x55C18555197C6574627CF460C66073D10AA05D412468800B7B71FEEAF82EA92D SWAP1 PUSH1 0x20 ADD JUMPDEST PUSH1 0x40 MLOAD DUP1 SWAP2 SUB SWAP1 LOG2 POP JUMP JUMPDEST PUSH0 DUP1 SLOAD PUSH2 0x3C5 SWAP1 PUSH2 0x94A JUMP JUMPDEST DUP1 PUSH1 0x1F ADD PUSH1 0x20 DUP1 SWAP2 DIV MUL PUSH1 0x20 ADD PUSH1 0x40 MLOAD SWAP1 DUP2 ADD PUSH1 0x40 MSTORE DUP1 SWAP3 SWAP2 SWAP1 DUP2 DUP2 MSTORE PUSH1 0x20 ADD DUP3 DUP1 SLOAD PUSH2 0x3F1 SWAP1 PUSH2 0x94A JUMP JUMPDEST DUP1 ISZERO PUSH2 0x43C JUMPI DUP1 PUSH1 0x1F LT PUSH2 0x413 JUMPI PUSH2 0x100 DUP1 DUP4 SLOAD DIV MUL DUP4 MSTORE SWAP2 PUSH1 0x20 ADD SWAP2 PUSH2 0x43C JUMP JUMPDEST DUP3 ADD SWAP2 SWAP1 PUSH0 MSTORE PUSH1 0x20 PUSH0 KECCAK256 SWAP1 JUMPDEST DUP2 SLOAD DUP2 MSTORE SWAP1 PUSH1 0x1 ADD SWAP1 PUSH1 0x20 ADD DUP1 DUP4 GT PUSH2 0x41F JUMPI DUP3 SWAP1 SUB PUSH1 0x1F AND DUP3 ADD SWAP2 JUMPDEST POP POP POP POP POP DUP2 JUMP JUMPDEST CALLER PUSH0 SWAP1 DUP2 MSTORE PUSH1 0x6 PUSH1 0x20 MSTORE PUSH1 0x40 SWAP1 KECCAK256 SLOAD DUP2 GT ISZERO PUSH2 0x4A2 JUMPI PUSH1 0x40 MLOAD PUSH3 0x461BCD PUSH1 0xE5 SHL DUP2 MSTORE PUSH1 0x20 PUSH1 0x4 DUP3 ADD MSTORE PUSH1 0x1A PUSH1 0x24 DUP3 ADD MSTORE PUSH32 0x496E73756666696369656E7420746F6B656E2062616C616E6365000000000000 PUSH1 0x44 DUP3 ADD MSTORE PUSH1 0x64 ADD PUSH2 0x28F JUMP JUMPDEST CALLER PUSH0 SWAP1 DUP2 MSTORE PUSH1 0x6 PUSH1 0x20 MSTORE PUSH1 0x40 DUP2 KECCAK256 DUP1 SLOAD DUP4 SWAP3 SWAP1 PUSH2 0x4C0 SWAP1 DUP5 SWAP1 PUSH2 0x924 JUMP JUMPDEST SWAP1 SWAP2 SSTORE POP POP PUSH1 0x4 SLOAD PUSH1 0x1 PUSH1 0x1 PUSH1 0xA0 SHL SUB AND PUSH0 SWAP1 DUP2 MSTORE PUSH1 0x6 PUSH1 0x20 MSTORE PUSH1 0x40 DUP2 KECCAK256 DUP1 SLOAD DUP4 SWAP3 SWAP1 PUSH2 0x4EE SWAP1 DUP5 SWAP1 PUSH2 0x937 JUMP JUMPDEST SWAP1 SWAP2 SSTORE POP POP PUSH1 0x4 SLOAD PUSH1 0x40 MLOAD DUP3 DUP2 MSTORE PUSH1 0x1 PUSH1 0x1 PUSH1 0xA0 SHL SUB SWAP1 SWAP2 AND SWAP1 CALLER SWAP1 PUSH32 0xDDF252AD1BE2C89B69C2B068FC378DAA952BA7F163C4A11628F55A4DF523B3EF SWAP1 PUSH1 0x20 ADD PUSH1 0x40 MLOAD DUP1 SWAP2 SUB SWAP1 LOG3 PUSH1 0x40 MLOAD DUP2 DUP2 MSTORE CALLER SWAP1 PUSH32 0x6EF95F06320E7A25A04A175CA677B7052BDD97131872C2192525A629F51BE770 SWAP1 PUSH1 0x20 ADD PUSH2 0x3AE JUMP JUMPDEST PUSH1 0x4 SLOAD PUSH1 0x1 PUSH1 0x1 PUSH1 0xA0 SHL SUB AND CALLER EQ PUSH2 0x5B8 JUMPI PUSH1 0x40 MLOAD PUSH3 0x461BCD PUSH1 0xE5 SHL DUP2 MSTORE PUSH1 0x20 PUSH1 0x4 DUP3 ADD MSTORE PUSH1 0x12 PUSH1 0x24 DUP3 ADD MSTORE PUSH18 0x13DB9B1E481BDDDB995C88185B1B1BDDD959 PUSH1 0x72 SHL PUSH1 0x44 DUP3 ADD MSTORE PUSH1 0x64 ADD PUSH2 0x28F JUMP JUMPDEST PUSH1 0x5 SSTORE JUMP JUMPDEST PUSH1 0x1 DUP1 SLOAD PUSH2 0x3C5 SWAP1 PUSH2 0x94A JUMP JUMPDEST CALLER PUSH0 SWAP1 DUP2 MSTORE PUSH1 0x6 PUSH1 0x20 MSTORE PUSH1 0x40 DUP2 KECCAK256 SLOAD DUP3 GT ISZERO PUSH2 0x61C JUMPI PUSH1 0x40 MLOAD PUSH3 0x461BCD PUSH1 0xE5 SHL DUP2 MSTORE PUSH1 0x20 PUSH1 0x4 DUP3 ADD MSTORE PUSH1 0x11 PUSH1 0x24 DUP3 ADD MSTORE PUSH17 0x4E6F7420656E6F75676820746F6B656E73 PUSH1 0x78 SHL PUSH1 0x44 DUP3 ADD MSTORE PUSH1 0x64 ADD PUSH2 0x28F JUMP JUMPDEST CALLER PUSH0 SWAP1 DUP2 MSTORE PUSH1 0x6 PUSH1 0x20 MSTORE PUSH1 0x40 DUP2 KECCAK256 DUP1 SLOAD DUP5 SWAP3 SWAP1 PUSH2 0x63A SWAP1 DUP5 SWAP1 PUSH2 0x924 JUMP JUMPDEST SWAP1 SWAP2 SSTORE POP POP PUSH1 0x1 PUSH1 0x1 PUSH1 0xA0 SHL SUB DUP4 AND PUSH0 SWAP1 DUP2 MSTORE PUSH1 0x6 PUSH1 0x20 MSTORE PUSH1 0x40 DUP2 KECCAK256 DUP1 SLOAD DUP5 SWAP3 SWAP1 PUSH2 0x666 SWAP1 DUP5 SWAP1 PUSH2 0x937 JUMP JUMPDEST SWAP1 SWAP2 SSTORE POP POP PUSH1 0x40 MLOAD DUP3 DUP2 MSTORE PUSH1 0x1 PUSH1 0x1 PUSH1 0xA0 SHL SUB DUP5 AND SWAP1 CALLER SWAP1 PUSH32 0xDDF252AD1BE2C89B69C2B068FC378DAA952BA7F163C4A11628F55A4DF523B3EF SWAP1 PUSH1 0x20 ADD PUSH1 0x40 MLOAD DUP1 SWAP2 SUB SWAP1 LOG3 POP PUSH1 0x1 JUMPDEST SWAP3 SWAP2 POP POP JUMP JUMPDEST PUSH1 0x4 SLOAD PUSH1 0x1 PUSH1 0x1 PUSH1 0xA0 SHL SUB AND CALLER EQ PUSH2 0x704 JUMPI PUSH1 0x40 MLOAD PUSH3 0x461BCD PUSH1 0xE5 SHL DUP2 MSTORE PUSH1 0x20 PUSH1 0x4 DUP3 ADD MSTORE PUSH1 0x12 PUSH1 0x24 DUP3 ADD MSTORE PUSH18 0x13DB9B1E481BDDDB995C88185B1B1BDDD959 PUSH1 0x72 SHL PUSH1 0x44 DUP3 ADD MSTORE PUSH1 0x64 ADD PUSH2 0x28F JUMP JUMPDEST PUSH1 0x4 SLOAD PUSH1 0x40 MLOAD PUSH1 0x1 PUSH1 0x1 PUSH1 0xA0 SHL SUB SWAP1 SWAP2 AND SWAP1 SELFBALANCE DUP1 ISZERO PUSH2 0x8FC MUL SWAP2 PUSH0 DUP2 DUP2 DUP2 DUP6 DUP9 DUP9 CALL SWAP4 POP POP POP POP ISZERO DUP1 ISZERO PUSH2 0x73A JUMPI RETURNDATASIZE PUSH0 PUSH0 RETURNDATACOPY RETURNDATASIZE PUSH0 REVERT JUMPDEST POP JUMP JUMPDEST PUSH1 0x20 DUP2 MSTORE PUSH0 DUP3 MLOAD DUP1 PUSH1 0x20 DUP5 ADD MSTORE DUP1 PUSH1 0x20 DUP6 ADD PUSH1 0x40 DUP6 ADD MCOPY PUSH0 PUSH1 0x40 DUP3 DUP6 ADD ADD MSTORE PUSH1 0x40 PUSH1 0x1F NOT PUSH1 0x1F DUP4 ADD AND DUP5 ADD ADD SWAP2 POP POP SWAP3 SWAP2 POP POP JUMP JUMPDEST PUSH0 PUSH1 0x20 DUP3 DUP5 SUB SLT ISZERO PUSH2 0x782 JUMPI PUSH0 PUSH0 REVERT JUMPDEST POP CALLDATALOAD SWAP2 SWAP1 POP JUMP JUMPDEST DUP1 CALLDATALOAD PUSH1 0x1 PUSH1 0x1 PUSH1 0xA0 SHL SUB DUP2 AND DUP2 EQ PUSH2 0x79F JUMPI PUSH0 PUSH0 REVERT JUMPDEST SWAP2 SWAP1 POP JUMP JUMPDEST PUSH0 PUSH1 0x20 DUP3 DUP5 SUB SLT ISZERO PUSH2 0x7B4 JUMPI PUSH0 PUSH0 REVERT JUMPDEST PUSH2 0x7BD DUP3 PUSH2 0x789 JUMP JUMPDEST SWAP4 SWAP3 POP POP POP JUMP JUMPDEST PUSH0 PUSH0 PUSH1 0x40 DUP4 DUP6 SUB SLT ISZERO PUSH2 0x7D5 JUMPI PUSH0 PUSH0 REVERT JUMPDEST PUSH2 0x7DE DUP4 PUSH2 0x789 JUMP JUMPDEST SWAP5 PUSH1 0x20 SWAP4 SWAP1 SWAP4 ADD CALLDATALOAD SWAP4 POP POP POP JUMP JUMPDEST PUSH4 0x4E487B71 PUSH1 0xE0 SHL PUSH0 MSTORE PUSH1 0x11 PUSH1 0x4 MSTORE PUSH1 0x24 PUSH0 REVERT JUMPDEST PUSH1 0x1 DUP2 JUMPDEST PUSH1 0x1 DUP5 GT ISZERO PUSH2 0x83B JUMPI DUP1 DUP6 DIV DUP2 GT ISZERO PUSH2 0x81F JUMPI PUSH2 0x81F PUSH2 0x7EC JUMP JUMPDEST PUSH1 0x1 DUP5 AND ISZERO PUSH2 0x82D JUMPI SWAP1 DUP2 MUL SWAP1 JUMPDEST PUSH1 0x1 SWAP4 SWAP1 SWAP4 SHR SWAP3 DUP1 MUL PUSH2 0x804 JUMP JUMPDEST SWAP4 POP SWAP4 SWAP2 POP POP JUMP JUMPDEST PUSH0 DUP3 PUSH2 0x851 JUMPI POP PUSH1 0x1 PUSH2 0x6AF JUMP JUMPDEST DUP2 PUSH2 0x85D JUMPI POP PUSH0 PUSH2 0x6AF JUMP JUMPDEST DUP2 PUSH1 0x1 DUP2 EQ PUSH2 0x873 JUMPI PUSH1 0x2 DUP2 EQ PUSH2 0x87D JUMPI PUSH2 0x899 JUMP JUMPDEST PUSH1 0x1 SWAP2 POP POP PUSH2 0x6AF JUMP JUMPDEST PUSH1 0xFF DUP5 GT ISZERO PUSH2 0x88E JUMPI PUSH2 0x88E PUSH2 0x7EC JUMP JUMPDEST POP POP PUSH1 0x1 DUP3 SHL PUSH2 0x6AF JUMP JUMPDEST POP PUSH1 0x20 DUP4 LT PUSH2 0x133 DUP4 LT AND PUSH1 0x4E DUP5 LT PUSH1 0xB DUP5 LT AND OR ISZERO PUSH2 0x8BC JUMPI POP DUP2 DUP2 EXP PUSH2 0x6AF JUMP JUMPDEST PUSH2 0x8C8 PUSH0 NOT DUP5 DUP5 PUSH2 0x800 JUMP JUMPDEST DUP1 PUSH0 NOT DIV DUP3 GT ISZERO PUSH2 0x8DB JUMPI PUSH2 0x8DB PUSH2 0x7EC JUMP JUMPDEST MUL SWAP4 SWAP3 POP POP POP JUMP JUMPDEST PUSH0 PUSH2 0x7BD DUP4 DUP4 PUSH2 0x843 JUMP JUMPDEST DUP1 DUP3 MUL DUP2 ISZERO DUP3 DUP3 DIV DUP5 EQ OR PUSH2 0x6AF JUMPI PUSH2 0x6AF PUSH2 0x7EC JUMP JUMPDEST PUSH0 DUP3 PUSH2 0x91F JUMPI PUSH4 0x4E487B71 PUSH1 0xE0 SHL PUSH0 MSTORE PUSH1 0x12 PUSH1 0x4 MSTORE PUSH1 0x24 PUSH0 REVERT JUMPDEST POP DIV SWAP1 JUMP JUMPDEST DUP2 DUP2 SUB DUP2 DUP2 GT ISZERO PUSH2 0x6AF JUMPI PUSH2 0x6AF PUSH2 0x7EC JUMP JUMPDEST DUP1 DUP3 ADD DUP1 DUP3 GT ISZERO PUSH2 0x6AF JUMPI PUSH2 0x6AF PUSH2 0x7EC JUMP JUMPDEST PUSH1 0x1 DUP2 DUP2 SHR SWAP1 DUP3 AND DUP1 PUSH2 0x95E JUMPI PUSH1 0x7F DUP3 AND SWAP2 POP JUMPDEST PUSH1 0x20 DUP3 LT DUP2 SUB PUSH2 0x97C JUMPI PUSH4 0x4E487B71 PUSH1 0xE0 SHL PUSH0 MSTORE PUSH1 0x22 PUSH1 0x4 MSTORE PUSH1 0x24 PUSH0 REVERT JUMPDEST POP SWAP2 SWAP1 POP JUMP INVALID LOG2 PUSH5 0x6970667358 0x22 SLT KECCAK256 KECCAK256 DATALOADN 0x3434 0xA5 PUSH1 0x24 SWAPN 0x57 0x2E MSTORE8 0xB9 0xF7 0xA5 LOG1 0xB5 PREVRANDAO DUP3 DUP9 PUSH14 0xA7BFACA7E6842C73817570466473 PUSH16 0x6C634300081E00330000000000000000 "
				},
				"gasEstimates": {
					"creation": {
						"codeDepositCost": "497600",
						"executionCost": "infinite",
						"totalCost": "infinite"
					},
					"external": {
						"balanceOf(address)": "2645",
						"buyTokens()": "infinite",
						"decimals()": "2357",
						"name()": "infinite",
						"owner()": "2358",
						"payWithTokens(uint256)": "infinite",
						"setTokenPrice(uint256)": "24551",
						"symbol()": "infinite",
						"tokenPrice()": "2294",
						"totalSupply()": "2303",
						"transfer(address,uint256)": "infinite",
						"withdrawETH()": "infinite"
					},
					"internal": {
						"_mint(address,uint256)": "infinite"
					}
				},
				"methodIdentifiers": {
					"balanceOf(address)": "70a08231",
					"buyTokens()": "d0febe4c",
					"decimals()": "313ce567",
					"name()": "06fdde03",
					"owner()": "8da5cb5b",
					"payWithTokens(uint256)": "4064a6ee",
					"setTokenPrice(uint256)": "6a61e5fc",
					"symbol()": "95d89b41",
					"tokenPrice()": "7ff9b596",
					"totalSupply()": "18160ddd",
					"transfer(address,uint256)": "a9059cbb",
					"withdrawETH()": "e086e5ec"
				}
			},
			"storageLayout": {
				"storage": [
					{
						"astId": 29,
						"contract": "contracts/AenzbiToken.sol:AenzbiToken",
						"label": "name",
						"offset": 0,
						"slot": "0",
						"type": "t_string_storage"
					},
					{
						"astId": 32,
						"contract": "contracts/AenzbiToken.sol:AenzbiToken",
						"label": "symbol",
						"offset": 0,
						"slot": "1",
						"type": "t_string_storage"
					},
					{
						"astId": 35,
						"contract": "contracts/AenzbiToken.sol:AenzbiToken",
						"label": "decimals",
						"offset": 0,
						"slot": "2",
						"type": "t_uint8"
					},
					{
						"astId": 37,
						"contract": "contracts/AenzbiToken.sol:AenzbiToken",
						"label": "_totalSupply",
						"offset": 0,
						"slot": "3",
						"type": "t_uint256"
					},
					{
						"astId": 39,
						"contract": "contracts/AenzbiToken.sol:AenzbiToken",
						"label": "owner",
						"offset": 0,
						"slot": "4",
						"type": "t_address"
					},
					{
						"astId": 42,
						"contract": "contracts/AenzbiToken.sol:AenzbiToken",
						"label": "tokenPrice",
						"offset": 0,
						"slot": "5",
						"type": "t_uint256"
					},
					{
						"astId": 46,
						"contract": "contracts/AenzbiToken.sol:AenzbiToken",
						"label": "_balances",
						"offset": 0,
						"slot": "6",
						"type": "t_mapping(t_address,t_uint256)"
					}
				],
				"types": {
					"t_address": {
						"encoding": "inplace",
						"label": "address",
						"numberOfBytes": "20"
					},
					"t_mapping(t_address,t_uint256)": {
						"encoding": "mapping",
						"key": "t_address",
						"label": "mapping(address => uint256)",
						"numberOfBytes": "32",
						"value": "t_uint256"
					},
					"t_string_storage": {
						"encoding": "bytes",
						"label": "string",
						"numberOfBytes": "32"
					},
					"t_uint256": {
						"encoding": "inplace",
						"label": "uint256",
						"numberOfBytes": "32"
					},
					"t_uint8": {
						"encoding": "inplace",
						"label": "uint8",
						"numberOfBytes": "1"
					}
				}
			},
			"userdoc": {
				"kind": "user",
				"methods": {},
				"version": 1
			}
		}
	}
}