{
	"contracts/AenzbiToken.sol": {
		"AenzbiToken": {
			"abi": [
				{
					"inputs": [
						{
							"internalType": "uint256",
							"name": "initialSupply",
							"type": "uint256"
						}
					],
					"stateMutability": "nonpayable",
					"type": "constructor"
				},
				{
					"anonymous": false,
					"inputs": [
						{
							"indexed": true,
							"internalType": "address",
							"name": "from",
							"type": "address"
						},
						{
							"indexed": false,
							"internalType": "uint256",
							"name": "amount",
							"type": "uint256"
						}
					],
					"name": "PaymentReceived",
					"type": "event"
				},
				{
					"anonymous": false,
					"inputs": [
						{
							"indexed": true,
							"internalType": "address",
							"name": "buyer",
							"type": "address"
						},
						{
							"indexed": false,
							"internalType": "uint256",
							"name": "amount",
							"type": "uint256"
						}
					],
					"name": "TokenPurchased",
					"type": "event"
				},
				{
					"anonymous": false,
					"inputs": [
						{
							"indexed": true,
							"internalType": "address",
							"name": "from",
							"type": "address"
						},
						{
							"indexed": true,
							"internalType": "address",
							"name": "to",
							"type": "address"
						},
						{
							"indexed": false,
							"internalType": "uint256",
							"name": "value",
							"type": "uint256"
						}
					],
					"name": "Transfer",
					"type": "event"
				},
				{
					"inputs": [
						{
							"internalType": "address",
							"name": "account",
							"type": "address"
						}
					],
					"name": "balanceOf",
					"outputs": [
						{
							"internalType": "uint256",
							"name": "",
							"type": "uint256"
						}
					],
					"stateMutability": "view",
					"type": "function"
				},
				{
					"inputs": [],
					"name": "buyTokens",
					"outputs": [],
					"stateMutability": "payable",
					"type": "function"
				},
				{
					"inputs": [],
					"name": "decimals",
					"outputs": [
						{
							"internalType": "uint8",
							"name": "",
							"type": "uint8"
						}
					],
					"stateMutability": "view",
					"type": "function"
				},
				{
					"inputs": [],
					"name": "name",
					"outputs": [
						{
							"internalType": "string",
							"name": "",
							"type": "string"
						}
					],
					"stateMutability": "view",
					"type": "function"
				},
				{
					"inputs": [],
					"name": "owner",
					"outputs": [
						{
							"internalType": "address",
							"name": "",
							"type": "address"
						}
					],
					"stateMutability": "view",
					"type": "function"
				},
				{
					"inputs": [
						{
							"internalType": "uint256",
							"name": "amount",
							"type": "uint256"
						}
					],
					"name": "payWithTokens",
					"outputs": [],
					"stateMutability": "nonpayable",
					"type": "function"
				},
				{
					"inputs": [
						{
							"internalType": "uint256",
							"name": "newPriceWei",
							"type": "uint256"
						}
					],
					"name": "setTokenPrice",
					"outputs": [],
					"stateMutability": "nonpayable",
					"type": "function"
				},
				{
					"inputs": [],
					"name": "symbol",
					"outputs": [
						{
							"internalType": "string",
							"name": "",
							"type": "string"
						}
					],
					"stateMutability": "view",
					"type": "function"
				},
				{
					"inputs": [],
					"name": "tokenPrice",
					"outputs": [
						{
							"internalType": "uint256",
							"name": "",
							"type": "uint256"
						}
					],
					"stateMutability": "view",
					"type": "function"
				},
				{
					"inputs": [],
					"name": "totalSupply",
					"outputs": [
						{
							"internalType": "uint256",
							"name": "",
							"type": "uint256"
						}
					],
					"stateMutability": "view",
					"type": "function"
				},
				{
					"inputs": [
						{
							"internalType": "address",
							"name": "recipient",
							"type": "address"
						},
						{
							"internalType": "uint256",
							"name": "amount",
							"type": "uint256"
						}
					],
					"name": "transfer",
					"outputs": [
						{
							"internalType": "bool",
							"name": "",
							"type": "bool"
						}
					],
					"stateMutability": "nonpayable",
					"type": "function"
				},
				{
					"inputs": [],
					"name": "withdrawETH",
					"outputs": [],
					"stateMutability": "nonpayable",
					"type": "function"
				},
				{
					"stateMutability": "payable",
					"type": "receive"
				}
			],
			"devdoc": {
				"kind": "dev",
				"methods": {},
				"version": 1
			},
			"evm": {
				"assembly": "    /* \"contracts/AenzbiToken.sol\":437:3006  contract AenzbiToken is IERC20 {... */\n  mstore(0x40, 0x80)\n    /* \"contracts/AenzbiToken.sol\":474:509  string public name = \"Aenzbi Token\" */\n  mload(0x40)\n  dup1\n  0x40\n  add\n  0x40\n  mstore\n  dup1\n  0x0c\n  dup2\n  mstore\n  0x20\n  add\n  0x41656e7a626920546f6b656e0000000000000000000000000000000000000000\n  dup2\n  mstore\n  pop\n  0x00\n  swap1\n  dup2\n  tag_1\n  swap2\n  swap1\n  tag_2\n  jump\t// in\ntag_1:\n  pop\n    /* \"contracts/AenzbiToken.sol\":515:543  string public symbol = \"AZT\" */\n  mload(0x40)\n  dup1\n  0x40\n  add\n  0x40\n  mstore\n  dup1\n  0x03\n  dup2\n  mstore\n  0x20\n  add\n  0x415a540000000000000000000000000000000000000000000000000000000000\n  dup2\n  mstore\n  pop\n  0x01\n  swap1\n  dup2\n  tag_3\n  swap2\n  swap1\n  tag_2\n  jump\t// in\ntag_3:\n  pop\n    /* \"contracts/AenzbiToken.sol\":573:575  18 */\n  0x12\n    /* \"contracts/AenzbiToken.sol\":549:575  uint8 public decimals = 18 */\n  0x02\n  exp(0x0100, 0x00)\n  dup2\n  sload\n  dup2\n  0xff\n  mul\n  not\n  and\n  swap1\n  dup4\n  0xff\n  and\n  mul\n  or\n  swap1\n  sstore\n  pop\n    /* \"contracts/AenzbiToken.sol\":669:676  1 ether */\n  0x0de0b6b3a7640000\n    /* \"contracts/AenzbiToken.sol\":641:676  uint256 public tokenPrice = 1 ether */\n  0x05\n  sstore\n    /* \"contracts/AenzbiToken.sol\":1048:1183  constructor(uint256 initialSupply) {... */\n  callvalue\n  dup1\n  iszero\n  tag_4\n  jumpi\n  revert(0x00, 0x00)\ntag_4:\n  pop\n  mload(0x40)\n  sub(codesize, bytecodeSize)\n  dup1\n  bytecodeSize\n  dup4\n  codecopy\n  dup2\n  dup2\n  add\n  0x40\n  mstore\n  dup2\n  add\n  swap1\n  tag_5\n  swap2\n  swap1\n  tag_6\n  jump\t// in\ntag_5:\n    /* \"contracts/AenzbiToken.sol\":1101:1111  msg.sender */\n  caller\n    /* \"contracts/AenzbiToken.sol\":1093:1098  owner */\n  0x04\n  0x00\n    /* \"contracts/AenzbiToken.sol\":1093:1111  owner = msg.sender */\n  0x0100\n  exp\n  dup2\n  sload\n  dup2\n  0xffffffffffffffffffffffffffffffffffffffff\n  mul\n  not\n  and\n  swap1\n  dup4\n  0xffffffffffffffffffffffffffffffffffffffff\n  and\n  mul\n  or\n  swap1\n  sstore\n  pop\n    /* \"contracts/AenzbiToken.sol\":1121:1176  _mint(owner, initialSupply * (10 ** uint256(decimals))) */\n  tag_9\n    /* \"contracts/AenzbiToken.sol\":1127:1132  owner */\n  0x04\n  0x00\n  swap1\n  sload\n  swap1\n  0x0100\n  exp\n  swap1\n  div\n  0xffffffffffffffffffffffffffffffffffffffff\n  and\n    /* \"contracts/AenzbiToken.sol\":1165:1173  decimals */\n  0x02\n  0x00\n  swap1\n  sload\n  swap1\n  0x0100\n  exp\n  swap1\n  div\n  0xff\n  and\n    /* \"contracts/AenzbiToken.sol\":1157:1174  uint256(decimals) */\n  0xff\n  and\n    /* \"contracts/AenzbiToken.sol\":1151:1153  10 */\n  0x0a\n    /* \"contracts/AenzbiToken.sol\":1151:1174  10 ** uint256(decimals) */\n  tag_10\n  swap2\n  swap1\n  tag_11\n  jump\t// in\ntag_10:\n    /* \"contracts/AenzbiToken.sol\":1134:1147  initialSupply */\n  dup4\n    /* \"contracts/AenzbiToken.sol\":1134:1175  initialSupply * (10 ** uint256(decimals)) */\n  tag_12\n  swap2\n  swap1\n  tag_13\n  jump\t// in\ntag_12:\n    /* \"contracts/AenzbiToken.sol\":1121:1126  _mint */\n  shl(0x20, tag_14)\n    /* \"contracts/AenzbiToken.sol\":1121:1176  _mint(owner, initialSupply * (10 ** uint256(decimals))) */\n  0x20\n  shr\n  jump\t// in\ntag_9:\n    /* \"contracts/AenzbiToken.sol\":1048:1183  constructor(uint256 initialSupply) {... */\n  pop\n    /* \"contracts/AenzbiToken.sol\":437:3006  contract AenzbiToken is IERC20 {... */\n  jump(tag_15)\n    /* \"contracts/AenzbiToken.sol\":2687:2943  function _mint(address account, uint256 amount) internal {... */\ntag_14:\n    /* \"contracts/AenzbiToken.sol\":2781:2783  10 */\n  0x0a\n    /* \"contracts/AenzbiToken.sol\":2762:2784  account != address(10) */\n  0xffffffffffffffffffffffffffffffffffffffff\n  and\n    /* \"contracts/AenzbiToken.sol\":2762:2769  account */\n  dup3\n    /* \"contracts/AenzbiToken.sol\":2762:2784  account != address(10) */\n  0xffffffffffffffffffffffffffffffffffffffff\n  and\n  sub\n    /* \"contracts/AenzbiToken.sol\":2754:2813  require(account != address(10), \"Zero address not allowed\") */\n  tag_17\n  jumpi\n  mload(0x40)\n  0x08c379a000000000000000000000000000000000000000000000000000000000\n  dup2\n  mstore\n  0x04\n  add\n  tag_18\n  swap1\n  tag_19\n  jump\t// in\ntag_18:\n  mload(0x40)\n  dup1\n  swap2\n  sub\n  swap1\n  revert\ntag_17:\n    /* \"contracts/AenzbiToken.sol\":2839:2845  amount */\n  dup1\n    /* \"contracts/AenzbiToken.sol\":2823:2835  _totalSupply */\n  0x03\n  0x00\n    /* \"contracts/AenzbiToken.sol\":2823:2845  _totalSupply += amount */\n  dup3\n  dup3\n  sload\n  tag_20\n  swap2\n  swap1\n  tag_21\n  jump\t// in\ntag_20:\n  swap3\n  pop\n  pop\n  dup2\n  swap1\n  sstore\n  pop\n    /* \"contracts/AenzbiToken.sol\":2877:2883  amount */\n  dup1\n    /* \"contracts/AenzbiToken.sol\":2855:2864  _balances */\n  0x06\n    /* \"contracts/AenzbiToken.sol\":2855:2873  _balances[account] */\n  0x00\n    /* \"contracts/AenzbiToken.sol\":2865:2872  account */\n  dup5\n    /* \"contracts/AenzbiToken.sol\":2855:2873  _balances[account] */\n  0xffffffffffffffffffffffffffffffffffffffff\n  and\n  0xffffffffffffffffffffffffffffffffffffffff\n  and\n  dup2\n  mstore\n  0x20\n  add\n  swap1\n  dup2\n  mstore\n  0x20\n  add\n  0x00\n  keccak256\n  0x00\n    /* \"contracts/AenzbiToken.sol\":2855:2883  _balances[account] += amount */\n  dup3\n  dup3\n  sload\n  tag_22\n  swap2\n  swap1\n  tag_21\n  jump\t// in\ntag_22:\n  swap3\n  pop\n  pop\n  dup2\n  swap1\n  sstore\n  pop\n    /* \"contracts/AenzbiToken.sol\":2920:2927  account */\n  dup2\n    /* \"contracts/AenzbiToken.sol\":2898:2936  Transfer(address(10), account, amount) */\n  0xffffffffffffffffffffffffffffffffffffffff\n  and\n    /* \"contracts/AenzbiToken.sol\":2915:2917  10 */\n  0x0a\n    /* \"contracts/AenzbiToken.sol\":2898:2936  Transfer(address(10), account, amount) */\n  0xffffffffffffffffffffffffffffffffffffffff\n  and\n  0xddf252ad1be2c89b69c2b068fc378daa952ba7f163c4a11628f55a4df523b3ef\n    /* \"contracts/AenzbiToken.sol\":2929:2935  amount */\n  dup4\n    /* \"contracts/AenzbiToken.sol\":2898:2936  Transfer(address(10), account, amount) */\n  mload(0x40)\n  tag_23\n  swap2\n  swap1\n  tag_24\n  jump\t// in\ntag_23:\n  mload(0x40)\n  dup1\n  swap2\n  sub\n  swap1\n  log3\n    /* \"contracts/AenzbiToken.sol\":2687:2943  function _mint(address account, uint256 amount) internal {... */\n  pop\n  pop\n  jump\t// out\n    /* \"#utility.yul\":7:106   */\ntag_25:\n    /* \"#utility.yul\":59:65   */\n  0x00\n    /* \"#utility.yul\":93:98   */\n  dup2\n    /* \"#utility.yul\":87:99   */\n  mload\n    /* \"#utility.yul\":77:99   */\n  swap1\n  pop\n    /* \"#utility.yul\":7:106   */\n  swap2\n  swap1\n  pop\n  jump\t// out\n    /* \"#utility.yul\":112:292   */\ntag_26:\n    /* \"#utility.yul\":160:237   */\n  0x4e487b7100000000000000000000000000000000000000000000000000000000\n    /* \"#utility.yul\":157:158   */\n  0x00\n    /* \"#utility.yul\":150:238   */\n  mstore\n    /* \"#utility.yul\":257:261   */\n  0x41\n    /* \"#utility.yul\":254:255   */\n  0x04\n    /* \"#utility.yul\":247:262   */\n  mstore\n    /* \"#utility.yul\":281:285   */\n  0x24\n    /* \"#utility.yul\":278:279   */\n  0x00\n    /* \"#utility.yul\":271:286   */\n  revert\n    /* \"#utility.yul\":298:478   */\ntag_27:\n    /* \"#utility.yul\":346:423   */\n  0x4e487b7100000000000000000000000000000000000000000000000000000000\n    /* \"#utility.yul\":343:344   */\n  0x00\n    /* \"#utility.yul\":336:424   */\n  mstore\n    /* \"#utility.yul\":443:447   */\n  0x22\n    /* \"#utility.yul\":440:441   */\n  0x04\n    /* \"#utility.yul\":433:448   */\n  mstore\n    /* \"#utility.yul\":467:471   */\n  0x24\n    /* \"#utility.yul\":464:465   */\n  0x00\n    /* \"#utility.yul\":457:472   */\n  revert\n    /* \"#utility.yul\":484:804   */\ntag_28:\n    /* \"#utility.yul\":528:534   */\n  0x00\n    /* \"#utility.yul\":565:566   */\n  0x02\n    /* \"#utility.yul\":559:563   */\n  dup3\n    /* \"#utility.yul\":555:567   */\n  div\n    /* \"#utility.yul\":545:567   */\n  swap1\n  pop\n    /* \"#utility.yul\":612:613   */\n  0x01\n    /* \"#utility.yul\":606:610   */\n  dup3\n    /* \"#utility.yul\":602:614   */\n  and\n    /* \"#utility.yul\":633:651   */\n  dup1\n    /* \"#utility.yul\":623:704   */\n  tag_63\n  jumpi\n    /* \"#utility.yul\":689:693   */\n  0x7f\n    /* \"#utility.yul\":681:687   */\n  dup3\n    /* \"#utility.yul\":677:694   */\n  and\n    /* \"#utility.yul\":667:694   */\n  swap2\n  pop\n    /* \"#utility.yul\":623:704   */\ntag_63:\n    /* \"#utility.yul\":751:753   */\n  0x20\n    /* \"#utility.yul\":743:749   */\n  dup3\n    /* \"#utility.yul\":740:754   */\n  lt\n    /* \"#utility.yul\":720:738   */\n  dup2\n    /* \"#utility.yul\":717:755   */\n  sub\n    /* \"#utility.yul\":714:798   */\n  tag_64\n  jumpi\n    /* \"#utility.yul\":770:788   */\n  tag_65\n  tag_27\n  jump\t// in\ntag_65:\n    /* \"#utility.yul\":714:798   */\ntag_64:\n    /* \"#utility.yul\":535:804   */\n  pop\n    /* \"#utility.yul\":484:804   */\n  swap2\n  swap1\n  pop\n  jump\t// out\n    /* \"#utility.yul\":810:951   */\ntag_29:\n    /* \"#utility.yul\":859:863   */\n  0x00\n    /* \"#utility.yul\":882:885   */\n  dup2\n    /* \"#utility.yul\":874:885   */\n  swap1\n  pop\n    /* \"#utility.yul\":905:908   */\n  dup2\n    /* \"#utility.yul\":902:903   */\n  0x00\n    /* \"#utility.yul\":895:909   */\n  mstore\n    /* \"#utility.yul\":939:943   */\n  0x20\n    /* \"#utility.yul\":936:937   */\n  0x00\n    /* \"#utility.yul\":926:944   */\n  keccak256\n    /* \"#utility.yul\":918:944   */\n  swap1\n  pop\n    /* \"#utility.yul\":810:951   */\n  swap2\n  swap1\n  pop\n  jump\t// out\n    /* \"#utility.yul\":957:1050   */\ntag_30:\n    /* \"#utility.yul\":994:1000   */\n  0x00\n    /* \"#utility.yul\":1041:1043   */\n  0x20\n    /* \"#utility.yul\":1036:1038   */\n  0x1f\n    /* \"#utility.yul\":1029:1034   */\n  dup4\n    /* \"#utility.yul\":1025:1039   */\n  add\n    /* \"#utility.yul\":1021:1044   */\n  div\n    /* \"#utility.yul\":1011:1044   */\n  swap1\n  pop\n    /* \"#utility.yul\":957:1050   */\n  swap2\n  swap1\n  pop\n  jump\t// out\n    /* \"#utility.yul\":1056:1163   */\ntag_31:\n    /* \"#utility.yul\":1100:1108   */\n  0x00\n    /* \"#utility.yul\":1150:1155   */\n  dup3\n    /* \"#utility.yul\":1144:1148   */\n  dup3\n    /* \"#utility.yul\":1140:1156   */\n  shl\n    /* \"#utility.yul\":1119:1156   */\n  swap1\n  pop\n    /* \"#utility.yul\":1056:1163   */\n  swap3\n  swap2\n  pop\n  pop\n  jump\t// out\n    /* \"#utility.yul\":1169:1562   */\ntag_32:\n    /* \"#utility.yul\":1238:1244   */\n  0x00\n    /* \"#utility.yul\":1288:1289   */\n  0x08\n    /* \"#utility.yul\":1276:1286   */\n  dup4\n    /* \"#utility.yul\":1272:1290   */\n  mul\n    /* \"#utility.yul\":1311:1408   */\n  tag_70\n    /* \"#utility.yul\":1341:1407   */\n  0xffffffffffffffffffffffffffffffffffffffffffffffffffffffffffffffff\n    /* \"#utility.yul\":1330:1339   */\n  dup3\n    /* \"#utility.yul\":1311:1408   */\n  tag_31\n  jump\t// in\ntag_70:\n    /* \"#utility.yul\":1429:1468   */\n  tag_71\n    /* \"#utility.yul\":1459:1467   */\n  dup7\n    /* \"#utility.yul\":1448:1457   */\n  dup4\n    /* \"#utility.yul\":1429:1468   */\n  tag_31\n  jump\t// in\ntag_71:\n    /* \"#utility.yul\":1417:1468   */\n  swap6\n  pop\n    /* \"#utility.yul\":1501:1505   */\n  dup1\n    /* \"#utility.yul\":1497:1506   */\n  not\n    /* \"#utility.yul\":1490:1495   */\n  dup5\n    /* \"#utility.yul\":1486:1507   */\n  and\n    /* \"#utility.yul\":1477:1507   */\n  swap4\n  pop\n    /* \"#utility.yul\":1550:1554   */\n  dup1\n    /* \"#utility.yul\":1540:1548   */\n  dup7\n    /* \"#utility.yul\":1536:1555   */\n  and\n    /* \"#utility.yul\":1529:1534   */\n  dup5\n    /* \"#utility.yul\":1526:1556   */\n  or\n    /* \"#utility.yul\":1516:1556   */\n  swap3\n  pop\n    /* \"#utility.yul\":1245:1562   */\n  pop\n  pop\n    /* \"#utility.yul\":1169:1562   */\n  swap4\n  swap3\n  pop\n  pop\n  pop\n  jump\t// out\n    /* \"#utility.yul\":1568:1645   */\ntag_33:\n    /* \"#utility.yul\":1605:1612   */\n  0x00\n    /* \"#utility.yul\":1634:1639   */\n  dup2\n    /* \"#utility.yul\":1623:1639   */\n  swap1\n  pop\n    /* \"#utility.yul\":1568:1645   */\n  swap2\n  swap1\n  pop\n  jump\t// out\n    /* \"#utility.yul\":1651:1711   */\ntag_34:\n    /* \"#utility.yul\":1679:1682   */\n  0x00\n    /* \"#utility.yul\":1700:1705   */\n  dup2\n    /* \"#utility.yul\":1693:1705   */\n  swap1\n  pop\n    /* \"#utility.yul\":1651:1711   */\n  swap2\n  swap1\n  pop\n  jump\t// out\n    /* \"#utility.yul\":1717:1859   */\ntag_35:\n    /* \"#utility.yul\":1767:1776   */\n  0x00\n    /* \"#utility.yul\":1800:1853   */\n  tag_75\n    /* \"#utility.yul\":1818:1852   */\n  tag_76\n    /* \"#utility.yul\":1827:1851   */\n  tag_77\n    /* \"#utility.yul\":1845:1850   */\n  dup5\n    /* \"#utility.yul\":1827:1851   */\n  tag_33\n  jump\t// in\ntag_77:\n    /* \"#utility.yul\":1818:1852   */\n  tag_34\n  jump\t// in\ntag_76:\n    /* \"#utility.yul\":1800:1853   */\n  tag_33\n  jump\t// in\ntag_75:\n    /* \"#utility.yul\":1787:1853   */\n  swap1\n  pop\n    /* \"#utility.yul\":1717:1859   */\n  swap2\n  swap1\n  pop\n  jump\t// out\n    /* \"#utility.yul\":1865:1940   */\ntag_36:\n    /* \"#utility.yul\":1908:1911   */\n  0x00\n    /* \"#utility.yul\":1929:1934   */\n  dup2\n    /* \"#utility.yul\":1922:1934   */\n  swap1\n  pop\n    /* \"#utility.yul\":1865:1940   */\n  swap2\n  swap1\n  pop\n  jump\t// out\n    /* \"#utility.yul\":1946:2215   */\ntag_37:\n    /* \"#utility.yul\":2056:2095   */\n  tag_80\n    /* \"#utility.yul\":2087:2094   */\n  dup4\n    /* \"#utility.yul\":2056:2095   */\n  tag_35\n  jump\t// in\ntag_80:\n    /* \"#utility.yul\":2117:2208   */\n  tag_81\n    /* \"#utility.yul\":2166:2207   */\n  tag_82\n    /* \"#utility.yul\":2190:2206   */\n  dup3\n    /* \"#utility.yul\":2166:2207   */\n  tag_36\n  jump\t// in\ntag_82:\n    /* \"#utility.yul\":2158:2164   */\n  dup5\n    /* \"#utility.yul\":2151:2155   */\n  dup5\n    /* \"#utility.yul\":2145:2156   */\n  sload\n    /* \"#utility.yul\":2117:2208   */\n  tag_32\n  jump\t// in\ntag_81:\n    /* \"#utility.yul\":2111:2115   */\n  dup3\n    /* \"#utility.yul\":2104:2209   */\n  sstore\n    /* \"#utility.yul\":2022:2215   */\n  pop\n    /* \"#utility.yul\":1946:2215   */\n  pop\n  pop\n  pop\n  jump\t// out\n    /* \"#utility.yul\":2221:2294   */\ntag_38:\n    /* \"#utility.yul\":2266:2269   */\n  0x00\n    /* \"#utility.yul\":2287:2288   */\n  0x00\n    /* \"#utility.yul\":2280:2288   */\n  swap1\n  pop\n    /* \"#utility.yul\":2221:2294   */\n  swap1\n  jump\t// out\n    /* \"#utility.yul\":2300:2489   */\ntag_39:\n    /* \"#utility.yul\":2377:2409   */\n  tag_85\n  tag_38\n  jump\t// in\ntag_85:\n    /* \"#utility.yul\":2418:2483   */\n  tag_86\n    /* \"#utility.yul\":2476:2482   */\n  dup2\n    /* \"#utility.yul\":2468:2474   */\n  dup5\n    /* \"#utility.yul\":2462:2466   */\n  dup5\n    /* \"#utility.yul\":2418:2483   */\n  tag_37\n  jump\t// in\ntag_86:\n    /* \"#utility.yul\":2353:2489   */\n  pop\n    /* \"#utility.yul\":2300:2489   */\n  pop\n  pop\n  jump\t// out\n    /* \"#utility.yul\":2495:2681   */\ntag_40:\n    /* \"#utility.yul\":2555:2675   */\ntag_88:\n    /* \"#utility.yul\":2572:2575   */\n  dup2\n    /* \"#utility.yul\":2565:2570   */\n  dup2\n    /* \"#utility.yul\":2562:2576   */\n  lt\n    /* \"#utility.yul\":2555:2675   */\n  iszero\n  tag_90\n  jumpi\n    /* \"#utility.yul\":2626:2665   */\n  tag_91\n    /* \"#utility.yul\":2663:2664   */\n  0x00\n    /* \"#utility.yul\":2656:2661   */\n  dup3\n    /* \"#utility.yul\":2626:2665   */\n  tag_39\n  jump\t// in\ntag_91:\n    /* \"#utility.yul\":2599:2600   */\n  0x01\n    /* \"#utility.yul\":2592:2597   */\n  dup2\n    /* \"#utility.yul\":2588:2601   */\n  add\n    /* \"#utility.yul\":2579:2601   */\n  swap1\n  pop\n    /* \"#utility.yul\":2555:2675   */\n  jump(tag_88)\ntag_90:\n    /* \"#utility.yul\":2495:2681   */\n  pop\n  pop\n  jump\t// out\n    /* \"#utility.yul\":2687:3230   */\ntag_41:\n    /* \"#utility.yul\":2788:2790   */\n  0x1f\n    /* \"#utility.yul\":2783:2786   */\n  dup3\n    /* \"#utility.yul\":2780:2791   */\n  gt\n    /* \"#utility.yul\":2777:3223   */\n  iszero\n  tag_93\n  jumpi\n    /* \"#utility.yul\":2822:2860   */\n  tag_94\n    /* \"#utility.yul\":2854:2859   */\n  dup2\n    /* \"#utility.yul\":2822:2860   */\n  tag_29\n  jump\t// in\ntag_94:\n    /* \"#utility.yul\":2906:2935   */\n  tag_95\n    /* \"#utility.yul\":2924:2934   */\n  dup5\n    /* \"#utility.yul\":2906:2935   */\n  tag_30\n  jump\t// in\ntag_95:\n    /* \"#utility.yul\":2896:2904   */\n  dup2\n    /* \"#utility.yul\":2892:2936   */\n  add\n    /* \"#utility.yul\":3089:3091   */\n  0x20\n    /* \"#utility.yul\":3077:3087   */\n  dup6\n    /* \"#utility.yul\":3074:3092   */\n  lt\n    /* \"#utility.yul\":3071:3120   */\n  iszero\n  tag_96\n  jumpi\n    /* \"#utility.yul\":3110:3118   */\n  dup2\n    /* \"#utility.yul\":3095:3118   */\n  swap1\n  pop\n    /* \"#utility.yul\":3071:3120   */\ntag_96:\n    /* \"#utility.yul\":3133:3213   */\n  tag_97\n    /* \"#utility.yul\":3189:3211   */\n  tag_98\n    /* \"#utility.yul\":3207:3210   */\n  dup6\n    /* \"#utility.yul\":3189:3211   */\n  tag_30\n  jump\t// in\ntag_98:\n    /* \"#utility.yul\":3179:3187   */\n  dup4\n    /* \"#utility.yul\":3175:3212   */\n  add\n    /* \"#utility.yul\":3162:3173   */\n  dup3\n    /* \"#utility.yul\":3133:3213   */\n  tag_40\n  jump\t// in\ntag_97:\n    /* \"#utility.yul\":2792:3223   */\n  pop\n  pop\n    /* \"#utility.yul\":2777:3223   */\ntag_93:\n    /* \"#utility.yul\":2687:3230   */\n  pop\n  pop\n  pop\n  jump\t// out\n    /* \"#utility.yul\":3236:3353   */\ntag_42:\n    /* \"#utility.yul\":3290:3298   */\n  0x00\n    /* \"#utility.yul\":3340:3345   */\n  dup3\n    /* \"#utility.yul\":3334:3338   */\n  dup3\n    /* \"#utility.yul\":3330:3346   */\n  shr\n    /* \"#utility.yul\":3309:3346   */\n  swap1\n  pop\n    /* \"#utility.yul\":3236:3353   */\n  swap3\n  swap2\n  pop\n  pop\n  jump\t// out\n    /* \"#utility.yul\":3359:3528   */\ntag_43:\n    /* \"#utility.yul\":3403:3409   */\n  0x00\n    /* \"#utility.yul\":3436:3487   */\n  tag_101\n    /* \"#utility.yul\":3484:3485   */\n  0x00\n    /* \"#utility.yul\":3480:3486   */\n  not\n    /* \"#utility.yul\":3472:3477   */\n  dup5\n    /* \"#utility.yul\":3469:3470   */\n  0x08\n    /* \"#utility.yul\":3465:3478   */\n  mul\n    /* \"#utility.yul\":3436:3487   */\n  tag_42\n  jump\t// in\ntag_101:\n    /* \"#utility.yul\":3432:3488   */\n  not\n    /* \"#utility.yul\":3517:3521   */\n  dup1\n    /* \"#utility.yul\":3511:3515   */\n  dup4\n    /* \"#utility.yul\":3507:3522   */\n  and\n    /* \"#utility.yul\":3497:3522   */\n  swap2\n  pop\n    /* \"#utility.yul\":3410:3528   */\n  pop\n    /* \"#utility.yul\":3359:3528   */\n  swap3\n  swap2\n  pop\n  pop\n  jump\t// out\n    /* \"#utility.yul\":3533:3828   */\ntag_44:\n    /* \"#utility.yul\":3609:3613   */\n  0x00\n    /* \"#utility.yul\":3755:3784   */\n  tag_103\n    /* \"#utility.yul\":3780:3783   */\n  dup4\n    /* \"#utility.yul\":3774:3778   */\n  dup4\n    /* \"#utility.yul\":3755:3784   */\n  tag_43\n  jump\t// in\ntag_103:\n    /* \"#utility.yul\":3747:3784   */\n  swap2\n  pop\n    /* \"#utility.yul\":3817:3820   */\n  dup3\n    /* \"#utility.yul\":3814:3815   */\n  0x02\n    /* \"#utility.yul\":3810:3821   */\n  mul\n    /* \"#utility.yul\":3804:3808   */\n  dup3\n    /* \"#utility.yul\":3801:3822   */\n  or\n    /* \"#utility.yul\":3793:3822   */\n  swap1\n  pop\n    /* \"#utility.yul\":3533:3828   */\n  swap3\n  swap2\n  pop\n  pop\n  jump\t// out\n    /* \"#utility.yul\":3833:5228   */\ntag_2:\n    /* \"#utility.yul\":3950:3987   */\n  tag_105\n    /* \"#utility.yul\":3983:3986   */\n  dup3\n    /* \"#utility.yul\":3950:3987   */\n  tag_25\n  jump\t// in\ntag_105:\n    /* \"#utility.yul\":4052:4070   */\n  0xffffffffffffffff\n    /* \"#utility.yul\":4044:4050   */\n  dup2\n    /* \"#utility.yul\":4041:4071   */\n  gt\n    /* \"#utility.yul\":4038:4094   */\n  iszero\n  tag_106\n  jumpi\n    /* \"#utility.yul\":4074:4092   */\n  tag_107\n  tag_26\n  jump\t// in\ntag_107:\n    /* \"#utility.yul\":4038:4094   */\ntag_106:\n    /* \"#utility.yul\":4118:4156   */\n  tag_108\n    /* \"#utility.yul\":4150:4154   */\n  dup3\n    /* \"#utility.yul\":4144:4155   */\n  sload\n    /* \"#utility.yul\":4118:4156   */\n  tag_28\n  jump\t// in\ntag_108:\n    /* \"#utility.yul\":4203:4270   */\n  tag_109\n    /* \"#utility.yul\":4263:4269   */\n  dup3\n    /* \"#utility.yul\":4255:4261   */\n  dup3\n    /* \"#utility.yul\":4249:4253   */\n  dup6\n    /* \"#utility.yul\":4203:4270   */\n  tag_41\n  jump\t// in\ntag_109:\n    /* \"#utility.yul\":4297:4298   */\n  0x00\n    /* \"#utility.yul\":4321:4325   */\n  0x20\n    /* \"#utility.yul\":4308:4325   */\n  swap1\n  pop\n    /* \"#utility.yul\":4353:4355   */\n  0x1f\n    /* \"#utility.yul\":4345:4351   */\n  dup4\n    /* \"#utility.yul\":4342:4356   */\n  gt\n    /* \"#utility.yul\":4370:4371   */\n  0x01\n    /* \"#utility.yul\":4365:4983   */\n  dup2\n  eq\n  tag_111\n  jumpi\n    /* \"#utility.yul\":5027:5028   */\n  0x00\n    /* \"#utility.yul\":5044:5050   */\n  dup5\n    /* \"#utility.yul\":5041:5118   */\n  iszero\n  tag_112\n  jumpi\n    /* \"#utility.yul\":5093:5102   */\n  dup3\n    /* \"#utility.yul\":5088:5091   */\n  dup8\n    /* \"#utility.yul\":5084:5103   */\n  add\n    /* \"#utility.yul\":5078:5104   */\n  mload\n    /* \"#utility.yul\":5069:5104   */\n  swap1\n  pop\n    /* \"#utility.yul\":5041:5118   */\ntag_112:\n    /* \"#utility.yul\":5144:5211   */\n  tag_113\n    /* \"#utility.yul\":5204:5210   */\n  dup6\n    /* \"#utility.yul\":5197:5202   */\n  dup3\n    /* \"#utility.yul\":5144:5211   */\n  tag_44\n  jump\t// in\ntag_113:\n    /* \"#utility.yul\":5138:5142   */\n  dup7\n    /* \"#utility.yul\":5131:5212   */\n  sstore\n    /* \"#utility.yul\":5000:5222   */\n  pop\n    /* \"#utility.yul\":4335:5222   */\n  jump(tag_110)\n    /* \"#utility.yul\":4365:4983   */\ntag_111:\n    /* \"#utility.yul\":4417:4421   */\n  0x1f\n    /* \"#utility.yul\":4413:4422   */\n  not\n    /* \"#utility.yul\":4405:4411   */\n  dup5\n    /* \"#utility.yul\":4401:4423   */\n  and\n    /* \"#utility.yul\":4451:4488   */\n  tag_114\n    /* \"#utility.yul\":4483:4487   */\n  dup7\n    /* \"#utility.yul\":4451:4488   */\n  tag_29\n  jump\t// in\ntag_114:\n    /* \"#utility.yul\":4510:4511   */\n  0x00\n    /* \"#utility.yul\":4524:4732   */\ntag_115:\n    /* \"#utility.yul\":4538:4545   */\n  dup3\n    /* \"#utility.yul\":4535:4536   */\n  dup2\n    /* \"#utility.yul\":4532:4546   */\n  lt\n    /* \"#utility.yul\":4524:4732   */\n  iszero\n  tag_117\n  jumpi\n    /* \"#utility.yul\":4617:4626   */\n  dup5\n    /* \"#utility.yul\":4612:4615   */\n  dup10\n    /* \"#utility.yul\":4608:4627   */\n  add\n    /* \"#utility.yul\":4602:4628   */\n  mload\n    /* \"#utility.yul\":4594:4600   */\n  dup3\n    /* \"#utility.yul\":4587:4629   */\n  sstore\n    /* \"#utility.yul\":4668:4669   */\n  0x01\n    /* \"#utility.yul\":4660:4666   */\n  dup3\n    /* \"#utility.yul\":4656:4670   */\n  add\n    /* \"#utility.yul\":4646:4670   */\n  swap2\n  pop\n    /* \"#utility.yul\":4715:4717   */\n  0x20\n    /* \"#utility.yul\":4704:4713   */\n  dup6\n    /* \"#utility.yul\":4700:4718   */\n  add\n    /* \"#utility.yul\":4687:4718   */\n  swap5\n  pop\n    /* \"#utility.yul\":4561:4565   */\n  0x20\n    /* \"#utility.yul\":4558:4559   */\n  dup2\n    /* \"#utility.yul\":4554:4566   */\n  add\n    /* \"#utility.yul\":4549:4566   */\n  swap1\n  pop\n    /* \"#utility.yul\":4524:4732   */\n  jump(tag_115)\ntag_117:\n    /* \"#utility.yul\":4760:4766   */\n  dup7\n    /* \"#utility.yul\":4751:4758   */\n  dup4\n    /* \"#utility.yul\":4748:4767   */\n  lt\n    /* \"#utility.yul\":4745:4924   */\n  iszero\n  tag_118\n  jumpi\n    /* \"#utility.yul\":4818:4827   */\n  dup5\n    /* \"#utility.yul\":4813:4816   */\n  dup10\n    /* \"#utility.yul\":4809:4828   */\n  add\n    /* \"#utility.yul\":4803:4829   */\n  mload\n    /* \"#utility.yul\":4861:4909   */\n  tag_119\n    /* \"#utility.yul\":4903:4907   */\n  0x1f\n    /* \"#utility.yul\":4895:4901   */\n  dup10\n    /* \"#utility.yul\":4891:4908   */\n  and\n    /* \"#utility.yul\":4880:4889   */\n  dup3\n    /* \"#utility.yul\":4861:4909   */\n  tag_43\n  jump\t// in\ntag_119:\n    /* \"#utility.yul\":4853:4859   */\n  dup4\n    /* \"#utility.yul\":4846:4910   */\n  sstore\n    /* \"#utility.yul\":4768:4924   */\n  pop\n    /* \"#utility.yul\":4745:4924   */\ntag_118:\n    /* \"#utility.yul\":4970:4971   */\n  0x01\n    /* \"#utility.yul\":4966:4967   */\n  0x02\n    /* \"#utility.yul\":4958:4964   */\n  dup9\n    /* \"#utility.yul\":4954:4968   */\n  mul\n    /* \"#utility.yul\":4950:4972   */\n  add\n    /* \"#utility.yul\":4944:4948   */\n  dup9\n    /* \"#utility.yul\":4937:4973   */\n  sstore\n    /* \"#utility.yul\":4372:4983   */\n  pop\n  pop\n  pop\n    /* \"#utility.yul\":4335:5222   */\ntag_110:\n  pop\n    /* \"#utility.yul\":3925:5228   */\n  pop\n  pop\n  pop\n    /* \"#utility.yul\":3833:5228   */\n  pop\n  pop\n  jump\t// out\n    /* \"#utility.yul\":5315:5432   */\ntag_46:\n    /* \"#utility.yul\":5424:5425   */\n  0x00\n    /* \"#utility.yul\":5421:5422   */\n  0x00\n    /* \"#utility.yul\":5414:5426   */\n  revert\n    /* \"#utility.yul\":5561:5683   */\ntag_48:\n    /* \"#utility.yul\":5634:5658   */\n  tag_124\n    /* \"#utility.yul\":5652:5657   */\n  dup2\n    /* \"#utility.yul\":5634:5658   */\n  tag_33\n  jump\t// in\ntag_124:\n    /* \"#utility.yul\":5627:5632   */\n  dup2\n    /* \"#utility.yul\":5624:5659   */\n  eq\n    /* \"#utility.yul\":5614:5677   */\n  tag_125\n  jumpi\n    /* \"#utility.yul\":5673:5674   */\n  0x00\n    /* \"#utility.yul\":5670:5671   */\n  0x00\n    /* \"#utility.yul\":5663:5675   */\n  revert\n    /* \"#utility.yul\":5614:5677   */\ntag_125:\n    /* \"#utility.yul\":5561:5683   */\n  pop\n  jump\t// out\n    /* \"#utility.yul\":5689:5832   */\ntag_49:\n    /* \"#utility.yul\":5746:5751   */\n  0x00\n    /* \"#utility.yul\":5777:5783   */\n  dup2\n    /* \"#utility.yul\":5771:5784   */\n  mload\n    /* \"#utility.yul\":5762:5784   */\n  swap1\n  pop\n    /* \"#utility.yul\":5793:5826   */\n  tag_127\n    /* \"#utility.yul\":5820:5825   */\n  dup2\n    /* \"#utility.yul\":5793:5826   */\n  tag_48\n  jump\t// in\ntag_127:\n    /* \"#utility.yul\":5689:5832   */\n  swap3\n  swap2\n  pop\n  pop\n  jump\t// out\n    /* \"#utility.yul\":5838:6189   */\ntag_6:\n    /* \"#utility.yul\":5908:5914   */\n  0x00\n    /* \"#utility.yul\":5957:5959   */\n  0x20\n    /* \"#utility.yul\":5945:5954   */\n  dup3\n    /* \"#utility.yul\":5936:5943   */\n  dup5\n    /* \"#utility.yul\":5932:5955   */\n  sub\n    /* \"#utility.yul\":5928:5960   */\n  slt\n    /* \"#utility.yul\":5925:6044   */\n  iszero\n  tag_129\n  jumpi\n    /* \"#utility.yul\":5963:6042   */\n  tag_130\n  tag_46\n  jump\t// in\ntag_130:\n    /* \"#utility.yul\":5925:6044   */\ntag_129:\n    /* \"#utility.yul\":6083:6084   */\n  0x00\n    /* \"#utility.yul\":6108:6172   */\n  tag_131\n    /* \"#utility.yul\":6164:6171   */\n  dup5\n    /* \"#utility.yul\":6155:6161   */\n  dup3\n    /* \"#utility.yul\":6144:6153   */\n  dup6\n    /* \"#utility.yul\":6140:6162   */\n  add\n    /* \"#utility.yul\":6108:6172   */\n  tag_49\n  jump\t// in\ntag_131:\n    /* \"#utility.yul\":6098:6172   */\n  swap2\n  pop\n    /* \"#utility.yul\":6054:6182   */\n  pop\n    /* \"#utility.yul\":5838:6189   */\n  swap3\n  swap2\n  pop\n  pop\n  jump\t// out\n    /* \"#utility.yul\":6195:6375   */\ntag_50:\n    /* \"#utility.yul\":6243:6320   */\n  0x4e487b7100000000000000000000000000000000000000000000000000000000\n    /* \"#utility.yul\":6240:6241   */\n  0x00\n    /* \"#utility.yul\":6233:6321   */\n  mstore\n    /* \"#utility.yul\":6340:6344   */\n  0x11\n    /* \"#utility.yul\":6337:6338   */\n  0x04\n    /* \"#utility.yul\":6330:6345   */\n  mstore\n    /* \"#utility.yul\":6364:6368   */\n  0x24\n    /* \"#utility.yul\":6361:6362   */\n  0x00\n    /* \"#utility.yul\":6354:6369   */\n  revert\n    /* \"#utility.yul\":6381:6483   */\ntag_51:\n    /* \"#utility.yul\":6423:6431   */\n  0x00\n    /* \"#utility.yul\":6470:6475   */\n  dup2\n    /* \"#utility.yul\":6467:6468   */\n  0x01\n    /* \"#utility.yul\":6463:6476   */\n  shr\n    /* \"#utility.yul\":6442:6476   */\n  swap1\n  pop\n    /* \"#utility.yul\":6381:6483   */\n  swap2\n  swap1\n  pop\n  jump\t// out\n    /* \"#utility.yul\":6489:7337   */\ntag_52:\n    /* \"#utility.yul\":6550:6555   */\n  0x00\n    /* \"#utility.yul\":6557:6561   */\n  0x00\n    /* \"#utility.yul\":6581:6587   */\n  dup3\n    /* \"#utility.yul\":6572:6587   */\n  swap2\n  pop\n    /* \"#utility.yul\":6605:6610   */\n  dup4\n    /* \"#utility.yul\":6596:6610   */\n  swap1\n  pop\n    /* \"#utility.yul\":6619:7331   */\ntag_135:\n    /* \"#utility.yul\":6640:6641   */\n  0x01\n    /* \"#utility.yul\":6630:6638   */\n  dup6\n    /* \"#utility.yul\":6627:6642   */\n  gt\n    /* \"#utility.yul\":6619:7331   */\n  iszero\n  tag_137\n  jumpi\n    /* \"#utility.yul\":6735:6739   */\n  dup1\n    /* \"#utility.yul\":6730:6733   */\n  dup7\n    /* \"#utility.yul\":6726:6740   */\n  div\n    /* \"#utility.yul\":6720:6724   */\n  dup2\n    /* \"#utility.yul\":6717:6741   */\n  gt\n    /* \"#utility.yul\":6714:6764   */\n  iszero\n  tag_138\n  jumpi\n    /* \"#utility.yul\":6744:6762   */\n  tag_139\n  tag_50\n  jump\t// in\ntag_139:\n    /* \"#utility.yul\":6714:6764   */\ntag_138:\n    /* \"#utility.yul\":6794:6795   */\n  0x01\n    /* \"#utility.yul\":6784:6792   */\n  dup6\n    /* \"#utility.yul\":6780:6796   */\n  and\n    /* \"#utility.yul\":6777:7228   */\n  iszero\n  tag_140\n  jumpi\n    /* \"#utility.yul\":7209:7213   */\n  dup1\n    /* \"#utility.yul\":7202:7207   */\n  dup3\n    /* \"#utility.yul\":7198:7214   */\n  mul\n    /* \"#utility.yul\":7189:7214   */\n  swap2\n  pop\n    /* \"#utility.yul\":6777:7228   */\ntag_140:\n    /* \"#utility.yul\":7259:7263   */\n  dup1\n    /* \"#utility.yul\":7253:7257   */\n  dup2\n    /* \"#utility.yul\":7249:7264   */\n  mul\n    /* \"#utility.yul\":7241:7264   */\n  swap1\n  pop\n    /* \"#utility.yul\":7289:7321   */\n  tag_141\n    /* \"#utility.yul\":7312:7320   */\n  dup6\n    /* \"#utility.yul\":7289:7321   */\n  tag_51\n  jump\t// in\ntag_141:\n    /* \"#utility.yul\":7277:7321   */\n  swap5\n  pop\n    /* \"#utility.yul\":6619:7331   */\n  jump(tag_135)\ntag_137:\n    /* \"#utility.yul\":6489:7337   */\n  swap5\n  pop\n  swap5\n  swap3\n  pop\n  pop\n  pop\n  jump\t// out\n    /* \"#utility.yul\":7343:8416   */\ntag_53:\n    /* \"#utility.yul\":7397:7402   */\n  0x00\n    /* \"#utility.yul\":7588:7596   */\n  dup3\n    /* \"#utility.yul\":7578:7618   */\n  tag_143\n  jumpi\n    /* \"#utility.yul\":7609:7610   */\n  0x01\n    /* \"#utility.yul\":7600:7610   */\n  swap1\n  pop\n    /* \"#utility.yul\":7611:7616   */\n  jump(tag_142)\n    /* \"#utility.yul\":7578:7618   */\ntag_143:\n    /* \"#utility.yul\":7637:7641   */\n  dup2\n    /* \"#utility.yul\":7627:7663   */\n  tag_144\n  jumpi\n    /* \"#utility.yul\":7654:7655   */\n  0x00\n    /* \"#utility.yul\":7645:7655   */\n  swap1\n  pop\n    /* \"#utility.yul\":7656:7661   */\n  jump(tag_142)\n    /* \"#utility.yul\":7627:7663   */\ntag_144:\n    /* \"#utility.yul\":7723:7727   */\n  dup2\n    /* \"#utility.yul\":7771:7772   */\n  0x01\n    /* \"#utility.yul\":7766:7793   */\n  dup2\n  eq\n  tag_146\n  jumpi\n    /* \"#utility.yul\":7807:7808   */\n  0x02\n    /* \"#utility.yul\":7802:7993   */\n  dup2\n  eq\n  tag_147\n  jumpi\n    /* \"#utility.yul\":7716:7993   */\n  jump(tag_145)\n    /* \"#utility.yul\":7766:7793   */\ntag_146:\n    /* \"#utility.yul\":7784:7785   */\n  0x01\n    /* \"#utility.yul\":7775:7785   */\n  swap2\n  pop\n    /* \"#utility.yul\":7786:7791   */\n  pop\n  jump(tag_142)\n    /* \"#utility.yul\":7802:7993   */\ntag_147:\n    /* \"#utility.yul\":7847:7850   */\n  0xff\n    /* \"#utility.yul\":7837:7845   */\n  dup5\n    /* \"#utility.yul\":7834:7851   */\n  gt\n    /* \"#utility.yul\":7831:7874   */\n  iszero\n  tag_148\n  jumpi\n    /* \"#utility.yul\":7854:7872   */\n  tag_149\n  tag_50\n  jump\t// in\ntag_149:\n    /* \"#utility.yul\":7831:7874   */\ntag_148:\n    /* \"#utility.yul\":7903:7911   */\n  dup4\n    /* \"#utility.yul\":7900:7901   */\n  0x02\n    /* \"#utility.yul\":7896:7912   */\n  exp\n    /* \"#utility.yul\":7887:7912   */\n  swap2\n  pop\n    /* \"#utility.yul\":7938:7941   */\n  dup5\n    /* \"#utility.yul\":7931:7936   */\n  dup3\n    /* \"#utility.yul\":7928:7942   */\n  gt\n    /* \"#utility.yul\":7925:7965   */\n  iszero\n  tag_150\n  jumpi\n    /* \"#utility.yul\":7945:7963   */\n  tag_151\n  tag_50\n  jump\t// in\ntag_151:\n    /* \"#utility.yul\":7925:7965   */\ntag_150:\n    /* \"#utility.yul\":7978:7983   */\n  pop\n  jump(tag_142)\n    /* \"#utility.yul\":7716:7993   */\ntag_145:\n  pop\n    /* \"#utility.yul\":8102:8104   */\n  0x20\n    /* \"#utility.yul\":8092:8100   */\n  dup4\n    /* \"#utility.yul\":8089:8105   */\n  lt\n    /* \"#utility.yul\":8083:8086   */\n  0x0133\n    /* \"#utility.yul\":8077:8081   */\n  dup4\n    /* \"#utility.yul\":8074:8087   */\n  lt\n    /* \"#utility.yul\":8070:8106   */\n  and\n    /* \"#utility.yul\":8052:8054   */\n  0x4e\n    /* \"#utility.yul\":8042:8050   */\n  dup5\n    /* \"#utility.yul\":8039:8055   */\n  lt\n    /* \"#utility.yul\":8034:8036   */\n  0x0b\n    /* \"#utility.yul\":8028:8032   */\n  dup5\n    /* \"#utility.yul\":8025:8037   */\n  lt\n    /* \"#utility.yul\":8021:8056   */\n  and\n    /* \"#utility.yul\":8005:8116   */\n  or\n    /* \"#utility.yul\":8002:8248   */\n  iszero\n  tag_152\n  jumpi\n    /* \"#utility.yul\":8158:8166   */\n  dup3\n    /* \"#utility.yul\":8152:8156   */\n  dup3\n    /* \"#utility.yul\":8148:8167   */\n  exp\n    /* \"#utility.yul\":8139:8167   */\n  swap1\n  pop\n    /* \"#utility.yul\":8193:8196   */\n  dup4\n    /* \"#utility.yul\":8186:8191   */\n  dup2\n    /* \"#utility.yul\":8183:8197   */\n  gt\n    /* \"#utility.yul\":8180:8220   */\n  iszero\n  tag_153\n  jumpi\n    /* \"#utility.yul\":8200:8218   */\n  tag_154\n  tag_50\n  jump\t// in\ntag_154:\n    /* \"#utility.yul\":8180:8220   */\ntag_153:\n    /* \"#utility.yul\":8233:8238   */\n  jump(tag_142)\n    /* \"#utility.yul\":8002:8248   */\ntag_152:\n    /* \"#utility.yul\":8273:8315   */\n  tag_155\n    /* \"#utility.yul\":8311:8314   */\n  dup5\n    /* \"#utility.yul\":8301:8309   */\n  dup5\n    /* \"#utility.yul\":8295:8299   */\n  dup5\n    /* \"#utility.yul\":8292:8293   */\n  0x01\n    /* \"#utility.yul\":8273:8315   */\n  tag_52\n  jump\t// in\ntag_155:\n    /* \"#utility.yul\":8258:8315   */\n  swap3\n  pop\n  swap1\n  pop\n    /* \"#utility.yul\":8347:8351   */\n  dup2\n    /* \"#utility.yul\":8342:8345   */\n  dup5\n    /* \"#utility.yul\":8338:8352   */\n  div\n    /* \"#utility.yul\":8331:8336   */\n  dup2\n    /* \"#utility.yul\":8328:8353   */\n  gt\n    /* \"#utility.yul\":8325:8376   */\n  iszero\n  tag_156\n  jumpi\n    /* \"#utility.yul\":8356:8374   */\n  tag_157\n  tag_50\n  jump\t// in\ntag_157:\n    /* \"#utility.yul\":8325:8376   */\ntag_156:\n    /* \"#utility.yul\":8405:8409   */\n  dup2\n    /* \"#utility.yul\":8398:8403   */\n  dup2\n    /* \"#utility.yul\":8394:8410   */\n  mul\n    /* \"#utility.yul\":8385:8410   */\n  swap1\n  pop\n    /* \"#utility.yul\":7343:8416   */\ntag_142:\n  swap4\n  swap3\n  pop\n  pop\n  pop\n  jump\t// out\n    /* \"#utility.yul\":8422:8707   */\ntag_11:\n    /* \"#utility.yul\":8482:8487   */\n  0x00\n    /* \"#utility.yul\":8506:8529   */\n  tag_159\n    /* \"#utility.yul\":8524:8528   */\n  dup3\n    /* \"#utility.yul\":8506:8529   */\n  tag_33\n  jump\t// in\ntag_159:\n    /* \"#utility.yul\":8498:8529   */\n  swap2\n  pop\n    /* \"#utility.yul\":8550:8577   */\n  tag_160\n    /* \"#utility.yul\":8568:8576   */\n  dup4\n    /* \"#utility.yul\":8550:8577   */\n  tag_33\n  jump\t// in\ntag_160:\n    /* \"#utility.yul\":8538:8577   */\n  swap3\n  pop\n    /* \"#utility.yul\":8596:8700   */\n  tag_161\n    /* \"#utility.yul\":8633:8699   */\n  0xffffffffffffffffffffffffffffffffffffffffffffffffffffffffffffffff\n    /* \"#utility.yul\":8623:8631   */\n  dup5\n    /* \"#utility.yul\":8617:8621   */\n  dup5\n    /* \"#utility.yul\":8596:8700   */\n  tag_53\n  jump\t// in\ntag_161:\n    /* \"#utility.yul\":8587:8700   */\n  swap1\n  pop\n    /* \"#utility.yul\":8422:8707   */\n  swap3\n  swap2\n  pop\n  pop\n  jump\t// out\n    /* \"#utility.yul\":8713:9123   */\ntag_13:\n    /* \"#utility.yul\":8753:8760   */\n  0x00\n    /* \"#utility.yul\":8776:8796   */\n  tag_163\n    /* \"#utility.yul\":8794:8795   */\n  dup3\n    /* \"#utility.yul\":8776:8796   */\n  tag_33\n  jump\t// in\ntag_163:\n    /* \"#utility.yul\":8771:8796   */\n  swap2\n  pop\n    /* \"#utility.yul\":8810:8830   */\n  tag_164\n    /* \"#utility.yul\":8828:8829   */\n  dup4\n    /* \"#utility.yul\":8810:8830   */\n  tag_33\n  jump\t// in\ntag_164:\n    /* \"#utility.yul\":8805:8830   */\n  swap3\n  pop\n    /* \"#utility.yul\":8865:8866   */\n  dup3\n    /* \"#utility.yul\":8862:8863   */\n  dup3\n    /* \"#utility.yul\":8858:8867   */\n  mul\n    /* \"#utility.yul\":8887:8917   */\n  tag_165\n    /* \"#utility.yul\":8905:8916   */\n  dup2\n    /* \"#utility.yul\":8887:8917   */\n  tag_33\n  jump\t// in\ntag_165:\n    /* \"#utility.yul\":8876:8917   */\n  swap2\n  pop\n    /* \"#utility.yul\":9066:9067   */\n  dup3\n    /* \"#utility.yul\":9057:9064   */\n  dup3\n    /* \"#utility.yul\":9053:9068   */\n  div\n    /* \"#utility.yul\":9050:9051   */\n  dup5\n    /* \"#utility.yul\":9047:9069   */\n  eq\n    /* \"#utility.yul\":9027:9028   */\n  dup4\n    /* \"#utility.yul\":9020:9029   */\n  iszero\n    /* \"#utility.yul\":9000:9083   */\n  or\n    /* \"#utility.yul\":8977:9116   */\n  tag_166\n  jumpi\n    /* \"#utility.yul\":9096:9114   */\n  tag_167\n  tag_50\n  jump\t// in\ntag_167:\n    /* \"#utility.yul\":8977:9116   */\ntag_166:\n    /* \"#utility.yul\":8761:9123   */\n  pop\n    /* \"#utility.yul\":8713:9123   */\n  swap3\n  swap2\n  pop\n  pop\n  jump\t// out\n    /* \"#utility.yul\":9129:9298   */\ntag_54:\n    /* \"#utility.yul\":9213:9224   */\n  0x00\n    /* \"#utility.yul\":9247:9253   */\n  dup3\n    /* \"#utility.yul\":9242:9245   */\n  dup3\n    /* \"#utility.yul\":9235:9254   */\n  mstore\n    /* \"#utility.yul\":9287:9291   */\n  0x20\n    /* \"#utility.yul\":9282:9285   */\n  dup3\n    /* \"#utility.yul\":9278:9292   */\n  add\n    /* \"#utility.yul\":9263:9292   */\n  swap1\n  pop\n    /* \"#utility.yul\":9129:9298   */\n  swap3\n  swap2\n  pop\n  pop\n  jump\t// out\n    /* \"#utility.yul\":9304:9478   */\ntag_55:\n    /* \"#utility.yul\":9444:9470   */\n  0x5a65726f2061646472657373206e6f7420616c6c6f7765640000000000000000\n    /* \"#utility.yul\":9440:9441   */\n  0x00\n    /* \"#utility.yul\":9432:9438   */\n  dup3\n    /* \"#utility.yul\":9428:9442   */\n  add\n    /* \"#utility.yul\":9421:9471   */\n  mstore\n    /* \"#utility.yul\":9304:9478   */\n  pop\n  jump\t// out\n    /* \"#utility.yul\":9484:9850   */\ntag_56:\n    /* \"#utility.yul\":9626:9629   */\n  0x00\n    /* \"#utility.yul\":9647:9714   */\n  tag_171\n    /* \"#utility.yul\":9711:9713   */\n  0x18\n    /* \"#utility.yul\":9706:9709   */\n  dup4\n    /* \"#utility.yul\":9647:9714   */\n  tag_54\n  jump\t// in\ntag_171:\n    /* \"#utility.yul\":9640:9714   */\n  swap2\n  pop\n    /* \"#utility.yul\":9723:9816   */\n  tag_172\n    /* \"#utility.yul\":9812:9815   */\n  dup3\n    /* \"#utility.yul\":9723:9816   */\n  tag_55\n  jump\t// in\ntag_172:\n    /* \"#utility.yul\":9841:9843   */\n  0x20\n    /* \"#utility.yul\":9836:9839   */\n  dup3\n    /* \"#utility.yul\":9832:9844   */\n  add\n    /* \"#utility.yul\":9825:9844   */\n  swap1\n  pop\n    /* \"#utility.yul\":9484:9850   */\n  swap2\n  swap1\n  pop\n  jump\t// out\n    /* \"#utility.yul\":9856:10275   */\ntag_19:\n    /* \"#utility.yul\":10022:10026   */\n  0x00\n    /* \"#utility.yul\":10060:10062   */\n  0x20\n    /* \"#utility.yul\":10049:10058   */\n  dup3\n    /* \"#utility.yul\":10045:10063   */\n  add\n    /* \"#utility.yul\":10037:10063   */\n  swap1\n  pop\n    /* \"#utility.yul\":10109:10118   */\n  dup2\n    /* \"#utility.yul\":10103:10107   */\n  dup2\n    /* \"#utility.yul\":10099:10119   */\n  sub\n    /* \"#utility.yul\":10095:10096   */\n  0x00\n    /* \"#utility.yul\":10084:10093   */\n  dup4\n    /* \"#utility.yul\":10080:10097   */\n  add\n    /* \"#utility.yul\":10073:10120   */\n  mstore\n    /* \"#utility.yul\":10137:10268   */\n  tag_174\n    /* \"#utility.yul\":10263:10267   */\n  dup2\n    /* \"#utility.yul\":10137:10268   */\n  tag_56\n  jump\t// in\ntag_174:\n    /* \"#utility.yul\":10129:10268   */\n  swap1\n  pop\n    /* \"#utility.yul\":9856:10275   */\n  swap2\n  swap1\n  pop\n  jump\t// out\n    /* \"#utility.yul\":10281:10472   */\ntag_21:\n    /* \"#utility.yul\":10321:10324   */\n  0x00\n    /* \"#utility.yul\":10340:10360   */\n  tag_176\n    /* \"#utility.yul\":10358:10359   */\n  dup3\n    /* \"#utility.yul\":10340:10360   */\n  tag_33\n  jump\t// in\ntag_176:\n    /* \"#utility.yul\":10335:10360   */\n  swap2\n  pop\n    /* \"#utility.yul\":10374:10394   */\n  tag_177\n    /* \"#utility.yul\":10392:10393   */\n  dup4\n    /* \"#utility.yul\":10374:10394   */\n  tag_33\n  jump\t// in\ntag_177:\n    /* \"#utility.yul\":10369:10394   */\n  swap3\n  pop\n    /* \"#utility.yul\":10417:10418   */\n  dup3\n    /* \"#utility.yul\":10414:10415   */\n  dup3\n    /* \"#utility.yul\":10410:10419   */\n  add\n    /* \"#utility.yul\":10403:10419   */\n  swap1\n  pop\n    /* \"#utility.yul\":10438:10441   */\n  dup1\n    /* \"#utility.yul\":10435:10436   */\n  dup3\n    /* \"#utility.yul\":10432:10442   */\n  gt\n    /* \"#utility.yul\":10429:10465   */\n  iszero\n  tag_178\n  jumpi\n    /* \"#utility.yul\":10445:10463   */\n  tag_179\n  tag_50\n  jump\t// in\ntag_179:\n    /* \"#utility.yul\":10429:10465   */\ntag_178:\n    /* \"#utility.yul\":10281:10472   */\n  swap3\n  swap2\n  pop\n  pop\n  jump\t// out\n    /* \"#utility.yul\":10478:10596   */\ntag_57:\n    /* \"#utility.yul\":10565:10589   */\n  tag_181\n    /* \"#utility.yul\":10583:10588   */\n  dup2\n    /* \"#utility.yul\":10565:10589   */\n  tag_33\n  jump\t// in\ntag_181:\n    /* \"#utility.yul\":10560:10563   */\n  dup3\n    /* \"#utility.yul\":10553:10590   */\n  mstore\n    /* \"#utility.yul\":10478:10596   */\n  pop\n  pop\n  jump\t// out\n    /* \"#utility.yul\":10602:10824   */\ntag_24:\n    /* \"#utility.yul\":10695:10699   */\n  0x00\n    /* \"#utility.yul\":10733:10735   */\n  0x20\n    /* \"#utility.yul\":10722:10731   */\n  dup3\n    /* \"#utility.yul\":10718:10736   */\n  add\n    /* \"#utility.yul\":10710:10736   */\n  swap1\n  pop\n    /* \"#utility.yul\":10746:10817   */\n  tag_183\n    /* \"#utility.yul\":10814:10815   */\n  0x00\n    /* \"#utility.yul\":10803:10812   */\n  dup4\n    /* \"#utility.yul\":10799:10816   */\n  add\n    /* \"#utility.yul\":10790:10796   */\n  dup5\n    /* \"#utility.yul\":10746:10817   */\n  tag_57\n  jump\t// in\ntag_183:\n    /* \"#utility.yul\":10602:10824   */\n  swap3\n  swap2\n  pop\n  pop\n  jump\t// out\n    /* \"contracts/AenzbiToken.sol\":437:3006  contract AenzbiToken is IERC20 {... */\ntag_15:\n  dataSize(sub_0)\n  dup1\n  dataOffset(sub_0)\n  0x00\n  codecopy\n  0x00\n  return\nstop\n\nsub_0: assembly {\n        /* \"contracts/AenzbiToken.sol\":437:3006  contract AenzbiToken is IERC20 {... */\n      mstore(0x40, 0x80)\n      jumpi(tag_1, lt(calldatasize, 0x04))\n      shr(0xe0, calldataload(0x00))\n      dup1\n      0x7ff9b596\n      gt\n      tag_15\n      jumpi\n      dup1\n      0x7ff9b596\n      eq\n      tag_9\n      jumpi\n      dup1\n      0x8da5cb5b\n      eq\n      tag_10\n      jumpi\n      dup1\n      0x95d89b41\n      eq\n      tag_11\n      jumpi\n      dup1\n      0xa9059cbb\n      eq\n      tag_12\n      jumpi\n      dup1\n      0xd0febe4c\n      eq\n      tag_13\n      jumpi\n      dup1\n      0xe086e5ec\n      eq\n      tag_14\n      jumpi\n      jump(tag_2)\n    tag_15:\n      dup1\n      0x06fdde03\n      eq\n      tag_3\n      jumpi\n      dup1\n      0x18160ddd\n      eq\n      tag_4\n      jumpi\n      dup1\n      0x313ce567\n      eq\n      tag_5\n      jumpi\n      dup1\n      0x4064a6ee\n      eq\n      tag_6\n      jumpi\n      dup1\n      0x6a61e5fc\n      eq\n      tag_7\n      jumpi\n      dup1\n      0x70a08231\n      eq\n      tag_8\n      jumpi\n      jump(tag_2)\n    tag_1:\n      jumpi(tag_2, calldatasize)\n        /* \"contracts/AenzbiToken.sol\":2986:2997  buyTokens() */\n      tag_18\n        /* \"contracts/AenzbiToken.sol\":2986:2995  buyTokens */\n      tag_19\n        /* \"contracts/AenzbiToken.sol\":2986:2997  buyTokens() */\n      jump\t// in\n    tag_18:\n        /* \"contracts/AenzbiToken.sol\":437:3006  contract AenzbiToken is IERC20 {... */\n      stop\n    tag_2:\n      revert(0x00, 0x00)\n        /* \"contracts/AenzbiToken.sol\":474:509  string public name = \"Aenzbi Token\" */\n    tag_3:\n      callvalue\n      dup1\n      iszero\n      tag_20\n      jumpi\n      revert(0x00, 0x00)\n    tag_20:\n      pop\n      tag_21\n      tag_22\n      jump\t// in\n    tag_21:\n      mload(0x40)\n      tag_23\n      swap2\n      swap1\n      tag_24\n      jump\t// in\n    tag_23:\n      mload(0x40)\n      dup1\n      swap2\n      sub\n      swap1\n      return\n        /* \"contracts/AenzbiToken.sol\":1189:1287  function totalSupply() public view override returns (uint256) {... */\n    tag_4:\n      callvalue\n      dup1\n      iszero\n      tag_25\n      jumpi\n      revert(0x00, 0x00)\n    tag_25:\n      pop\n      tag_26\n      tag_27\n      jump\t// in\n    tag_26:\n      mload(0x40)\n      tag_28\n      swap2\n      swap1\n      tag_29\n      jump\t// in\n    tag_28:\n      mload(0x40)\n      dup1\n      swap2\n      sub\n      swap1\n      return\n        /* \"contracts/AenzbiToken.sol\":549:575  uint8 public decimals = 18 */\n    tag_5:\n      callvalue\n      dup1\n      iszero\n      tag_30\n      jumpi\n      revert(0x00, 0x00)\n    tag_30:\n      pop\n      tag_31\n      tag_32\n      jump\t// in\n    tag_31:\n      mload(0x40)\n      tag_33\n      swap2\n      swap1\n      tag_34\n      jump\t// in\n    tag_33:\n      mload(0x40)\n      dup1\n      swap2\n      sub\n      swap1\n      return\n        /* \"contracts/AenzbiToken.sol\":2154:2464  function payWithTokens(uint256 amount) public {... */\n    tag_6:\n      callvalue\n      dup1\n      iszero\n      tag_35\n      jumpi\n      revert(0x00, 0x00)\n    tag_35:\n      pop\n      tag_36\n      0x04\n      dup1\n      calldatasize\n      sub\n      dup2\n      add\n      swap1\n      tag_37\n      swap2\n      swap1\n      tag_38\n      jump\t// in\n    tag_37:\n      tag_39\n      jump\t// in\n    tag_36:\n      stop\n        /* \"contracts/AenzbiToken.sol\":2470:2572  function setTokenPrice(uint256 newPriceWei) public onlyOwner {... */\n    tag_7:\n      callvalue\n      dup1\n      iszero\n      tag_40\n      jumpi\n      revert(0x00, 0x00)\n    tag_40:\n      pop\n      tag_41\n      0x04\n      dup1\n      calldatasize\n      sub\n      dup2\n      add\n      swap1\n      tag_42\n      swap2\n      swap1\n      tag_38\n      jump\t// in\n    tag_42:\n      tag_43\n      jump\t// in\n    tag_41:\n      stop\n        /* \"contracts/AenzbiToken.sol\":1293:1410  function balanceOf(address account) public view override returns (uint256) {... */\n    tag_8:\n      callvalue\n      dup1\n      iszero\n      tag_44\n      jumpi\n      revert(0x00, 0x00)\n    tag_44:\n      pop\n      tag_45\n      0x04\n      dup1\n      calldatasize\n      sub\n      dup2\n      add\n      swap1\n      tag_46\n      swap2\n      swap1\n      tag_47\n      jump\t// in\n    tag_46:\n      tag_48\n      jump\t// in\n    tag_45:\n      mload(0x40)\n      tag_49\n      swap2\n      swap1\n      tag_29\n      jump\t// in\n    tag_49:\n      mload(0x40)\n      dup1\n      swap2\n      sub\n      swap1\n      return\n        /* \"contracts/AenzbiToken.sol\":641:676  uint256 public tokenPrice = 1 ether */\n    tag_9:\n      callvalue\n      dup1\n      iszero\n      tag_50\n      jumpi\n      revert(0x00, 0x00)\n    tag_50:\n      pop\n      tag_51\n      tag_52\n      jump\t// in\n    tag_51:\n      mload(0x40)\n      tag_53\n      swap2\n      swap1\n      tag_29\n      jump\t// in\n    tag_53:\n      mload(0x40)\n      dup1\n      swap2\n      sub\n      swap1\n      return\n        /* \"contracts/AenzbiToken.sol\":615:635  address public owner */\n    tag_10:\n      callvalue\n      dup1\n      iszero\n      tag_54\n      jumpi\n      revert(0x00, 0x00)\n    tag_54:\n      pop\n      tag_55\n      tag_56\n      jump\t// in\n    tag_55:\n      mload(0x40)\n      tag_57\n      swap2\n      swap1\n      tag_58\n      jump\t// in\n    tag_57:\n      mload(0x40)\n      dup1\n      swap2\n      sub\n      swap1\n      return\n        /* \"contracts/AenzbiToken.sol\":515:543  string public symbol = \"AZT\" */\n    tag_11:\n      callvalue\n      dup1\n      iszero\n      tag_59\n      jumpi\n      revert(0x00, 0x00)\n    tag_59:\n      pop\n      tag_60\n      tag_61\n      jump\t// in\n    tag_60:\n      mload(0x40)\n      tag_62\n      swap2\n      swap1\n      tag_24\n      jump\t// in\n    tag_62:\n      mload(0x40)\n      dup1\n      swap2\n      sub\n      swap1\n      return\n        /* \"contracts/AenzbiToken.sol\":1416:1734  function transfer(address recipient, uint256 amount) public override returns (bool) {... */\n    tag_12:\n      callvalue\n      dup1\n      iszero\n      tag_63\n      jumpi\n      revert(0x00, 0x00)\n    tag_63:\n      pop\n      tag_64\n      0x04\n      dup1\n      calldatasize\n      sub\n      dup2\n      add\n      swap1\n      tag_65\n      swap2\n      swap1\n      tag_66\n      jump\t// in\n    tag_65:\n      tag_67\n      jump\t// in\n    tag_64:\n      mload(0x40)\n      tag_68\n      swap2\n      swap1\n      tag_69\n      jump\t// in\n    tag_68:\n      mload(0x40)\n      dup1\n      swap2\n      sub\n      swap1\n      return\n        /* \"contracts/AenzbiToken.sol\":1740:2148  function buyTokens() public payable {... */\n    tag_13:\n      tag_70\n      tag_19\n      jump\t// in\n    tag_70:\n      stop\n        /* \"contracts/AenzbiToken.sol\":2578:2681  function withdrawETH() public onlyOwner {... */\n    tag_14:\n      callvalue\n      dup1\n      iszero\n      tag_71\n      jumpi\n      revert(0x00, 0x00)\n    tag_71:\n      pop\n      tag_72\n      tag_73\n      jump\t// in\n    tag_72:\n      stop\n        /* \"contracts/AenzbiToken.sol\":1740:2148  function buyTokens() public payable {... */\n    tag_19:\n        /* \"contracts/AenzbiToken.sol\":1806:1807  0 */\n      0x00\n        /* \"contracts/AenzbiToken.sol\":1794:1803  msg.value */\n      callvalue\n        /* \"contracts/AenzbiToken.sol\":1794:1807  msg.value > 0 */\n      gt\n        /* \"contracts/AenzbiToken.sol\":1786:1834  require(msg.value > 0, \"Send ETH to buy tokens\") */\n      tag_75\n      jumpi\n      mload(0x40)\n      0x08c379a000000000000000000000000000000000000000000000000000000000\n      dup2\n      mstore\n      0x04\n      add\n      tag_76\n      swap1\n      tag_77\n      jump\t// in\n    tag_76:\n      mload(0x40)\n      dup1\n      swap2\n      sub\n      swap1\n      revert\n    tag_75:\n        /* \"contracts/AenzbiToken.sol\":1844:1863  uint256 tokensToBuy */\n      0x00\n        /* \"contracts/AenzbiToken.sol\":1908:1918  tokenPrice */\n      sload(0x05)\n        /* \"contracts/AenzbiToken.sol\":1894:1902  decimals */\n      0x02\n      0x00\n      swap1\n      sload\n      swap1\n      0x0100\n      exp\n      swap1\n      div\n      0xff\n      and\n        /* \"contracts/AenzbiToken.sol\":1886:1903  uint256(decimals) */\n      0xff\n      and\n        /* \"contracts/AenzbiToken.sol\":1880:1882  10 */\n      0x0a\n        /* \"contracts/AenzbiToken.sol\":1880:1903  10 ** uint256(decimals) */\n      tag_78\n      swap2\n      swap1\n      tag_79\n      jump\t// in\n    tag_78:\n        /* \"contracts/AenzbiToken.sol\":1867:1876  msg.value */\n      callvalue\n        /* \"contracts/AenzbiToken.sol\":1867:1904  msg.value * (10 ** uint256(decimals)) */\n      tag_80\n      swap2\n      swap1\n      tag_81\n      jump\t// in\n    tag_80:\n        /* \"contracts/AenzbiToken.sol\":1866:1918  (msg.value * (10 ** uint256(decimals))) / tokenPrice */\n      tag_82\n      swap2\n      swap1\n      tag_83\n      jump\t// in\n    tag_82:\n        /* \"contracts/AenzbiToken.sol\":1844:1918  uint256 tokensToBuy = (msg.value * (10 ** uint256(decimals))) / tokenPrice */\n      swap1\n      pop\n        /* \"contracts/AenzbiToken.sol\":1956:1967  tokensToBuy */\n      dup1\n        /* \"contracts/AenzbiToken.sol\":1936:1945  _balances */\n      0x06\n        /* \"contracts/AenzbiToken.sol\":1936:1952  _balances[owner] */\n      0x00\n        /* \"contracts/AenzbiToken.sol\":1946:1951  owner */\n      0x04\n      0x00\n      swap1\n      sload\n      swap1\n      0x0100\n      exp\n      swap1\n      div\n      0xffffffffffffffffffffffffffffffffffffffff\n      and\n        /* \"contracts/AenzbiToken.sol\":1936:1952  _balances[owner] */\n      0xffffffffffffffffffffffffffffffffffffffff\n      and\n      0xffffffffffffffffffffffffffffffffffffffff\n      and\n      dup2\n      mstore\n      0x20\n      add\n      swap1\n      dup2\n      mstore\n      0x20\n      add\n      0x00\n      keccak256\n      sload\n        /* \"contracts/AenzbiToken.sol\":1936:1967  _balances[owner] >= tokensToBuy */\n      lt\n      iszero\n        /* \"contracts/AenzbiToken.sol\":1928:2000  require(_balances[owner] >= tokensToBuy, \"Not enough tokens in reserve\") */\n      tag_84\n      jumpi\n      mload(0x40)\n      0x08c379a000000000000000000000000000000000000000000000000000000000\n      dup2\n      mstore\n      0x04\n      add\n      tag_85\n      swap1\n      tag_86\n      jump\t// in\n    tag_85:\n      mload(0x40)\n      dup1\n      swap2\n      sub\n      swap1\n      revert\n    tag_84:\n        /* \"contracts/AenzbiToken.sol\":2030:2041  tokensToBuy */\n      dup1\n        /* \"contracts/AenzbiToken.sol\":2010:2019  _balances */\n      0x06\n        /* \"contracts/AenzbiToken.sol\":2010:2026  _balances[owner] */\n      0x00\n        /* \"contracts/AenzbiToken.sol\":2020:2025  owner */\n      0x04\n      0x00\n      swap1\n      sload\n      swap1\n      0x0100\n      exp\n      swap1\n      div\n      0xffffffffffffffffffffffffffffffffffffffff\n      and\n        /* \"contracts/AenzbiToken.sol\":2010:2026  _balances[owner] */\n      0xffffffffffffffffffffffffffffffffffffffff\n      and\n      0xffffffffffffffffffffffffffffffffffffffff\n      and\n      dup2\n      mstore\n      0x20\n      add\n      swap1\n      dup2\n      mstore\n      0x20\n      add\n      0x00\n      keccak256\n      0x00\n        /* \"contracts/AenzbiToken.sol\":2010:2041  _balances[owner] -= tokensToBuy */\n      dup3\n      dup3\n      sload\n      tag_87\n      swap2\n      swap1\n      tag_88\n      jump\t// in\n    tag_87:\n      swap3\n      pop\n      pop\n      dup2\n      swap1\n      sstore\n      pop\n        /* \"contracts/AenzbiToken.sol\":2076:2087  tokensToBuy */\n      dup1\n        /* \"contracts/AenzbiToken.sol\":2051:2060  _balances */\n      0x06\n        /* \"contracts/AenzbiToken.sol\":2051:2072  _balances[msg.sender] */\n      0x00\n        /* \"contracts/AenzbiToken.sol\":2061:2071  msg.sender */\n      caller\n        /* \"contracts/AenzbiToken.sol\":2051:2072  _balances[msg.sender] */\n      0xffffffffffffffffffffffffffffffffffffffff\n      and\n      0xffffffffffffffffffffffffffffffffffffffff\n      and\n      dup2\n      mstore\n      0x20\n      add\n      swap1\n      dup2\n      mstore\n      0x20\n      add\n      0x00\n      keccak256\n      0x00\n        /* \"contracts/AenzbiToken.sol\":2051:2087  _balances[msg.sender] += tokensToBuy */\n      dup3\n      dup3\n      sload\n      tag_89\n      swap2\n      swap1\n      tag_90\n      jump\t// in\n    tag_89:\n      swap3\n      pop\n      pop\n      dup2\n      swap1\n      sstore\n      pop\n        /* \"contracts/AenzbiToken.sol\":2117:2127  msg.sender */\n      caller\n        /* \"contracts/AenzbiToken.sol\":2102:2141  TokenPurchased(msg.sender, tokensToBuy) */\n      0xffffffffffffffffffffffffffffffffffffffff\n      and\n      0x55c18555197c6574627cf460c66073d10aa05d412468800b7b71feeaf82ea92d\n        /* \"contracts/AenzbiToken.sol\":2129:2140  tokensToBuy */\n      dup3\n        /* \"contracts/AenzbiToken.sol\":2102:2141  TokenPurchased(msg.sender, tokensToBuy) */\n      mload(0x40)\n      tag_91\n      swap2\n      swap1\n      tag_29\n      jump\t// in\n    tag_91:\n      mload(0x40)\n      dup1\n      swap2\n      sub\n      swap1\n      log2\n        /* \"contracts/AenzbiToken.sol\":1776:2148  {... */\n      pop\n        /* \"contracts/AenzbiToken.sol\":1740:2148  function buyTokens() public payable {... */\n      jump\t// out\n        /* \"contracts/AenzbiToken.sol\":474:509  string public name = \"Aenzbi Token\" */\n    tag_22:\n      0x00\n      dup1\n      sload\n      tag_92\n      swap1\n      tag_93\n      jump\t// in\n    tag_92:\n      dup1\n      0x1f\n      add\n      0x20\n      dup1\n      swap2\n      div\n      mul\n      0x20\n      add\n      mload(0x40)\n      swap1\n      dup2\n      add\n      0x40\n      mstore\n      dup1\n      swap3\n      swap2\n      swap1\n      dup2\n      dup2\n      mstore\n      0x20\n      add\n      dup3\n      dup1\n      sload\n      tag_94\n      swap1\n      tag_93\n      jump\t// in\n    tag_94:\n      dup1\n      iszero\n      tag_95\n      jumpi\n      dup1\n      0x1f\n      lt\n      tag_96\n      jumpi\n      0x0100\n      dup1\n      dup4\n      sload\n      div\n      mul\n      dup4\n      mstore\n      swap2\n      0x20\n      add\n      swap2\n      jump(tag_95)\n    tag_96:\n      dup3\n      add\n      swap2\n      swap1\n      0x00\n      mstore\n      keccak256(0x00, 0x20)\n      swap1\n    tag_97:\n      dup2\n      sload\n      dup2\n      mstore\n      swap1\n      0x01\n      add\n      swap1\n      0x20\n      add\n      dup1\n      dup4\n      gt\n      tag_97\n      jumpi\n      dup3\n      swap1\n      sub\n      0x1f\n      and\n      dup3\n      add\n      swap2\n    tag_95:\n      pop\n      pop\n      pop\n      pop\n      pop\n      dup2\n      jump\t// out\n        /* \"contracts/AenzbiToken.sol\":1189:1287  function totalSupply() public view override returns (uint256) {... */\n    tag_27:\n        /* \"contracts/AenzbiToken.sol\":1242:1249  uint256 */\n      0x00\n        /* \"contracts/AenzbiToken.sol\":1268:1280  _totalSupply */\n      sload(0x03)\n        /* \"contracts/AenzbiToken.sol\":1261:1280  return _totalSupply */\n      swap1\n      pop\n        /* \"contracts/AenzbiToken.sol\":1189:1287  function totalSupply() public view override returns (uint256) {... */\n      swap1\n      jump\t// out\n        /* \"contracts/AenzbiToken.sol\":549:575  uint8 public decimals = 18 */\n    tag_32:\n      0x02\n      0x00\n      swap1\n      sload\n      swap1\n      0x0100\n      exp\n      swap1\n      div\n      0xff\n      and\n      dup2\n      jump\t// out\n        /* \"contracts/AenzbiToken.sol\":2154:2464  function payWithTokens(uint256 amount) public {... */\n    tag_39:\n        /* \"contracts/AenzbiToken.sol\":2243:2249  amount */\n      dup1\n        /* \"contracts/AenzbiToken.sol\":2218:2227  _balances */\n      0x06\n        /* \"contracts/AenzbiToken.sol\":2218:2239  _balances[msg.sender] */\n      0x00\n        /* \"contracts/AenzbiToken.sol\":2228:2238  msg.sender */\n      caller\n        /* \"contracts/AenzbiToken.sol\":2218:2239  _balances[msg.sender] */\n      0xffffffffffffffffffffffffffffffffffffffff\n      and\n      0xffffffffffffffffffffffffffffffffffffffff\n      and\n      dup2\n      mstore\n      0x20\n      add\n      swap1\n      dup2\n      mstore\n      0x20\n      add\n      0x00\n      keccak256\n      sload\n        /* \"contracts/AenzbiToken.sol\":2218:2249  _balances[msg.sender] >= amount */\n      lt\n      iszero\n        /* \"contracts/AenzbiToken.sol\":2210:2280  require(_balances[msg.sender] >= amount, \"Insufficient token balance\") */\n      tag_100\n      jumpi\n      mload(0x40)\n      0x08c379a000000000000000000000000000000000000000000000000000000000\n      dup2\n      mstore\n      0x04\n      add\n      tag_101\n      swap1\n      tag_102\n      jump\t// in\n    tag_101:\n      mload(0x40)\n      dup1\n      swap2\n      sub\n      swap1\n      revert\n    tag_100:\n        /* \"contracts/AenzbiToken.sol\":2315:2321  amount */\n      dup1\n        /* \"contracts/AenzbiToken.sol\":2290:2299  _balances */\n      0x06\n        /* \"contracts/AenzbiToken.sol\":2290:2311  _balances[msg.sender] */\n      0x00\n        /* \"contracts/AenzbiToken.sol\":2300:2310  msg.sender */\n      caller\n        /* \"contracts/AenzbiToken.sol\":2290:2311  _balances[msg.sender] */\n      0xffffffffffffffffffffffffffffffffffffffff\n      and\n      0xffffffffffffffffffffffffffffffffffffffff\n      and\n      dup2\n      mstore\n      0x20\n      add\n      swap1\n      dup2\n      mstore\n      0x20\n      add\n      0x00\n      keccak256\n      0x00\n        /* \"contracts/AenzbiToken.sol\":2290:2321  _balances[msg.sender] -= amount */\n      dup3\n      dup3\n      sload\n      tag_103\n      swap2\n      swap1\n      tag_88\n      jump\t// in\n    tag_103:\n      swap3\n      pop\n      pop\n      dup2\n      swap1\n      sstore\n      pop\n        /* \"contracts/AenzbiToken.sol\":2351:2357  amount */\n      dup1\n        /* \"contracts/AenzbiToken.sol\":2331:2340  _balances */\n      0x06\n        /* \"contracts/AenzbiToken.sol\":2331:2347  _balances[owner] */\n      0x00\n        /* \"contracts/AenzbiToken.sol\":2341:2346  owner */\n      0x04\n      0x00\n      swap1\n      sload\n      swap1\n      0x0100\n      exp\n      swap1\n      div\n      0xffffffffffffffffffffffffffffffffffffffff\n      and\n        /* \"contracts/AenzbiToken.sol\":2331:2347  _balances[owner] */\n      0xffffffffffffffffffffffffffffffffffffffff\n      and\n      0xffffffffffffffffffffffffffffffffffffffff\n      and\n      dup2\n      mstore\n      0x20\n      add\n      swap1\n      dup2\n      mstore\n      0x20\n      add\n      0x00\n      keccak256\n      0x00\n        /* \"contracts/AenzbiToken.sol\":2331:2357  _balances[owner] += amount */\n      dup3\n      dup3\n      sload\n      tag_104\n      swap2\n      swap1\n      tag_90\n      jump\t// in\n    tag_104:\n      swap3\n      pop\n      pop\n      dup2\n      swap1\n      sstore\n      pop\n        /* \"contracts/AenzbiToken.sol\":2393:2398  owner */\n      0x04\n      0x00\n      swap1\n      sload\n      swap1\n      0x0100\n      exp\n      swap1\n      div\n      0xffffffffffffffffffffffffffffffffffffffff\n      and\n        /* \"contracts/AenzbiToken.sol\":2372:2407  Transfer(msg.sender, owner, amount) */\n      0xffffffffffffffffffffffffffffffffffffffff\n      and\n        /* \"contracts/AenzbiToken.sol\":2381:2391  msg.sender */\n      caller\n        /* \"contracts/AenzbiToken.sol\":2372:2407  Transfer(msg.sender, owner, amount) */\n      0xffffffffffffffffffffffffffffffffffffffff\n      and\n      0xddf252ad1be2c89b69c2b068fc378daa952ba7f163c4a11628f55a4df523b3ef\n        /* \"contracts/AenzbiToken.sol\":2400:2406  amount */\n      dup4\n        /* \"contracts/AenzbiToken.sol\":2372:2407  Transfer(msg.sender, owner, amount) */\n      mload(0x40)\n      tag_105\n      swap2\n      swap1\n      tag_29\n      jump\t// in\n    tag_105:\n      mload(0x40)\n      dup1\n      swap2\n      sub\n      swap1\n      log3\n        /* \"contracts/AenzbiToken.sol\":2438:2448  msg.sender */\n      caller\n        /* \"contracts/AenzbiToken.sol\":2422:2457  PaymentReceived(msg.sender, amount) */\n      0xffffffffffffffffffffffffffffffffffffffff\n      and\n      0x6ef95f06320e7a25a04a175ca677b7052bdd97131872c2192525a629f51be770\n        /* \"contracts/AenzbiToken.sol\":2450:2456  amount */\n      dup3\n        /* \"contracts/AenzbiToken.sol\":2422:2457  PaymentReceived(msg.sender, amount) */\n      mload(0x40)\n      tag_106\n      swap2\n      swap1\n      tag_29\n      jump\t// in\n    tag_106:\n      mload(0x40)\n      dup1\n      swap2\n      sub\n      swap1\n      log2\n        /* \"contracts/AenzbiToken.sol\":2154:2464  function payWithTokens(uint256 amount) public {... */\n      pop\n      jump\t// out\n        /* \"contracts/AenzbiToken.sol\":2470:2572  function setTokenPrice(uint256 newPriceWei) public onlyOwner {... */\n    tag_43:\n        /* \"contracts/AenzbiToken.sol\":996:1001  owner */\n      0x04\n      0x00\n      swap1\n      sload\n      swap1\n      0x0100\n      exp\n      swap1\n      div\n      0xffffffffffffffffffffffffffffffffffffffff\n      and\n        /* \"contracts/AenzbiToken.sol\":982:1001  msg.sender == owner */\n      0xffffffffffffffffffffffffffffffffffffffff\n      and\n        /* \"contracts/AenzbiToken.sol\":982:992  msg.sender */\n      caller\n        /* \"contracts/AenzbiToken.sol\":982:1001  msg.sender == owner */\n      0xffffffffffffffffffffffffffffffffffffffff\n      and\n      eq\n        /* \"contracts/AenzbiToken.sol\":974:1024  require(msg.sender == owner, \"Only owner allowed\") */\n      tag_108\n      jumpi\n      mload(0x40)\n      0x08c379a000000000000000000000000000000000000000000000000000000000\n      dup2\n      mstore\n      0x04\n      add\n      tag_109\n      swap1\n      tag_110\n      jump\t// in\n    tag_109:\n      mload(0x40)\n      dup1\n      swap2\n      sub\n      swap1\n      revert\n    tag_108:\n        /* \"contracts/AenzbiToken.sol\":2554:2565  newPriceWei */\n      dup1\n        /* \"contracts/AenzbiToken.sol\":2541:2551  tokenPrice */\n      0x05\n        /* \"contracts/AenzbiToken.sol\":2541:2565  tokenPrice = newPriceWei */\n      dup2\n      swap1\n      sstore\n      pop\n        /* \"contracts/AenzbiToken.sol\":2470:2572  function setTokenPrice(uint256 newPriceWei) public onlyOwner {... */\n      pop\n      jump\t// out\n        /* \"contracts/AenzbiToken.sol\":1293:1410  function balanceOf(address account) public view override returns (uint256) {... */\n    tag_48:\n        /* \"contracts/AenzbiToken.sol\":1359:1366  uint256 */\n      0x00\n        /* \"contracts/AenzbiToken.sol\":1385:1394  _balances */\n      0x06\n        /* \"contracts/AenzbiToken.sol\":1385:1403  _balances[account] */\n      0x00\n        /* \"contracts/AenzbiToken.sol\":1395:1402  account */\n      dup4\n        /* \"contracts/AenzbiToken.sol\":1385:1403  _balances[account] */\n      0xffffffffffffffffffffffffffffffffffffffff\n      and\n      0xffffffffffffffffffffffffffffffffffffffff\n      and\n      dup2\n      mstore\n      0x20\n      add\n      swap1\n      dup2\n      mstore\n      0x20\n      add\n      0x00\n      keccak256\n      sload\n        /* \"contracts/AenzbiToken.sol\":1378:1403  return _balances[account] */\n      swap1\n      pop\n        /* \"contracts/AenzbiToken.sol\":1293:1410  function balanceOf(address account) public view override returns (uint256) {... */\n      swap2\n      swap1\n      pop\n      jump\t// out\n        /* \"contracts/AenzbiToken.sol\":641:676  uint256 public tokenPrice = 1 ether */\n    tag_52:\n      sload(0x05)\n      dup2\n      jump\t// out\n        /* \"contracts/AenzbiToken.sol\":615:635  address public owner */\n    tag_56:\n      0x04\n      0x00\n      swap1\n      sload\n      swap1\n      0x0100\n      exp\n      swap1\n      div\n      0xffffffffffffffffffffffffffffffffffffffff\n      and\n      dup2\n      jump\t// out\n        /* \"contracts/AenzbiToken.sol\":515:543  string public symbol = \"AZT\" */\n    tag_61:\n      0x01\n      dup1\n      sload\n      tag_113\n      swap1\n      tag_93\n      jump\t// in\n    tag_113:\n      dup1\n      0x1f\n      add\n      0x20\n      dup1\n      swap2\n      div\n      mul\n      0x20\n      add\n      mload(0x40)\n      swap1\n      dup2\n      add\n      0x40\n      mstore\n      dup1\n      swap3\n      swap2\n      swap1\n      dup2\n      dup2\n      mstore\n      0x20\n      add\n      dup3\n      dup1\n      sload\n      tag_114\n      swap1\n      tag_93\n      jump\t// in\n    tag_114:\n      dup1\n      iszero\n      tag_115\n      jumpi\n      dup1\n      0x1f\n      lt\n      tag_116\n      jumpi\n      0x0100\n      dup1\n      dup4\n      sload\n      div\n      mul\n      dup4\n      mstore\n      swap2\n      0x20\n      add\n      swap2\n      jump(tag_115)\n    tag_116:\n      dup3\n      add\n      swap2\n      swap1\n      0x00\n      mstore\n      keccak256(0x00, 0x20)\n      swap1\n    tag_117:\n      dup2\n      sload\n      dup2\n      mstore\n      swap1\n      0x01\n      add\n      swap1\n      0x20\n      add\n      dup1\n      dup4\n      gt\n      tag_117\n      jumpi\n      dup3\n      swap1\n      sub\n      0x1f\n      and\n      dup3\n      add\n      swap2\n    tag_115:\n      pop\n      pop\n      pop\n      pop\n      pop\n      dup2\n      jump\t// out\n        /* \"contracts/AenzbiToken.sol\":1416:1734  function transfer(address recipient, uint256 amount) public override returns (bool) {... */\n    tag_67:\n        /* \"contracts/AenzbiToken.sol\":1494:1498  bool */\n      0x00\n        /* \"contracts/AenzbiToken.sol\":1543:1549  amount */\n      dup2\n        /* \"contracts/AenzbiToken.sol\":1518:1527  _balances */\n      0x06\n        /* \"contracts/AenzbiToken.sol\":1518:1539  _balances[msg.sender] */\n      0x00\n        /* \"contracts/AenzbiToken.sol\":1528:1538  msg.sender */\n      caller\n        /* \"contracts/AenzbiToken.sol\":1518:1539  _balances[msg.sender] */\n      0xffffffffffffffffffffffffffffffffffffffff\n      and\n      0xffffffffffffffffffffffffffffffffffffffff\n      and\n      dup2\n      mstore\n      0x20\n      add\n      swap1\n      dup2\n      mstore\n      0x20\n      add\n      0x00\n      keccak256\n      sload\n        /* \"contracts/AenzbiToken.sol\":1518:1549  _balances[msg.sender] >= amount */\n      lt\n      iszero\n        /* \"contracts/AenzbiToken.sol\":1510:1571  require(_balances[msg.sender] >= amount, \"Not enough tokens\") */\n      tag_119\n      jumpi\n      mload(0x40)\n      0x08c379a000000000000000000000000000000000000000000000000000000000\n      dup2\n      mstore\n      0x04\n      add\n      tag_120\n      swap1\n      tag_121\n      jump\t// in\n    tag_120:\n      mload(0x40)\n      dup1\n      swap2\n      sub\n      swap1\n      revert\n    tag_119:\n        /* \"contracts/AenzbiToken.sol\":1606:1612  amount */\n      dup2\n        /* \"contracts/AenzbiToken.sol\":1581:1590  _balances */\n      0x06\n        /* \"contracts/AenzbiToken.sol\":1581:1602  _balances[msg.sender] */\n      0x00\n        /* \"contracts/AenzbiToken.sol\":1591:1601  msg.sender */\n      caller\n        /* \"contracts/AenzbiToken.sol\":1581:1602  _balances[msg.sender] */\n      0xffffffffffffffffffffffffffffffffffffffff\n      and\n      0xffffffffffffffffffffffffffffffffffffffff\n      and\n      dup2\n      mstore\n      0x20\n      add\n      swap1\n      dup2\n      mstore\n      0x20\n      add\n      0x00\n      keccak256\n      0x00\n        /* \"contracts/AenzbiToken.sol\":1581:1612  _balances[msg.sender] -= amount */\n      dup3\n      dup3\n      sload\n      tag_122\n      swap2\n      swap1\n      tag_88\n      jump\t// in\n    tag_122:\n      swap3\n      pop\n      pop\n      dup2\n      swap1\n      sstore\n      pop\n        /* \"contracts/AenzbiToken.sol\":1646:1652  amount */\n      dup2\n        /* \"contracts/AenzbiToken.sol\":1622:1631  _balances */\n      0x06\n        /* \"contracts/AenzbiToken.sol\":1622:1642  _balances[recipient] */\n      0x00\n        /* \"contracts/AenzbiToken.sol\":1632:1641  recipient */\n      dup6\n        /* \"contracts/AenzbiToken.sol\":1622:1642  _balances[recipient] */\n      0xffffffffffffffffffffffffffffffffffffffff\n      and\n      0xffffffffffffffffffffffffffffffffffffffff\n      and\n      dup2\n      mstore\n      0x20\n      add\n      swap1\n      dup2\n      mstore\n      0x20\n      add\n      0x00\n      keccak256\n      0x00\n        /* \"contracts/AenzbiToken.sol\":1622:1652  _balances[recipient] += amount */\n      dup3\n      dup3\n      sload\n      tag_123\n      swap2\n      swap1\n      tag_90\n      jump\t// in\n    tag_123:\n      swap3\n      pop\n      pop\n      dup2\n      swap1\n      sstore\n      pop\n        /* \"contracts/AenzbiToken.sol\":1688:1697  recipient */\n      dup3\n        /* \"contracts/AenzbiToken.sol\":1667:1706  Transfer(msg.sender, recipient, amount) */\n      0xffffffffffffffffffffffffffffffffffffffff\n      and\n        /* \"contracts/AenzbiToken.sol\":1676:1686  msg.sender */\n      caller\n        /* \"contracts/AenzbiToken.sol\":1667:1706  Transfer(msg.sender, recipient, amount) */\n      0xffffffffffffffffffffffffffffffffffffffff\n      and\n      0xddf252ad1be2c89b69c2b068fc378daa952ba7f163c4a11628f55a4df523b3ef\n        /* \"contracts/AenzbiToken.sol\":1699:1705  amount */\n      dup5\n        /* \"contracts/AenzbiToken.sol\":1667:1706  Transfer(msg.sender, recipient, amount) */\n      mload(0x40)\n      tag_124\n      swap2\n      swap1\n      tag_29\n      jump\t// in\n    tag_124:\n      mload(0x40)\n      dup1\n      swap2\n      sub\n      swap1\n      log3\n        /* \"contracts/AenzbiToken.sol\":1723:1727  true */\n      0x01\n        /* \"contracts/AenzbiToken.sol\":1716:1727  return true */\n      swap1\n      pop\n        /* \"contracts/AenzbiToken.sol\":1416:1734  function transfer(address recipient, uint256 amount) public override returns (bool) {... */\n      swap3\n      swap2\n      pop\n      pop\n      jump\t// out\n        /* \"contracts/AenzbiToken.sol\":2578:2681  function withdrawETH() public onlyOwner {... */\n    tag_73:\n        /* \"contracts/AenzbiToken.sol\":996:1001  owner */\n      0x04\n      0x00\n      swap1\n      sload\n      swap1\n      0x0100\n      exp\n      swap1\n      div\n      0xffffffffffffffffffffffffffffffffffffffff\n      and\n        /* \"contracts/AenzbiToken.sol\":982:1001  msg.sender == owner */\n      0xffffffffffffffffffffffffffffffffffffffff\n      and\n        /* \"contracts/AenzbiToken.sol\":982:992  msg.sender */\n      caller\n        /* \"contracts/AenzbiToken.sol\":982:1001  msg.sender == owner */\n      0xffffffffffffffffffffffffffffffffffffffff\n      and\n      eq\n        /* \"contracts/AenzbiToken.sol\":974:1024  require(msg.sender == owner, \"Only owner allowed\") */\n      tag_126\n      jumpi\n      mload(0x40)\n      0x08c379a000000000000000000000000000000000000000000000000000000000\n      dup2\n      mstore\n      0x04\n      add\n      tag_127\n      swap1\n      tag_110\n      jump\t// in\n    tag_127:\n      mload(0x40)\n      dup1\n      swap2\n      sub\n      swap1\n      revert\n    tag_126:\n        /* \"contracts/AenzbiToken.sol\":2636:2641  owner */\n      0x04\n      0x00\n      swap1\n      sload\n      swap1\n      0x0100\n      exp\n      swap1\n      div\n      0xffffffffffffffffffffffffffffffffffffffff\n      and\n        /* \"contracts/AenzbiToken.sol\":2628:2651  payable(owner).transfer */\n      0xffffffffffffffffffffffffffffffffffffffff\n      and\n        /* \"contracts/AenzbiToken.sol\":2628:2674  payable(owner).transfer(address(this).balance) */\n      0x08fc\n        /* \"contracts/AenzbiToken.sol\":2652:2673  address(this).balance */\n      selfbalance\n        /* \"contracts/AenzbiToken.sol\":2628:2674  payable(owner).transfer(address(this).balance) */\n      swap1\n      dup2\n      iszero\n      mul\n      swap1\n      mload(0x40)\n      0x00\n      mload(0x40)\n      dup1\n      dup4\n      sub\n      dup2\n      dup6\n      dup9\n      dup9\n      call\n      swap4\n      pop\n      pop\n      pop\n      pop\n      iszero\n      dup1\n      iszero\n      tag_130\n      jumpi\n      returndatacopy(0x00, 0x00, returndatasize)\n      revert(0x00, returndatasize)\n    tag_130:\n      pop\n        /* \"contracts/AenzbiToken.sol\":2578:2681  function withdrawETH() public onlyOwner {... */\n      jump\t// out\n        /* \"#utility.yul\":7:106   */\n    tag_131:\n        /* \"#utility.yul\":59:65   */\n      0x00\n        /* \"#utility.yul\":93:98   */\n      dup2\n        /* \"#utility.yul\":87:99   */\n      mload\n        /* \"#utility.yul\":77:99   */\n      swap1\n      pop\n        /* \"#utility.yul\":7:106   */\n      swap2\n      swap1\n      pop\n      jump\t// out\n        /* \"#utility.yul\":112:281   */\n    tag_132:\n        /* \"#utility.yul\":196:207   */\n      0x00\n        /* \"#utility.yul\":230:236   */\n      dup3\n        /* \"#utility.yul\":225:228   */\n      dup3\n        /* \"#utility.yul\":218:237   */\n      mstore\n        /* \"#utility.yul\":270:274   */\n      0x20\n        /* \"#utility.yul\":265:268   */\n      dup3\n        /* \"#utility.yul\":261:275   */\n      add\n        /* \"#utility.yul\":246:275   */\n      swap1\n      pop\n        /* \"#utility.yul\":112:281   */\n      swap3\n      swap2\n      pop\n      pop\n      jump\t// out\n        /* \"#utility.yul\":287:426   */\n    tag_133:\n        /* \"#utility.yul\":376:382   */\n      dup3\n        /* \"#utility.yul\":371:374   */\n      dup2\n        /* \"#utility.yul\":366:369   */\n      dup4\n        /* \"#utility.yul\":360:383   */\n      mcopy\n        /* \"#utility.yul\":417:418   */\n      0x00\n        /* \"#utility.yul\":408:414   */\n      dup4\n        /* \"#utility.yul\":403:406   */\n      dup4\n        /* \"#utility.yul\":399:415   */\n      add\n        /* \"#utility.yul\":392:419   */\n      mstore\n        /* \"#utility.yul\":287:426   */\n      pop\n      pop\n      pop\n      jump\t// out\n        /* \"#utility.yul\":432:534   */\n    tag_134:\n        /* \"#utility.yul\":473:479   */\n      0x00\n        /* \"#utility.yul\":524:526   */\n      0x1f\n        /* \"#utility.yul\":520:527   */\n      not\n        /* \"#utility.yul\":515:517   */\n      0x1f\n        /* \"#utility.yul\":508:513   */\n      dup4\n        /* \"#utility.yul\":504:518   */\n      add\n        /* \"#utility.yul\":500:528   */\n      and\n        /* \"#utility.yul\":490:528   */\n      swap1\n      pop\n        /* \"#utility.yul\":432:534   */\n      swap2\n      swap1\n      pop\n      jump\t// out\n        /* \"#utility.yul\":540:917   */\n    tag_135:\n        /* \"#utility.yul\":628:631   */\n      0x00\n        /* \"#utility.yul\":656:695   */\n      tag_174\n        /* \"#utility.yul\":689:694   */\n      dup3\n        /* \"#utility.yul\":656:695   */\n      tag_131\n      jump\t// in\n    tag_174:\n        /* \"#utility.yul\":711:782   */\n      tag_175\n        /* \"#utility.yul\":775:781   */\n      dup2\n        /* \"#utility.yul\":770:773   */\n      dup6\n        /* \"#utility.yul\":711:782   */\n      tag_132\n      jump\t// in\n    tag_175:\n        /* \"#utility.yul\":704:782   */\n      swap4\n      pop\n        /* \"#utility.yul\":791:856   */\n      tag_176\n        /* \"#utility.yul\":849:855   */\n      dup2\n        /* \"#utility.yul\":844:847   */\n      dup6\n        /* \"#utility.yul\":837:841   */\n      0x20\n        /* \"#utility.yul\":830:835   */\n      dup7\n        /* \"#utility.yul\":826:842   */\n      add\n        /* \"#utility.yul\":791:856   */\n      tag_133\n      jump\t// in\n    tag_176:\n        /* \"#utility.yul\":881:910   */\n      tag_177\n        /* \"#utility.yul\":903:909   */\n      dup2\n        /* \"#utility.yul\":881:910   */\n      tag_134\n      jump\t// in\n    tag_177:\n        /* \"#utility.yul\":876:879   */\n      dup5\n        /* \"#utility.yul\":872:911   */\n      add\n        /* \"#utility.yul\":865:911   */\n      swap2\n      pop\n        /* \"#utility.yul\":632:917   */\n      pop\n        /* \"#utility.yul\":540:917   */\n      swap3\n      swap2\n      pop\n      pop\n      jump\t// out\n        /* \"#utility.yul\":923:1236   */\n    tag_24:\n        /* \"#utility.yul\":1036:1040   */\n      0x00\n        /* \"#utility.yul\":1074:1076   */\n      0x20\n        /* \"#utility.yul\":1063:1072   */\n      dup3\n        /* \"#utility.yul\":1059:1077   */\n      add\n        /* \"#utility.yul\":1051:1077   */\n      swap1\n      pop\n        /* \"#utility.yul\":1123:1132   */\n      dup2\n        /* \"#utility.yul\":1117:1121   */\n      dup2\n        /* \"#utility.yul\":1113:1133   */\n      sub\n        /* \"#utility.yul\":1109:1110   */\n      0x00\n        /* \"#utility.yul\":1098:1107   */\n      dup4\n        /* \"#utility.yul\":1094:1111   */\n      add\n        /* \"#utility.yul\":1087:1134   */\n      mstore\n        /* \"#utility.yul\":1151:1229   */\n      tag_179\n        /* \"#utility.yul\":1224:1228   */\n      dup2\n        /* \"#utility.yul\":1215:1221   */\n      dup5\n        /* \"#utility.yul\":1151:1229   */\n      tag_135\n      jump\t// in\n    tag_179:\n        /* \"#utility.yul\":1143:1229   */\n      swap1\n      pop\n        /* \"#utility.yul\":923:1236   */\n      swap3\n      swap2\n      pop\n      pop\n      jump\t// out\n        /* \"#utility.yul\":1242:1319   */\n    tag_136:\n        /* \"#utility.yul\":1279:1286   */\n      0x00\n        /* \"#utility.yul\":1308:1313   */\n      dup2\n        /* \"#utility.yul\":1297:1313   */\n      swap1\n      pop\n        /* \"#utility.yul\":1242:1319   */\n      swap2\n      swap1\n      pop\n      jump\t// out\n        /* \"#utility.yul\":1325:1443   */\n    tag_137:\n        /* \"#utility.yul\":1412:1436   */\n      tag_182\n        /* \"#utility.yul\":1430:1435   */\n      dup2\n        /* \"#utility.yul\":1412:1436   */\n      tag_136\n      jump\t// in\n    tag_182:\n        /* \"#utility.yul\":1407:1410   */\n      dup3\n        /* \"#utility.yul\":1400:1437   */\n      mstore\n        /* \"#utility.yul\":1325:1443   */\n      pop\n      pop\n      jump\t// out\n        /* \"#utility.yul\":1449:1671   */\n    tag_29:\n        /* \"#utility.yul\":1542:1546   */\n      0x00\n        /* \"#utility.yul\":1580:1582   */\n      0x20\n        /* \"#utility.yul\":1569:1578   */\n      dup3\n        /* \"#utility.yul\":1565:1583   */\n      add\n        /* \"#utility.yul\":1557:1583   */\n      swap1\n      pop\n        /* \"#utility.yul\":1593:1664   */\n      tag_184\n        /* \"#utility.yul\":1661:1662   */\n      0x00\n        /* \"#utility.yul\":1650:1659   */\n      dup4\n        /* \"#utility.yul\":1646:1663   */\n      add\n        /* \"#utility.yul\":1637:1643   */\n      dup5\n        /* \"#utility.yul\":1593:1664   */\n      tag_137\n      jump\t// in\n    tag_184:\n        /* \"#utility.yul\":1449:1671   */\n      swap3\n      swap2\n      pop\n      pop\n      jump\t// out\n        /* \"#utility.yul\":1677:1763   */\n    tag_138:\n        /* \"#utility.yul\":1712:1719   */\n      0x00\n        /* \"#utility.yul\":1752:1756   */\n      0xff\n        /* \"#utility.yul\":1745:1750   */\n      dup3\n        /* \"#utility.yul\":1741:1757   */\n      and\n        /* \"#utility.yul\":1730:1757   */\n      swap1\n      pop\n        /* \"#utility.yul\":1677:1763   */\n      swap2\n      swap1\n      pop\n      jump\t// out\n        /* \"#utility.yul\":1769:1881   */\n    tag_139:\n        /* \"#utility.yul\":1852:1874   */\n      tag_187\n        /* \"#utility.yul\":1868:1873   */\n      dup2\n        /* \"#utility.yul\":1852:1874   */\n      tag_138\n      jump\t// in\n    tag_187:\n        /* \"#utility.yul\":1847:1850   */\n      dup3\n        /* \"#utility.yul\":1840:1875   */\n      mstore\n        /* \"#utility.yul\":1769:1881   */\n      pop\n      pop\n      jump\t// out\n        /* \"#utility.yul\":1887:2101   */\n    tag_34:\n        /* \"#utility.yul\":1976:1980   */\n      0x00\n        /* \"#utility.yul\":2014:2016   */\n      0x20\n        /* \"#utility.yul\":2003:2012   */\n      dup3\n        /* \"#utility.yul\":1999:2017   */\n      add\n        /* \"#utility.yul\":1991:2017   */\n      swap1\n      pop\n        /* \"#utility.yul\":2027:2094   */\n      tag_189\n        /* \"#utility.yul\":2091:2092   */\n      0x00\n        /* \"#utility.yul\":2080:2089   */\n      dup4\n        /* \"#utility.yul\":2076:2093   */\n      add\n        /* \"#utility.yul\":2067:2073   */\n      dup5\n        /* \"#utility.yul\":2027:2094   */\n      tag_139\n      jump\t// in\n    tag_189:\n        /* \"#utility.yul\":1887:2101   */\n      swap3\n      swap2\n      pop\n      pop\n      jump\t// out\n        /* \"#utility.yul\":2188:2305   */\n    tag_141:\n        /* \"#utility.yul\":2297:2298   */\n      0x00\n        /* \"#utility.yul\":2294:2295   */\n      0x00\n        /* \"#utility.yul\":2287:2299   */\n      revert\n        /* \"#utility.yul\":2434:2556   */\n    tag_143:\n        /* \"#utility.yul\":2507:2531   */\n      tag_194\n        /* \"#utility.yul\":2525:2530   */\n      dup2\n        /* \"#utility.yul\":2507:2531   */\n      tag_136\n      jump\t// in\n    tag_194:\n        /* \"#utility.yul\":2500:2505   */\n      dup2\n        /* \"#utility.yul\":2497:2532   */\n      eq\n        /* \"#utility.yul\":2487:2550   */\n      tag_195\n      jumpi\n        /* \"#utility.yul\":2546:2547   */\n      0x00\n        /* \"#utility.yul\":2543:2544   */\n      0x00\n        /* \"#utility.yul\":2536:2548   */\n      revert\n        /* \"#utility.yul\":2487:2550   */\n    tag_195:\n        /* \"#utility.yul\":2434:2556   */\n      pop\n      jump\t// out\n        /* \"#utility.yul\":2562:2701   */\n    tag_144:\n        /* \"#utility.yul\":2608:2613   */\n      0x00\n        /* \"#utility.yul\":2646:2652   */\n      dup2\n        /* \"#utility.yul\":2633:2653   */\n      calldataload\n        /* \"#utility.yul\":2624:2653   */\n      swap1\n      pop\n        /* \"#utility.yul\":2662:2695   */\n      tag_197\n        /* \"#utility.yul\":2689:2694   */\n      dup2\n        /* \"#utility.yul\":2662:2695   */\n      tag_143\n      jump\t// in\n    tag_197:\n        /* \"#utility.yul\":2562:2701   */\n      swap3\n      swap2\n      pop\n      pop\n      jump\t// out\n        /* \"#utility.yul\":2707:3036   */\n    tag_38:\n        /* \"#utility.yul\":2766:2772   */\n      0x00\n        /* \"#utility.yul\":2815:2817   */\n      0x20\n        /* \"#utility.yul\":2803:2812   */\n      dup3\n        /* \"#utility.yul\":2794:2801   */\n      dup5\n        /* \"#utility.yul\":2790:2813   */\n      sub\n        /* \"#utility.yul\":2786:2818   */\n      slt\n        /* \"#utility.yul\":2783:2902   */\n      iszero\n      tag_199\n      jumpi\n        /* \"#utility.yul\":2821:2900   */\n      tag_200\n      tag_141\n      jump\t// in\n    tag_200:\n        /* \"#utility.yul\":2783:2902   */\n    tag_199:\n        /* \"#utility.yul\":2941:2942   */\n      0x00\n        /* \"#utility.yul\":2966:3019   */\n      tag_201\n        /* \"#utility.yul\":3011:3018   */\n      dup5\n        /* \"#utility.yul\":3002:3008   */\n      dup3\n        /* \"#utility.yul\":2991:3000   */\n      dup6\n        /* \"#utility.yul\":2987:3009   */\n      add\n        /* \"#utility.yul\":2966:3019   */\n      tag_144\n      jump\t// in\n    tag_201:\n        /* \"#utility.yul\":2956:3019   */\n      swap2\n      pop\n        /* \"#utility.yul\":2912:3029   */\n      pop\n        /* \"#utility.yul\":2707:3036   */\n      swap3\n      swap2\n      pop\n      pop\n      jump\t// out\n        /* \"#utility.yul\":3042:3168   */\n    tag_145:\n        /* \"#utility.yul\":3079:3086   */\n      0x00\n        /* \"#utility.yul\":3119:3161   */\n      0xffffffffffffffffffffffffffffffffffffffff\n        /* \"#utility.yul\":3112:3117   */\n      dup3\n        /* \"#utility.yul\":3108:3162   */\n      and\n        /* \"#utility.yul\":3097:3162   */\n      swap1\n      pop\n        /* \"#utility.yul\":3042:3168   */\n      swap2\n      swap1\n      pop\n      jump\t// out\n        /* \"#utility.yul\":3174:3270   */\n    tag_146:\n        /* \"#utility.yul\":3211:3218   */\n      0x00\n        /* \"#utility.yul\":3240:3264   */\n      tag_204\n        /* \"#utility.yul\":3258:3263   */\n      dup3\n        /* \"#utility.yul\":3240:3264   */\n      tag_145\n      jump\t// in\n    tag_204:\n        /* \"#utility.yul\":3229:3264   */\n      swap1\n      pop\n        /* \"#utility.yul\":3174:3270   */\n      swap2\n      swap1\n      pop\n      jump\t// out\n        /* \"#utility.yul\":3276:3398   */\n    tag_147:\n        /* \"#utility.yul\":3349:3373   */\n      tag_206\n        /* \"#utility.yul\":3367:3372   */\n      dup2\n        /* \"#utility.yul\":3349:3373   */\n      tag_146\n      jump\t// in\n    tag_206:\n        /* \"#utility.yul\":3342:3347   */\n      dup2\n        /* \"#utility.yul\":3339:3374   */\n      eq\n        /* \"#utility.yul\":3329:3392   */\n      tag_207\n      jumpi\n        /* \"#utility.yul\":3388:3389   */\n      0x00\n        /* \"#utility.yul\":3385:3386   */\n      0x00\n        /* \"#utility.yul\":3378:3390   */\n      revert\n        /* \"#utility.yul\":3329:3392   */\n    tag_207:\n        /* \"#utility.yul\":3276:3398   */\n      pop\n      jump\t// out\n        /* \"#utility.yul\":3404:3543   */\n    tag_148:\n        /* \"#utility.yul\":3450:3455   */\n      0x00\n        /* \"#utility.yul\":3488:3494   */\n      dup2\n        /* \"#utility.yul\":3475:3495   */\n      calldataload\n        /* \"#utility.yul\":3466:3495   */\n      swap1\n      pop\n        /* \"#utility.yul\":3504:3537   */\n      tag_209\n        /* \"#utility.yul\":3531:3536   */\n      dup2\n        /* \"#utility.yul\":3504:3537   */\n      tag_147\n      jump\t// in\n    tag_209:\n        /* \"#utility.yul\":3404:3543   */\n      swap3\n      swap2\n      pop\n      pop\n      jump\t// out\n        /* \"#utility.yul\":3549:3878   */\n    tag_47:\n        /* \"#utility.yul\":3608:3614   */\n      0x00\n        /* \"#utility.yul\":3657:3659   */\n      0x20\n        /* \"#utility.yul\":3645:3654   */\n      dup3\n        /* \"#utility.yul\":3636:3643   */\n      dup5\n        /* \"#utility.yul\":3632:3655   */\n      sub\n        /* \"#utility.yul\":3628:3660   */\n      slt\n        /* \"#utility.yul\":3625:3744   */\n      iszero\n      tag_211\n      jumpi\n        /* \"#utility.yul\":3663:3742   */\n      tag_212\n      tag_141\n      jump\t// in\n    tag_212:\n        /* \"#utility.yul\":3625:3744   */\n    tag_211:\n        /* \"#utility.yul\":3783:3784   */\n      0x00\n        /* \"#utility.yul\":3808:3861   */\n      tag_213\n        /* \"#utility.yul\":3853:3860   */\n      dup5\n        /* \"#utility.yul\":3844:3850   */\n      dup3\n        /* \"#utility.yul\":3833:3842   */\n      dup6\n        /* \"#utility.yul\":3829:3851   */\n      add\n        /* \"#utility.yul\":3808:3861   */\n      tag_148\n      jump\t// in\n    tag_213:\n        /* \"#utility.yul\":3798:3861   */\n      swap2\n      pop\n        /* \"#utility.yul\":3754:3871   */\n      pop\n        /* \"#utility.yul\":3549:3878   */\n      swap3\n      swap2\n      pop\n      pop\n      jump\t// out\n        /* \"#utility.yul\":3884:4002   */\n    tag_149:\n        /* \"#utility.yul\":3971:3995   */\n      tag_215\n        /* \"#utility.yul\":3989:3994   */\n      dup2\n        /* \"#utility.yul\":3971:3995   */\n      tag_146\n      jump\t// in\n    tag_215:\n        /* \"#utility.yul\":3966:3969   */\n      dup3\n        /* \"#utility.yul\":3959:3996   */\n      mstore\n        /* \"#utility.yul\":3884:4002   */\n      pop\n      pop\n      jump\t// out\n        /* \"#utility.yul\":4008:4230   */\n    tag_58:\n        /* \"#utility.yul\":4101:4105   */\n      0x00\n        /* \"#utility.yul\":4139:4141   */\n      0x20\n        /* \"#utility.yul\":4128:4137   */\n      dup3\n        /* \"#utility.yul\":4124:4142   */\n      add\n        /* \"#utility.yul\":4116:4142   */\n      swap1\n      pop\n        /* \"#utility.yul\":4152:4223   */\n      tag_217\n        /* \"#utility.yul\":4220:4221   */\n      0x00\n        /* \"#utility.yul\":4209:4218   */\n      dup4\n        /* \"#utility.yul\":4205:4222   */\n      add\n        /* \"#utility.yul\":4196:4202   */\n      dup5\n        /* \"#utility.yul\":4152:4223   */\n      tag_149\n      jump\t// in\n    tag_217:\n        /* \"#utility.yul\":4008:4230   */\n      swap3\n      swap2\n      pop\n      pop\n      jump\t// out\n        /* \"#utility.yul\":4236:4710   */\n    tag_66:\n        /* \"#utility.yul\":4304:4310   */\n      0x00\n        /* \"#utility.yul\":4312:4318   */\n      0x00\n        /* \"#utility.yul\":4361:4363   */\n      0x40\n        /* \"#utility.yul\":4349:4358   */\n      dup4\n        /* \"#utility.yul\":4340:4347   */\n      dup6\n        /* \"#utility.yul\":4336:4359   */\n      sub\n        /* \"#utility.yul\":4332:4364   */\n      slt\n        /* \"#utility.yul\":4329:4448   */\n      iszero\n      tag_219\n      jumpi\n        /* \"#utility.yul\":4367:4446   */\n      tag_220\n      tag_141\n      jump\t// in\n    tag_220:\n        /* \"#utility.yul\":4329:4448   */\n    tag_219:\n        /* \"#utility.yul\":4487:4488   */\n      0x00\n        /* \"#utility.yul\":4512:4565   */\n      tag_221\n        /* \"#utility.yul\":4557:4564   */\n      dup6\n        /* \"#utility.yul\":4548:4554   */\n      dup3\n        /* \"#utility.yul\":4537:4546   */\n      dup7\n        /* \"#utility.yul\":4533:4555   */\n      add\n        /* \"#utility.yul\":4512:4565   */\n      tag_148\n      jump\t// in\n    tag_221:\n        /* \"#utility.yul\":4502:4565   */\n      swap3\n      pop\n        /* \"#utility.yul\":4458:4575   */\n      pop\n        /* \"#utility.yul\":4614:4616   */\n      0x20\n        /* \"#utility.yul\":4640:4693   */\n      tag_222\n        /* \"#utility.yul\":4685:4692   */\n      dup6\n        /* \"#utility.yul\":4676:4682   */\n      dup3\n        /* \"#utility.yul\":4665:4674   */\n      dup7\n        /* \"#utility.yul\":4661:4683   */\n      add\n        /* \"#utility.yul\":4640:4693   */\n      tag_144\n      jump\t// in\n    tag_222:\n        /* \"#utility.yul\":4630:4693   */\n      swap2\n      pop\n        /* \"#utility.yul\":4585:4703   */\n      pop\n        /* \"#utility.yul\":4236:4710   */\n      swap3\n      pop\n      swap3\n      swap1\n      pop\n      jump\t// out\n        /* \"#utility.yul\":4716:4806   */\n    tag_150:\n        /* \"#utility.yul\":4750:4757   */\n      0x00\n        /* \"#utility.yul\":4793:4798   */\n      dup2\n        /* \"#utility.yul\":4786:4799   */\n      iszero\n        /* \"#utility.yul\":4779:4800   */\n      iszero\n        /* \"#utility.yul\":4768:4800   */\n      swap1\n      pop\n        /* \"#utility.yul\":4716:4806   */\n      swap2\n      swap1\n      pop\n      jump\t// out\n        /* \"#utility.yul\":4812:4921   */\n    tag_151:\n        /* \"#utility.yul\":4893:4914   */\n      tag_225\n        /* \"#utility.yul\":4908:4913   */\n      dup2\n        /* \"#utility.yul\":4893:4914   */\n      tag_150\n      jump\t// in\n    tag_225:\n        /* \"#utility.yul\":4888:4891   */\n      dup3\n        /* \"#utility.yul\":4881:4915   */\n      mstore\n        /* \"#utility.yul\":4812:4921   */\n      pop\n      pop\n      jump\t// out\n        /* \"#utility.yul\":4927:5137   */\n    tag_69:\n        /* \"#utility.yul\":5014:5018   */\n      0x00\n        /* \"#utility.yul\":5052:5054   */\n      0x20\n        /* \"#utility.yul\":5041:5050   */\n      dup3\n        /* \"#utility.yul\":5037:5055   */\n      add\n        /* \"#utility.yul\":5029:5055   */\n      swap1\n      pop\n        /* \"#utility.yul\":5065:5130   */\n      tag_227\n        /* \"#utility.yul\":5127:5128   */\n      0x00\n        /* \"#utility.yul\":5116:5125   */\n      dup4\n        /* \"#utility.yul\":5112:5129   */\n      add\n        /* \"#utility.yul\":5103:5109   */\n      dup5\n        /* \"#utility.yul\":5065:5130   */\n      tag_151\n      jump\t// in\n    tag_227:\n        /* \"#utility.yul\":4927:5137   */\n      swap3\n      swap2\n      pop\n      pop\n      jump\t// out\n        /* \"#utility.yul\":5143:5315   */\n    tag_152:\n        /* \"#utility.yul\":5283:5307   */\n      0x53656e642045544820746f2062757920746f6b656e7300000000000000000000\n        /* \"#utility.yul\":5279:5280   */\n      0x00\n        /* \"#utility.yul\":5271:5277   */\n      dup3\n        /* \"#utility.yul\":5267:5281   */\n      add\n        /* \"#utility.yul\":5260:5308   */\n      mstore\n        /* \"#utility.yul\":5143:5315   */\n      pop\n      jump\t// out\n        /* \"#utility.yul\":5321:5687   */\n    tag_153:\n        /* \"#utility.yul\":5463:5466   */\n      0x00\n        /* \"#utility.yul\":5484:5551   */\n      tag_230\n        /* \"#utility.yul\":5548:5550   */\n      0x16\n        /* \"#utility.yul\":5543:5546   */\n      dup4\n        /* \"#utility.yul\":5484:5551   */\n      tag_132\n      jump\t// in\n    tag_230:\n        /* \"#utility.yul\":5477:5551   */\n      swap2\n      pop\n        /* \"#utility.yul\":5560:5653   */\n      tag_231\n        /* \"#utility.yul\":5649:5652   */\n      dup3\n        /* \"#utility.yul\":5560:5653   */\n      tag_152\n      jump\t// in\n    tag_231:\n        /* \"#utility.yul\":5678:5680   */\n      0x20\n        /* \"#utility.yul\":5673:5676   */\n      dup3\n        /* \"#utility.yul\":5669:5681   */\n      add\n        /* \"#utility.yul\":5662:5681   */\n      swap1\n      pop\n        /* \"#utility.yul\":5321:5687   */\n      swap2\n      swap1\n      pop\n      jump\t// out\n        /* \"#utility.yul\":5693:6112   */\n    tag_77:\n        /* \"#utility.yul\":5859:5863   */\n      0x00\n        /* \"#utility.yul\":5897:5899   */\n      0x20\n        /* \"#utility.yul\":5886:5895   */\n      dup3\n        /* \"#utility.yul\":5882:5900   */\n      add\n        /* \"#utility.yul\":5874:5900   */\n      swap1\n      pop\n        /* \"#utility.yul\":5946:5955   */\n      dup2\n        /* \"#utility.yul\":5940:5944   */\n      dup2\n        /* \"#utility.yul\":5936:5956   */\n      sub\n        /* \"#utility.yul\":5932:5933   */\n      0x00\n        /* \"#utility.yul\":5921:5930   */\n      dup4\n        /* \"#utility.yul\":5917:5934   */\n      add\n        /* \"#utility.yul\":5910:5957   */\n      mstore\n        /* \"#utility.yul\":5974:6105   */\n      tag_233\n        /* \"#utility.yul\":6100:6104   */\n      dup2\n        /* \"#utility.yul\":5974:6105   */\n      tag_153\n      jump\t// in\n    tag_233:\n        /* \"#utility.yul\":5966:6105   */\n      swap1\n      pop\n        /* \"#utility.yul\":5693:6112   */\n      swap2\n      swap1\n      pop\n      jump\t// out\n        /* \"#utility.yul\":6118:6298   */\n    tag_154:\n        /* \"#utility.yul\":6166:6243   */\n      0x4e487b7100000000000000000000000000000000000000000000000000000000\n        /* \"#utility.yul\":6163:6164   */\n      0x00\n        /* \"#utility.yul\":6156:6244   */\n      mstore\n        /* \"#utility.yul\":6263:6267   */\n      0x11\n        /* \"#utility.yul\":6260:6261   */\n      0x04\n        /* \"#utility.yul\":6253:6268   */\n      mstore\n        /* \"#utility.yul\":6287:6291   */\n      0x24\n        /* \"#utility.yul\":6284:6285   */\n      0x00\n        /* \"#utility.yul\":6277:6292   */\n      revert\n        /* \"#utility.yul\":6304:6406   */\n    tag_155:\n        /* \"#utility.yul\":6346:6354   */\n      0x00\n        /* \"#utility.yul\":6393:6398   */\n      dup2\n        /* \"#utility.yul\":6390:6391   */\n      0x01\n        /* \"#utility.yul\":6386:6399   */\n      shr\n        /* \"#utility.yul\":6365:6399   */\n      swap1\n      pop\n        /* \"#utility.yul\":6304:6406   */\n      swap2\n      swap1\n      pop\n      jump\t// out\n        /* \"#utility.yul\":6412:7260   */\n    tag_156:\n        /* \"#utility.yul\":6473:6478   */\n      0x00\n        /* \"#utility.yul\":6480:6484   */\n      0x00\n        /* \"#utility.yul\":6504:6510   */\n      dup3\n        /* \"#utility.yul\":6495:6510   */\n      swap2\n      pop\n        /* \"#utility.yul\":6528:6533   */\n      dup4\n        /* \"#utility.yul\":6519:6533   */\n      swap1\n      pop\n        /* \"#utility.yul\":6542:7254   */\n    tag_237:\n        /* \"#utility.yul\":6563:6564   */\n      0x01\n        /* \"#utility.yul\":6553:6561   */\n      dup6\n        /* \"#utility.yul\":6550:6565   */\n      gt\n        /* \"#utility.yul\":6542:7254   */\n      iszero\n      tag_239\n      jumpi\n        /* \"#utility.yul\":6658:6662   */\n      dup1\n        /* \"#utility.yul\":6653:6656   */\n      dup7\n        /* \"#utility.yul\":6649:6663   */\n      div\n        /* \"#utility.yul\":6643:6647   */\n      dup2\n        /* \"#utility.yul\":6640:6664   */\n      gt\n        /* \"#utility.yul\":6637:6687   */\n      iszero\n      tag_240\n      jumpi\n        /* \"#utility.yul\":6667:6685   */\n      tag_241\n      tag_154\n      jump\t// in\n    tag_241:\n        /* \"#utility.yul\":6637:6687   */\n    tag_240:\n        /* \"#utility.yul\":6717:6718   */\n      0x01\n        /* \"#utility.yul\":6707:6715   */\n      dup6\n        /* \"#utility.yul\":6703:6719   */\n      and\n        /* \"#utility.yul\":6700:7151   */\n      iszero\n      tag_242\n      jumpi\n        /* \"#utility.yul\":7132:7136   */\n      dup1\n        /* \"#utility.yul\":7125:7130   */\n      dup3\n        /* \"#utility.yul\":7121:7137   */\n      mul\n        /* \"#utility.yul\":7112:7137   */\n      swap2\n      pop\n        /* \"#utility.yul\":6700:7151   */\n    tag_242:\n        /* \"#utility.yul\":7182:7186   */\n      dup1\n        /* \"#utility.yul\":7176:7180   */\n      dup2\n        /* \"#utility.yul\":7172:7187   */\n      mul\n        /* \"#utility.yul\":7164:7187   */\n      swap1\n      pop\n        /* \"#utility.yul\":7212:7244   */\n      tag_243\n        /* \"#utility.yul\":7235:7243   */\n      dup6\n        /* \"#utility.yul\":7212:7244   */\n      tag_155\n      jump\t// in\n    tag_243:\n        /* \"#utility.yul\":7200:7244   */\n      swap5\n      pop\n        /* \"#utility.yul\":6542:7254   */\n      jump(tag_237)\n    tag_239:\n        /* \"#utility.yul\":6412:7260   */\n      swap5\n      pop\n      swap5\n      swap3\n      pop\n      pop\n      pop\n      jump\t// out\n        /* \"#utility.yul\":7266:8339   */\n    tag_157:\n        /* \"#utility.yul\":7320:7325   */\n      0x00\n        /* \"#utility.yul\":7511:7519   */\n      dup3\n        /* \"#utility.yul\":7501:7541   */\n      tag_245\n      jumpi\n        /* \"#utility.yul\":7532:7533   */\n      0x01\n        /* \"#utility.yul\":7523:7533   */\n      swap1\n      pop\n        /* \"#utility.yul\":7534:7539   */\n      jump(tag_244)\n        /* \"#utility.yul\":7501:7541   */\n    tag_245:\n        /* \"#utility.yul\":7560:7564   */\n      dup2\n        /* \"#utility.yul\":7550:7586   */\n      tag_246\n      jumpi\n        /* \"#utility.yul\":7577:7578   */\n      0x00\n        /* \"#utility.yul\":7568:7578   */\n      swap1\n      pop\n        /* \"#utility.yul\":7579:7584   */\n      jump(tag_244)\n        /* \"#utility.yul\":7550:7586   */\n    tag_246:\n        /* \"#utility.yul\":7646:7650   */\n      dup2\n        /* \"#utility.yul\":7694:7695   */\n      0x01\n        /* \"#utility.yul\":7689:7716   */\n      dup2\n      eq\n      tag_248\n      jumpi\n        /* \"#utility.yul\":7730:7731   */\n      0x02\n        /* \"#utility.yul\":7725:7916   */\n      dup2\n      eq\n      tag_249\n      jumpi\n        /* \"#utility.yul\":7639:7916   */\n      jump(tag_247)\n        /* \"#utility.yul\":7689:7716   */\n    tag_248:\n        /* \"#utility.yul\":7707:7708   */\n      0x01\n        /* \"#utility.yul\":7698:7708   */\n      swap2\n      pop\n        /* \"#utility.yul\":7709:7714   */\n      pop\n      jump(tag_244)\n        /* \"#utility.yul\":7725:7916   */\n    tag_249:\n        /* \"#utility.yul\":7770:7773   */\n      0xff\n        /* \"#utility.yul\":7760:7768   */\n      dup5\n        /* \"#utility.yul\":7757:7774   */\n      gt\n        /* \"#utility.yul\":7754:7797   */\n      iszero\n      tag_250\n      jumpi\n        /* \"#utility.yul\":7777:7795   */\n      tag_251\n      tag_154\n      jump\t// in\n    tag_251:\n        /* \"#utility.yul\":7754:7797   */\n    tag_250:\n        /* \"#utility.yul\":7826:7834   */\n      dup4\n        /* \"#utility.yul\":7823:7824   */\n      0x02\n        /* \"#utility.yul\":7819:7835   */\n      exp\n        /* \"#utility.yul\":7810:7835   */\n      swap2\n      pop\n        /* \"#utility.yul\":7861:7864   */\n      dup5\n        /* \"#utility.yul\":7854:7859   */\n      dup3\n        /* \"#utility.yul\":7851:7865   */\n      gt\n        /* \"#utility.yul\":7848:7888   */\n      iszero\n      tag_252\n      jumpi\n        /* \"#utility.yul\":7868:7886   */\n      tag_253\n      tag_154\n      jump\t// in\n    tag_253:\n        /* \"#utility.yul\":7848:7888   */\n    tag_252:\n        /* \"#utility.yul\":7901:7906   */\n      pop\n      jump(tag_244)\n        /* \"#utility.yul\":7639:7916   */\n    tag_247:\n      pop\n        /* \"#utility.yul\":8025:8027   */\n      0x20\n        /* \"#utility.yul\":8015:8023   */\n      dup4\n        /* \"#utility.yul\":8012:8028   */\n      lt\n        /* \"#utility.yul\":8006:8009   */\n      0x0133\n        /* \"#utility.yul\":8000:8004   */\n      dup4\n        /* \"#utility.yul\":7997:8010   */\n      lt\n        /* \"#utility.yul\":7993:8029   */\n      and\n        /* \"#utility.yul\":7975:7977   */\n      0x4e\n        /* \"#utility.yul\":7965:7973   */\n      dup5\n        /* \"#utility.yul\":7962:7978   */\n      lt\n        /* \"#utility.yul\":7957:7959   */\n      0x0b\n        /* \"#utility.yul\":7951:7955   */\n      dup5\n        /* \"#utility.yul\":7948:7960   */\n      lt\n        /* \"#utility.yul\":7944:7979   */\n      and\n        /* \"#utility.yul\":7928:8039   */\n      or\n        /* \"#utility.yul\":7925:8171   */\n      iszero\n      tag_254\n      jumpi\n        /* \"#utility.yul\":8081:8089   */\n      dup3\n        /* \"#utility.yul\":8075:8079   */\n      dup3\n        /* \"#utility.yul\":8071:8090   */\n      exp\n        /* \"#utility.yul\":8062:8090   */\n      swap1\n      pop\n        /* \"#utility.yul\":8116:8119   */\n      dup4\n        /* \"#utility.yul\":8109:8114   */\n      dup2\n        /* \"#utility.yul\":8106:8120   */\n      gt\n        /* \"#utility.yul\":8103:8143   */\n      iszero\n      tag_255\n      jumpi\n        /* \"#utility.yul\":8123:8141   */\n      tag_256\n      tag_154\n      jump\t// in\n    tag_256:\n        /* \"#utility.yul\":8103:8143   */\n    tag_255:\n        /* \"#utility.yul\":8156:8161   */\n      jump(tag_244)\n        /* \"#utility.yul\":7925:8171   */\n    tag_254:\n        /* \"#utility.yul\":8196:8238   */\n      tag_257\n        /* \"#utility.yul\":8234:8237   */\n      dup5\n        /* \"#utility.yul\":8224:8232   */\n      dup5\n        /* \"#utility.yul\":8218:8222   */\n      dup5\n        /* \"#utility.yul\":8215:8216   */\n      0x01\n        /* \"#utility.yul\":8196:8238   */\n      tag_156\n      jump\t// in\n    tag_257:\n        /* \"#utility.yul\":8181:8238   */\n      swap3\n      pop\n      swap1\n      pop\n        /* \"#utility.yul\":8270:8274   */\n      dup2\n        /* \"#utility.yul\":8265:8268   */\n      dup5\n        /* \"#utility.yul\":8261:8275   */\n      div\n        /* \"#utility.yul\":8254:8259   */\n      dup2\n        /* \"#utility.yul\":8251:8276   */\n      gt\n        /* \"#utility.yul\":8248:8299   */\n      iszero\n      tag_258\n      jumpi\n        /* \"#utility.yul\":8279:8297   */\n      tag_259\n      tag_154\n      jump\t// in\n    tag_259:\n        /* \"#utility.yul\":8248:8299   */\n    tag_258:\n        /* \"#utility.yul\":8328:8332   */\n      dup2\n        /* \"#utility.yul\":8321:8326   */\n      dup2\n        /* \"#utility.yul\":8317:8333   */\n      mul\n        /* \"#utility.yul\":8308:8333   */\n      swap1\n      pop\n        /* \"#utility.yul\":7266:8339   */\n    tag_244:\n      swap4\n      swap3\n      pop\n      pop\n      pop\n      jump\t// out\n        /* \"#utility.yul\":8345:8630   */\n    tag_79:\n        /* \"#utility.yul\":8405:8410   */\n      0x00\n        /* \"#utility.yul\":8429:8452   */\n      tag_261\n        /* \"#utility.yul\":8447:8451   */\n      dup3\n        /* \"#utility.yul\":8429:8452   */\n      tag_136\n      jump\t// in\n    tag_261:\n        /* \"#utility.yul\":8421:8452   */\n      swap2\n      pop\n        /* \"#utility.yul\":8473:8500   */\n      tag_262\n        /* \"#utility.yul\":8491:8499   */\n      dup4\n        /* \"#utility.yul\":8473:8500   */\n      tag_136\n      jump\t// in\n    tag_262:\n        /* \"#utility.yul\":8461:8500   */\n      swap3\n      pop\n        /* \"#utility.yul\":8519:8623   */\n      tag_263\n        /* \"#utility.yul\":8556:8622   */\n      0xffffffffffffffffffffffffffffffffffffffffffffffffffffffffffffffff\n        /* \"#utility.yul\":8546:8554   */\n      dup5\n        /* \"#utility.yul\":8540:8544   */\n      dup5\n        /* \"#utility.yul\":8519:8623   */\n      tag_157\n      jump\t// in\n    tag_263:\n        /* \"#utility.yul\":8510:8623   */\n      swap1\n      pop\n        /* \"#utility.yul\":8345:8630   */\n      swap3\n      swap2\n      pop\n      pop\n      jump\t// out\n        /* \"#utility.yul\":8636:9046   */\n    tag_81:\n        /* \"#utility.yul\":8676:8683   */\n      0x00\n        /* \"#utility.yul\":8699:8719   */\n      tag_265\n        /* \"#utility.yul\":8717:8718   */\n      dup3\n        /* \"#utility.yul\":8699:8719   */\n      tag_136\n      jump\t// in\n    tag_265:\n        /* \"#utility.yul\":8694:8719   */\n      swap2\n      pop\n        /* \"#utility.yul\":8733:8753   */\n      tag_266\n        /* \"#utility.yul\":8751:8752   */\n      dup4\n        /* \"#utility.yul\":8733:8753   */\n      tag_136\n      jump\t// in\n    tag_266:\n        /* \"#utility.yul\":8728:8753   */\n      swap3\n      pop\n        /* \"#utility.yul\":8788:8789   */\n      dup3\n        /* \"#utility.yul\":8785:8786   */\n      dup3\n        /* \"#utility.yul\":8781:8790   */\n      mul\n        /* \"#utility.yul\":8810:8840   */\n      tag_267\n        /* \"#utility.yul\":8828:8839   */\n      dup2\n        /* \"#utility.yul\":8810:8840   */\n      tag_136\n      jump\t// in\n    tag_267:\n        /* \"#utility.yul\":8799:8840   */\n      swap2\n      pop\n        /* \"#utility.yul\":8989:8990   */\n      dup3\n        /* \"#utility.yul\":8980:8987   */\n      dup3\n        /* \"#utility.yul\":8976:8991   */\n      div\n        /* \"#utility.yul\":8973:8974   */\n      dup5\n        /* \"#utility.yul\":8970:8992   */\n      eq\n        /* \"#utility.yul\":8950:8951   */\n      dup4\n        /* \"#utility.yul\":8943:8952   */\n      iszero\n        /* \"#utility.yul\":8923:9006   */\n      or\n        /* \"#utility.yul\":8900:9039   */\n      tag_268\n      jumpi\n        /* \"#utility.yul\":9019:9037   */\n      tag_269\n      tag_154\n      jump\t// in\n    tag_269:\n        /* \"#utility.yul\":8900:9039   */\n    tag_268:\n        /* \"#utility.yul\":8684:9046   */\n      pop\n        /* \"#utility.yul\":8636:9046   */\n      swap3\n      swap2\n      pop\n      pop\n      jump\t// out\n        /* \"#utility.yul\":9052:9232   */\n    tag_158:\n        /* \"#utility.yul\":9100:9177   */\n      0x4e487b7100000000000000000000000000000000000000000000000000000000\n        /* \"#utility.yul\":9097:9098   */\n      0x00\n        /* \"#utility.yul\":9090:9178   */\n      mstore\n        /* \"#utility.yul\":9197:9201   */\n      0x12\n        /* \"#utility.yul\":9194:9195   */\n      0x04\n        /* \"#utility.yul\":9187:9202   */\n      mstore\n        /* \"#utility.yul\":9221:9225   */\n      0x24\n        /* \"#utility.yul\":9218:9219   */\n      0x00\n        /* \"#utility.yul\":9211:9226   */\n      revert\n        /* \"#utility.yul\":9238:9423   */\n    tag_83:\n        /* \"#utility.yul\":9278:9279   */\n      0x00\n        /* \"#utility.yul\":9295:9315   */\n      tag_272\n        /* \"#utility.yul\":9313:9314   */\n      dup3\n        /* \"#utility.yul\":9295:9315   */\n      tag_136\n      jump\t// in\n    tag_272:\n        /* \"#utility.yul\":9290:9315   */\n      swap2\n      pop\n        /* \"#utility.yul\":9329:9349   */\n      tag_273\n        /* \"#utility.yul\":9347:9348   */\n      dup4\n        /* \"#utility.yul\":9329:9349   */\n      tag_136\n      jump\t// in\n    tag_273:\n        /* \"#utility.yul\":9324:9349   */\n      swap3\n      pop\n        /* \"#utility.yul\":9368:9369   */\n      dup3\n        /* \"#utility.yul\":9358:9393   */\n      tag_274\n      jumpi\n        /* \"#utility.yul\":9373:9391   */\n      tag_275\n      tag_158\n      jump\t// in\n    tag_275:\n        /* \"#utility.yul\":9358:9393   */\n    tag_274:\n        /* \"#utility.yul\":9415:9416   */\n      dup3\n        /* \"#utility.yul\":9412:9413   */\n      dup3\n        /* \"#utility.yul\":9408:9417   */\n      div\n        /* \"#utility.yul\":9403:9417   */\n      swap1\n      pop\n        /* \"#utility.yul\":9238:9423   */\n      swap3\n      swap2\n      pop\n      pop\n      jump\t// out\n        /* \"#utility.yul\":9429:9607   */\n    tag_159:\n        /* \"#utility.yul\":9569:9599   */\n      0x4e6f7420656e6f75676820746f6b656e7320696e207265736572766500000000\n        /* \"#utility.yul\":9565:9566   */\n      0x00\n        /* \"#utility.yul\":9557:9563   */\n      dup3\n        /* \"#utility.yul\":9553:9567   */\n      add\n        /* \"#utility.yul\":9546:9600   */\n      mstore\n        /* \"#utility.yul\":9429:9607   */\n      pop\n      jump\t// out\n        /* \"#utility.yul\":9613:9979   */\n    tag_160:\n        /* \"#utility.yul\":9755:9758   */\n      0x00\n        /* \"#utility.yul\":9776:9843   */\n      tag_278\n        /* \"#utility.yul\":9840:9842   */\n      0x1c\n        /* \"#utility.yul\":9835:9838   */\n      dup4\n        /* \"#utility.yul\":9776:9843   */\n      tag_132\n      jump\t// in\n    tag_278:\n        /* \"#utility.yul\":9769:9843   */\n      swap2\n      pop\n        /* \"#utility.yul\":9852:9945   */\n      tag_279\n        /* \"#utility.yul\":9941:9944   */\n      dup3\n        /* \"#utility.yul\":9852:9945   */\n      tag_159\n      jump\t// in\n    tag_279:\n        /* \"#utility.yul\":9970:9972   */\n      0x20\n        /* \"#utility.yul\":9965:9968   */\n      dup3\n        /* \"#utility.yul\":9961:9973   */\n      add\n        /* \"#utility.yul\":9954:9973   */\n      swap1\n      pop\n        /* \"#utility.yul\":9613:9979   */\n      swap2\n      swap1\n      pop\n      jump\t// out\n        /* \"#utility.yul\":9985:10404   */\n    tag_86:\n        /* \"#utility.yul\":10151:10155   */\n      0x00\n        /* \"#utility.yul\":10189:10191   */\n      0x20\n        /* \"#utility.yul\":10178:10187   */\n      dup3\n        /* \"#utility.yul\":10174:10192   */\n      add\n        /* \"#utility.yul\":10166:10192   */\n      swap1\n      pop\n        /* \"#utility.yul\":10238:10247   */\n      dup2\n        /* \"#utility.yul\":10232:10236   */\n      dup2\n        /* \"#utility.yul\":10228:10248   */\n      sub\n        /* \"#utility.yul\":10224:10225   */\n      0x00\n        /* \"#utility.yul\":10213:10222   */\n      dup4\n        /* \"#utility.yul\":10209:10226   */\n      add\n        /* \"#utility.yul\":10202:10249   */\n      mstore\n        /* \"#utility.yul\":10266:10397   */\n      tag_281\n        /* \"#utility.yul\":10392:10396   */\n      dup2\n        /* \"#utility.yul\":10266:10397   */\n      tag_160\n      jump\t// in\n    tag_281:\n        /* \"#utility.yul\":10258:10397   */\n      swap1\n      pop\n        /* \"#utility.yul\":9985:10404   */\n      swap2\n      swap1\n      pop\n      jump\t// out\n        /* \"#utility.yul\":10410:10604   */\n    tag_88:\n        /* \"#utility.yul\":10450:10454   */\n      0x00\n        /* \"#utility.yul\":10470:10490   */\n      tag_283\n        /* \"#utility.yul\":10488:10489   */\n      dup3\n        /* \"#utility.yul\":10470:10490   */\n      tag_136\n      jump\t// in\n    tag_283:\n        /* \"#utility.yul\":10465:10490   */\n      swap2\n      pop\n        /* \"#utility.yul\":10504:10524   */\n      tag_284\n        /* \"#utility.yul\":10522:10523   */\n      dup4\n        /* \"#utility.yul\":10504:10524   */\n      tag_136\n      jump\t// in\n    tag_284:\n        /* \"#utility.yul\":10499:10524   */\n      swap3\n      pop\n        /* \"#utility.yul\":10548:10549   */\n      dup3\n        /* \"#utility.yul\":10545:10546   */\n      dup3\n        /* \"#utility.yul\":10541:10550   */\n      sub\n        /* \"#utility.yul\":10533:10550   */\n      swap1\n      pop\n        /* \"#utility.yul\":10572:10573   */\n      dup2\n        /* \"#utility.yul\":10566:10570   */\n      dup2\n        /* \"#utility.yul\":10563:10574   */\n      gt\n        /* \"#utility.yul\":10560:10597   */\n      iszero\n      tag_285\n      jumpi\n        /* \"#utility.yul\":10577:10595   */\n      tag_286\n      tag_154\n      jump\t// in\n    tag_286:\n        /* \"#utility.yul\":10560:10597   */\n    tag_285:\n        /* \"#utility.yul\":10410:10604   */\n      swap3\n      swap2\n      pop\n      pop\n      jump\t// out\n        /* \"#utility.yul\":10610:10801   */\n    tag_90:\n        /* \"#utility.yul\":10650:10653   */\n      0x00\n        /* \"#utility.yul\":10669:10689   */\n      tag_288\n        /* \"#utility.yul\":10687:10688   */\n      dup3\n        /* \"#utility.yul\":10669:10689   */\n      tag_136\n      jump\t// in\n    tag_288:\n        /* \"#utility.yul\":10664:10689   */\n      swap2\n      pop\n        /* \"#utility.yul\":10703:10723   */\n      tag_289\n        /* \"#utility.yul\":10721:10722   */\n      dup4\n        /* \"#utility.yul\":10703:10723   */\n      tag_136\n      jump\t// in\n    tag_289:\n        /* \"#utility.yul\":10698:10723   */\n      swap3\n      pop\n        /* \"#utility.yul\":10746:10747   */\n      dup3\n        /* \"#utility.yul\":10743:10744   */\n      dup3\n        /* \"#utility.yul\":10739:10748   */\n      add\n        /* \"#utility.yul\":10732:10748   */\n      swap1\n      pop\n        /* \"#utility.yul\":10767:10770   */\n      dup1\n        /* \"#utility.yul\":10764:10765   */\n      dup3\n        /* \"#utility.yul\":10761:10771   */\n      gt\n        /* \"#utility.yul\":10758:10794   */\n      iszero\n      tag_290\n      jumpi\n        /* \"#utility.yul\":10774:10792   */\n      tag_291\n      tag_154\n      jump\t// in\n    tag_291:\n        /* \"#utility.yul\":10758:10794   */\n    tag_290:\n        /* \"#utility.yul\":10610:10801   */\n      swap3\n      swap2\n      pop\n      pop\n      jump\t// out\n        /* \"#utility.yul\":10807:10987   */\n    tag_161:\n        /* \"#utility.yul\":10855:10932   */\n      0x4e487b7100000000000000000000000000000000000000000000000000000000\n        /* \"#utility.yul\":10852:10853   */\n      0x00\n        /* \"#utility.yul\":10845:10933   */\n      mstore\n        /* \"#utility.yul\":10952:10956   */\n      0x22\n        /* \"#utility.yul\":10949:10950   */\n      0x04\n        /* \"#utility.yul\":10942:10957   */\n      mstore\n        /* \"#utility.yul\":10976:10980   */\n      0x24\n        /* \"#utility.yul\":10973:10974   */\n      0x00\n        /* \"#utility.yul\":10966:10981   */\n      revert\n        /* \"#utility.yul\":10993:11313   */\n    tag_93:\n        /* \"#utility.yul\":11037:11043   */\n      0x00\n        /* \"#utility.yul\":11074:11075   */\n      0x02\n        /* \"#utility.yul\":11068:11072   */\n      dup3\n        /* \"#utility.yul\":11064:11076   */\n      div\n        /* \"#utility.yul\":11054:11076   */\n      swap1\n      pop\n        /* \"#utility.yul\":11121:11122   */\n      0x01\n        /* \"#utility.yul\":11115:11119   */\n      dup3\n        /* \"#utility.yul\":11111:11123   */\n      and\n        /* \"#utility.yul\":11142:11160   */\n      dup1\n        /* \"#utility.yul\":11132:11213   */\n      tag_294\n      jumpi\n        /* \"#utility.yul\":11198:11202   */\n      0x7f\n        /* \"#utility.yul\":11190:11196   */\n      dup3\n        /* \"#utility.yul\":11186:11203   */\n      and\n        /* \"#utility.yul\":11176:11203   */\n      swap2\n      pop\n        /* \"#utility.yul\":11132:11213   */\n    tag_294:\n        /* \"#utility.yul\":11260:11262   */\n      0x20\n        /* \"#utility.yul\":11252:11258   */\n      dup3\n        /* \"#utility.yul\":11249:11263   */\n      lt\n        /* \"#utility.yul\":11229:11247   */\n      dup2\n        /* \"#utility.yul\":11226:11264   */\n      sub\n        /* \"#utility.yul\":11223:11307   */\n      tag_295\n      jumpi\n        /* \"#utility.yul\":11279:11297   */\n      tag_296\n      tag_161\n      jump\t// in\n    tag_296:\n        /* \"#utility.yul\":11223:11307   */\n    tag_295:\n        /* \"#utility.yul\":11044:11313   */\n      pop\n        /* \"#utility.yul\":10993:11313   */\n      swap2\n      swap1\n      pop\n      jump\t// out\n        /* \"#utility.yul\":11319:11495   */\n    tag_162:\n        /* \"#utility.yul\":11459:11487   */\n      0x496e73756666696369656e7420746f6b656e2062616c616e6365000000000000\n        /* \"#utility.yul\":11455:11456   */\n      0x00\n        /* \"#utility.yul\":11447:11453   */\n      dup3\n        /* \"#utility.yul\":11443:11457   */\n      add\n        /* \"#utility.yul\":11436:11488   */\n      mstore\n        /* \"#utility.yul\":11319:11495   */\n      pop\n      jump\t// out\n        /* \"#utility.yul\":11501:11867   */\n    tag_163:\n        /* \"#utility.yul\":11643:11646   */\n      0x00\n        /* \"#utility.yul\":11664:11731   */\n      tag_299\n        /* \"#utility.yul\":11728:11730   */\n      0x1a\n        /* \"#utility.yul\":11723:11726   */\n      dup4\n        /* \"#utility.yul\":11664:11731   */\n      tag_132\n      jump\t// in\n    tag_299:\n        /* \"#utility.yul\":11657:11731   */\n      swap2\n      pop\n        /* \"#utility.yul\":11740:11833   */\n      tag_300\n        /* \"#utility.yul\":11829:11832   */\n      dup3\n        /* \"#utility.yul\":11740:11833   */\n      tag_162\n      jump\t// in\n    tag_300:\n        /* \"#utility.yul\":11858:11860   */\n      0x20\n        /* \"#utility.yul\":11853:11856   */\n      dup3\n        /* \"#utility.yul\":11849:11861   */\n      add\n        /* \"#utility.yul\":11842:11861   */\n      swap1\n      pop\n        /* \"#utility.yul\":11501:11867   */\n      swap2\n      swap1\n      pop\n      jump\t// out\n        /* \"#utility.yul\":11873:12292   */\n    tag_102:\n        /* \"#utility.yul\":12039:12043   */\n      0x00\n        /* \"#utility.yul\":12077:12079   */\n      0x20\n        /* \"#utility.yul\":12066:12075   */\n      dup3\n        /* \"#utility.yul\":12062:12080   */\n      add\n        /* \"#utility.yul\":12054:12080   */\n      swap1\n      pop\n        /* \"#utility.yul\":12126:12135   */\n      dup2\n        /* \"#utility.yul\":12120:12124   */\n      dup2\n        /* \"#utility.yul\":12116:12136   */\n      sub\n        /* \"#utility.yul\":12112:12113   */\n      0x00\n        /* \"#utility.yul\":12101:12110   */\n      dup4\n        /* \"#utility.yul\":12097:12114   */\n      add\n        /* \"#utility.yul\":12090:12137   */\n      mstore\n        /* \"#utility.yul\":12154:12285   */\n      tag_302\n        /* \"#utility.yul\":12280:12284   */\n      dup2\n        /* \"#utility.yul\":12154:12285   */\n      tag_163\n      jump\t// in\n    tag_302:\n        /* \"#utility.yul\":12146:12285   */\n      swap1\n      pop\n        /* \"#utility.yul\":11873:12292   */\n      swap2\n      swap1\n      pop\n      jump\t// out\n        /* \"#utility.yul\":12298:12466   */\n    tag_164:\n        /* \"#utility.yul\":12438:12458   */\n      0x4f6e6c79206f776e657220616c6c6f7765640000000000000000000000000000\n        /* \"#utility.yul\":12434:12435   */\n      0x00\n        /* \"#utility.yul\":12426:12432   */\n      dup3\n        /* \"#utility.yul\":12422:12436   */\n      add\n        /* \"#utility.yul\":12415:12459   */\n      mstore\n        /* \"#utility.yul\":12298:12466   */\n      pop\n      jump\t// out\n        /* \"#utility.yul\":12472:12838   */\n    tag_165:\n        /* \"#utility.yul\":12614:12617   */\n      0x00\n        /* \"#utility.yul\":12635:12702   */\n      tag_305\n        /* \"#utility.yul\":12699:12701   */\n      0x12\n        /* \"#utility.yul\":12694:12697   */\n      dup4\n        /* \"#utility.yul\":12635:12702   */\n      tag_132\n      jump\t// in\n    tag_305:\n        /* \"#utility.yul\":12628:12702   */\n      swap2\n      pop\n        /* \"#utility.yul\":12711:12804   */\n      tag_306\n        /* \"#utility.yul\":12800:12803   */\n      dup3\n        /* \"#utility.yul\":12711:12804   */\n      tag_164\n      jump\t// in\n    tag_306:\n        /* \"#utility.yul\":12829:12831   */\n      0x20\n        /* \"#utility.yul\":12824:12827   */\n      dup3\n        /* \"#utility.yul\":12820:12832   */\n      add\n        /* \"#utility.yul\":12813:12832   */\n      swap1\n      pop\n        /* \"#utility.yul\":12472:12838   */\n      swap2\n      swap1\n      pop\n      jump\t// out\n        /* \"#utility.yul\":12844:13263   */\n    tag_110:\n        /* \"#utility.yul\":13010:13014   */\n      0x00\n        /* \"#utility.yul\":13048:13050   */\n      0x20\n        /* \"#utility.yul\":13037:13046   */\n      dup3\n        /* \"#utility.yul\":13033:13051   */\n      add\n        /* \"#utility.yul\":13025:13051   */\n      swap1\n      pop\n        /* \"#utility.yul\":13097:13106   */\n      dup2\n        /* \"#utility.yul\":13091:13095   */\n      dup2\n        /* \"#utility.yul\":13087:13107   */\n      sub\n        /* \"#utility.yul\":13083:13084   */\n      0x00\n        /* \"#utility.yul\":13072:13081   */\n      dup4\n        /* \"#utility.yul\":13068:13085   */\n      add\n        /* \"#utility.yul\":13061:13108   */\n      mstore\n        /* \"#utility.yul\":13125:13256   */\n      tag_308\n        /* \"#utility.yul\":13251:13255   */\n      dup2\n        /* \"#utility.yul\":13125:13256   */\n      tag_165\n      jump\t// in\n    tag_308:\n        /* \"#utility.yul\":13117:13256   */\n      swap1\n      pop\n        /* \"#utility.yul\":12844:13263   */\n      swap2\n      swap1\n      pop\n      jump\t// out\n        /* \"#utility.yul\":13269:13436   */\n    tag_166:\n        /* \"#utility.yul\":13409:13428   */\n      0x4e6f7420656e6f75676820746f6b656e73000000000000000000000000000000\n        /* \"#utility.yul\":13405:13406   */\n      0x00\n        /* \"#utility.yul\":13397:13403   */\n      dup3\n        /* \"#utility.yul\":13393:13407   */\n      add\n        /* \"#utility.yul\":13386:13429   */\n      mstore\n        /* \"#utility.yul\":13269:13436   */\n      pop\n      jump\t// out\n        /* \"#utility.yul\":13442:13808   */\n    tag_167:\n        /* \"#utility.yul\":13584:13587   */\n      0x00\n        /* \"#utility.yul\":13605:13672   */\n      tag_311\n        /* \"#utility.yul\":13669:13671   */\n      0x11\n        /* \"#utility.yul\":13664:13667   */\n      dup4\n        /* \"#utility.yul\":13605:13672   */\n      tag_132\n      jump\t// in\n    tag_311:\n        /* \"#utility.yul\":13598:13672   */\n      swap2\n      pop\n        /* \"#utility.yul\":13681:13774   */\n      tag_312\n        /* \"#utility.yul\":13770:13773   */\n      dup3\n        /* \"#utility.yul\":13681:13774   */\n      tag_166\n      jump\t// in\n    tag_312:\n        /* \"#utility.yul\":13799:13801   */\n      0x20\n        /* \"#utility.yul\":13794:13797   */\n      dup3\n        /* \"#utility.yul\":13790:13802   */\n      add\n        /* \"#utility.yul\":13783:13802   */\n      swap1\n      pop\n        /* \"#utility.yul\":13442:13808   */\n      swap2\n      swap1\n      pop\n      jump\t// out\n        /* \"#utility.yul\":13814:14233   */\n    tag_121:\n        /* \"#utility.yul\":13980:13984   */\n      0x00\n        /* \"#utility.yul\":14018:14020   */\n      0x20\n        /* \"#utility.yul\":14007:14016   */\n      dup3\n        /* \"#utility.yul\":14003:14021   */\n      add\n        /* \"#utility.yul\":13995:14021   */\n      swap1\n      pop\n        /* \"#utility.yul\":14067:14076   */\n      dup2\n        /* \"#utility.yul\":14061:14065   */\n      dup2\n        /* \"#utility.yul\":14057:14077   */\n      sub\n        /* \"#utility.yul\":14053:14054   */\n      0x00\n        /* \"#utility.yul\":14042:14051   */\n      dup4\n        /* \"#utility.yul\":14038:14055   */\n      add\n        /* \"#utility.yul\":14031:14078   */\n      mstore\n        /* \"#utility.yul\":14095:14226   */\n      tag_314\n        /* \"#utility.yul\":14221:14225   */\n      dup2\n        /* \"#utility.yul\":14095:14226   */\n      tag_167\n      jump\t// in\n    tag_314:\n        /* \"#utility.yul\":14087:14226   */\n      swap1\n      pop\n        /* \"#utility.yul\":13814:14233   */\n      swap2\n      swap1\n      pop\n      jump\t// out\n\n    auxdata: 0xa2646970667358221220298be8a0f0a55649be4822f13439f3022aef49597d8fc05aa63487f88758aabf64736f6c634300081e0033\n}\n",
				"bytecode": {
					"linkReferences": {},
					"object": "60806040526040518060400160405280600c81526020017f41656e7a626920546f6b656e00000000000000000000000000000000000000008152505f90816100479190610501565b506040518060400160405280600381526020017f415a5400000000000000000000000000000000000000000000000000000000008152506001908161008c9190610501565b50601260025f6101000a81548160ff021916908360ff160217905550670de0b6b3a76400006005553480156100bf575f5ffd5b50604051611c5c380380611c5c83398181016040528101906100e191906105fe565b3360045f6101000a81548173ffffffffffffffffffffffffffffffffffffffff021916908373ffffffffffffffffffffffffffffffffffffffff16021790555061017a60045f9054906101000a900473ffffffffffffffffffffffffffffffffffffffff1660025f9054906101000a900460ff1660ff16600a6101649190610785565b8361016f91906107cf565b61018060201b60201c565b506108e3565b600a73ffffffffffffffffffffffffffffffffffffffff168273ffffffffffffffffffffffffffffffffffffffff16036101ef576040517f08c379a00000000000000000000000000000000000000000000000000000000081526004016101e69061086a565b60405180910390fd5b8060035f8282546102009190610888565b925050819055508060065f8473ffffffffffffffffffffffffffffffffffffffff1673ffffffffffffffffffffffffffffffffffffffff1681526020019081526020015f205f8282546102539190610888565b925050819055508173ffffffffffffffffffffffffffffffffffffffff16600a73ffffffffffffffffffffffffffffffffffffffff167fddf252ad1be2c89b69c2b068fc378daa952ba7f163c4a11628f55a4df523b3ef836040516102b891906108ca565b60405180910390a35050565b5f81519050919050565b7f4e487b71000000000000000000000000000000000000000000000000000000005f52604160045260245ffd5b7f4e487b71000000000000000000000000000000000000000000000000000000005f52602260045260245ffd5b5f600282049050600182168061033f57607f821691505b602082108103610352576103516102fb565b5b50919050565b5f819050815f5260205f209050919050565b5f6020601f8301049050919050565b5f82821b905092915050565b5f600883026103b47fffffffffffffffffffffffffffffffffffffffffffffffffffffffffffffffff82610379565b6103be8683610379565b95508019841693508086168417925050509392505050565b5f819050919050565b5f819050919050565b5f6104026103fd6103f8846103d6565b6103df565b6103d6565b9050919050565b5f819050919050565b61041b836103e8565b61042f61042782610409565b848454610385565b825550505050565b5f5f905090565b610446610437565b610451818484610412565b505050565b5b81811015610474576104695f8261043e565b600181019050610457565b5050565b601f8211156104b95761048a81610358565b6104938461036a565b810160208510156104a2578190505b6104b66104ae8561036a565b830182610456565b50505b505050565b5f82821c905092915050565b5f6104d95f19846008026104be565b1980831691505092915050565b5f6104f183836104ca565b9150826002028217905092915050565b61050a826102c4565b67ffffffffffffffff811115610523576105226102ce565b5b61052d8254610328565b610538828285610478565b5f60209050601f831160018114610569575f8415610557578287015190505b61056185826104e6565b8655506105c8565b601f19841661057786610358565b5f5b8281101561059e57848901518255600182019150602085019450602081019050610579565b868310156105bb57848901516105b7601f8916826104ca565b8355505b6001600288020188555050505b505050505050565b5f5ffd5b6105dd816103d6565b81146105e7575f5ffd5b50565b5f815190506105f8816105d4565b92915050565b5f60208284031215610613576106126105d0565b5b5f610620848285016105ea565b91505092915050565b7f4e487b71000000000000000000000000000000000000000000000000000000005f52601160045260245ffd5b5f8160011c9050919050565b5f5f8291508390505b60018511156106ab5780860481111561068757610686610629565b5b60018516156106965780820291505b80810290506106a485610656565b945061066b565b94509492505050565b5f826106c3576001905061077e565b816106d0575f905061077e565b81600181146106e657600281146106f05761071f565b600191505061077e565b60ff84111561070257610701610629565b5b8360020a91508482111561071957610718610629565b5b5061077e565b5060208310610133831016604e8410600b84101617156107545782820a90508381111561074f5761074e610629565b5b61077e565b6107618484846001610662565b9250905081840481111561077857610777610629565b5b81810290505b9392505050565b5f61078f826103d6565b915061079a836103d6565b92506107c77fffffffffffffffffffffffffffffffffffffffffffffffffffffffffffffffff84846106b4565b905092915050565b5f6107d9826103d6565b91506107e4836103d6565b92508282026107f2816103d6565b9150828204841483151761080957610808610629565b5b5092915050565b5f82825260208201905092915050565b7f5a65726f2061646472657373206e6f7420616c6c6f77656400000000000000005f82015250565b5f610854601883610810565b915061085f82610820565b602082019050919050565b5f6020820190508181035f83015261088181610848565b9050919050565b5f610892826103d6565b915061089d836103d6565b92508282019050808211156108b5576108b4610629565b5b92915050565b6108c4816103d6565b82525050565b5f6020820190506108dd5f8301846108bb565b92915050565b61136c806108f05f395ff3fe6080604052600436106100aa575f3560e01c80637ff9b596116100635780637ff9b596146101c75780638da5cb5b146101f157806395d89b411461021b578063a9059cbb14610245578063d0febe4c14610281578063e086e5ec1461028b576100b9565b806306fdde03146100bd57806318160ddd146100e7578063313ce567146101115780634064a6ee1461013b5780636a61e5fc1461016357806370a082311461018b576100b9565b366100b9576100b76102a1565b005b5f5ffd5b3480156100c8575f5ffd5b506100d16104d5565b6040516100de9190610c2b565b60405180910390f35b3480156100f2575f5ffd5b506100fb610560565b6040516101089190610c63565b60405180910390f35b34801561011c575f5ffd5b50610125610569565b6040516101329190610c97565b60405180910390f35b348015610146575f5ffd5b50610161600480360381019061015c9190610cde565b61057b565b005b34801561016e575f5ffd5b5061018960048036038101906101849190610cde565b610799565b005b348015610196575f5ffd5b506101b160048036038101906101ac9190610d63565b610832565b6040516101be9190610c63565b60405180910390f35b3480156101d2575f5ffd5b506101db610878565b6040516101e89190610c63565b60405180910390f35b3480156101fc575f5ffd5b5061020561087e565b6040516102129190610d9d565b60405180910390f35b348015610226575f5ffd5b5061022f6108a3565b60405161023c9190610c2b565b60405180910390f35b348015610250575f5ffd5b5061026b60048036038101906102669190610db6565b61092f565b6040516102789190610e0e565b60405180910390f35b6102896102a1565b005b348015610296575f5ffd5b5061029f610ac5565b005b5f34116102e3576040517f08c379a00000000000000000000000000000000000000000000000000000000081526004016102da90610e71565b60405180910390fd5b5f60055460025f9054906101000a900460ff1660ff16600a6103059190610feb565b346103109190611035565b61031a91906110a3565b90508060065f60045f9054906101000a900473ffffffffffffffffffffffffffffffffffffffff1673ffffffffffffffffffffffffffffffffffffffff1673ffffffffffffffffffffffffffffffffffffffff1681526020019081526020015f205410156103bd576040517f08c379a00000000000000000000000000000000000000000000000000000000081526004016103b49061111d565b60405180910390fd5b8060065f60045f9054906101000a900473ffffffffffffffffffffffffffffffffffffffff1673ffffffffffffffffffffffffffffffffffffffff1673ffffffffffffffffffffffffffffffffffffffff1681526020019081526020015f205f82825461042a919061113b565b925050819055508060065f3373ffffffffffffffffffffffffffffffffffffffff1673ffffffffffffffffffffffffffffffffffffffff1681526020019081526020015f205f82825461047d919061116e565b925050819055503373ffffffffffffffffffffffffffffffffffffffff167f55c18555197c6574627cf460c66073d10aa05d412468800b7b71feeaf82ea92d826040516104ca9190610c63565b60405180910390a250565b5f80546104e1906111ce565b80601f016020809104026020016040519081016040528092919081815260200182805461050d906111ce565b80156105585780601f1061052f57610100808354040283529160200191610558565b820191905f5260205f20905b81548152906001019060200180831161053b57829003601f168201915b505050505081565b5f600354905090565b60025f9054906101000a900460ff1681565b8060065f3373ffffffffffffffffffffffffffffffffffffffff1673ffffffffffffffffffffffffffffffffffffffff1681526020019081526020015f205410156105fb576040517f08c379a00000000000000000000000000000000000000000000000000000000081526004016105f290611248565b60405180910390fd5b8060065f3373ffffffffffffffffffffffffffffffffffffffff1673ffffffffffffffffffffffffffffffffffffffff1681526020019081526020015f205f828254610647919061113b565b925050819055508060065f60045f9054906101000a900473ffffffffffffffffffffffffffffffffffffffff1673ffffffffffffffffffffffffffffffffffffffff1673ffffffffffffffffffffffffffffffffffffffff1681526020019081526020015f205f8282546106bb919061116e565b9250508190555060045f9054906101000a900473ffffffffffffffffffffffffffffffffffffffff1673ffffffffffffffffffffffffffffffffffffffff163373ffffffffffffffffffffffffffffffffffffffff167fddf252ad1be2c89b69c2b068fc378daa952ba7f163c4a11628f55a4df523b3ef836040516107409190610c63565b60405180910390a33373ffffffffffffffffffffffffffffffffffffffff167f6ef95f06320e7a25a04a175ca677b7052bdd97131872c2192525a629f51be7708260405161078e9190610c63565b60405180910390a250565b60045f9054906101000a900473ffffffffffffffffffffffffffffffffffffffff1673ffffffffffffffffffffffffffffffffffffffff163373ffffffffffffffffffffffffffffffffffffffff1614610828576040517f08c379a000000000000000000000000000000000000000000000000000000000815260040161081f906112b0565b60405180910390fd5b8060058190555050565b5f60065f8373ffffffffffffffffffffffffffffffffffffffff1673ffffffffffffffffffffffffffffffffffffffff1681526020019081526020015f20549050919050565b60055481565b60045f9054906101000a900473ffffffffffffffffffffffffffffffffffffffff1681565b600180546108b0906111ce565b80601f01602080910402602001604051908101604052809291908181526020018280546108dc906111ce565b80156109275780601f106108fe57610100808354040283529160200191610927565b820191905f5260205f20905b81548152906001019060200180831161090a57829003601f168201915b505050505081565b5f8160065f3373ffffffffffffffffffffffffffffffffffffffff1673ffffffffffffffffffffffffffffffffffffffff1681526020019081526020015f205410156109b0576040517f08c379a00000000000000000000000000000000000000000000000000000000081526004016109a790611318565b60405180910390fd5b8160065f3373ffffffffffffffffffffffffffffffffffffffff1673ffffffffffffffffffffffffffffffffffffffff1681526020019081526020015f205f8282546109fc919061113b565b925050819055508160065f8573ffffffffffffffffffffffffffffffffffffffff1673ffffffffffffffffffffffffffffffffffffffff1681526020019081526020015f205f828254610a4f919061116e565b925050819055508273ffffffffffffffffffffffffffffffffffffffff163373ffffffffffffffffffffffffffffffffffffffff167fddf252ad1be2c89b69c2b068fc378daa952ba7f163c4a11628f55a4df523b3ef84604051610ab39190610c63565b60405180910390a36001905092915050565b60045f9054906101000a900473ffffffffffffffffffffffffffffffffffffffff1673ffffffffffffffffffffffffffffffffffffffff163373ffffffffffffffffffffffffffffffffffffffff1614610b54576040517f08c379a0000000000000000000000000000000000000000000000000000000008152600401610b4b906112b0565b60405180910390fd5b60045f9054906101000a900473ffffffffffffffffffffffffffffffffffffffff1673ffffffffffffffffffffffffffffffffffffffff166108fc4790811502906040515f60405180830381858888f19350505050158015610bb8573d5f5f3e3d5ffd5b50565b5f81519050919050565b5f82825260208201905092915050565b8281835e5f83830152505050565b5f601f19601f8301169050919050565b5f610bfd82610bbb565b610c078185610bc5565b9350610c17818560208601610bd5565b610c2081610be3565b840191505092915050565b5f6020820190508181035f830152610c438184610bf3565b905092915050565b5f819050919050565b610c5d81610c4b565b82525050565b5f602082019050610c765f830184610c54565b92915050565b5f60ff82169050919050565b610c9181610c7c565b82525050565b5f602082019050610caa5f830184610c88565b92915050565b5f5ffd5b610cbd81610c4b565b8114610cc7575f5ffd5b50565b5f81359050610cd881610cb4565b92915050565b5f60208284031215610cf357610cf2610cb0565b5b5f610d0084828501610cca565b91505092915050565b5f73ffffffffffffffffffffffffffffffffffffffff82169050919050565b5f610d3282610d09565b9050919050565b610d4281610d28565b8114610d4c575f5ffd5b50565b5f81359050610d5d81610d39565b92915050565b5f60208284031215610d7857610d77610cb0565b5b5f610d8584828501610d4f565b91505092915050565b610d9781610d28565b82525050565b5f602082019050610db05f830184610d8e565b92915050565b5f5f60408385031215610dcc57610dcb610cb0565b5b5f610dd985828601610d4f565b9250506020610dea85828601610cca565b9150509250929050565b5f8115159050919050565b610e0881610df4565b82525050565b5f602082019050610e215f830184610dff565b92915050565b7f53656e642045544820746f2062757920746f6b656e73000000000000000000005f82015250565b5f610e5b601683610bc5565b9150610e6682610e27565b602082019050919050565b5f6020820190508181035f830152610e8881610e4f565b9050919050565b7f4e487b71000000000000000000000000000000000000000000000000000000005f52601160045260245ffd5b5f8160011c9050919050565b5f5f8291508390505b6001851115610f1157808604811115610eed57610eec610e8f565b5b6001851615610efc5780820291505b8081029050610f0a85610ebc565b9450610ed1565b94509492505050565b5f82610f295760019050610fe4565b81610f36575f9050610fe4565b8160018114610f4c5760028114610f5657610f85565b6001915050610fe4565b60ff841115610f6857610f67610e8f565b5b8360020a915084821115610f7f57610f7e610e8f565b5b50610fe4565b5060208310610133831016604e8410600b8410161715610fba5782820a905083811115610fb557610fb4610e8f565b5b610fe4565b610fc78484846001610ec8565b92509050818404811115610fde57610fdd610e8f565b5b81810290505b9392505050565b5f610ff582610c4b565b915061100083610c4b565b925061102d7fffffffffffffffffffffffffffffffffffffffffffffffffffffffffffffffff8484610f1a565b905092915050565b5f61103f82610c4b565b915061104a83610c4b565b925082820261105881610c4b565b9150828204841483151761106f5761106e610e8f565b5b5092915050565b7f4e487b71000000000000000000000000000000000000000000000000000000005f52601260045260245ffd5b5f6110ad82610c4b565b91506110b883610c4b565b9250826110c8576110c7611076565b5b828204905092915050565b7f4e6f7420656e6f75676820746f6b656e7320696e2072657365727665000000005f82015250565b5f611107601c83610bc5565b9150611112826110d3565b602082019050919050565b5f6020820190508181035f830152611134816110fb565b9050919050565b5f61114582610c4b565b915061115083610c4b565b925082820390508181111561116857611167610e8f565b5b92915050565b5f61117882610c4b565b915061118383610c4b565b925082820190508082111561119b5761119a610e8f565b5b92915050565b7f4e487b71000000000000000000000000000000000000000000000000000000005f52602260045260245ffd5b5f60028204905060018216806111e557607f821691505b6020821081036111f8576111f76111a1565b5b50919050565b7f496e73756666696369656e7420746f6b656e2062616c616e63650000000000005f82015250565b5f611232601a83610bc5565b915061123d826111fe565b602082019050919050565b5f6020820190508181035f83015261125f81611226565b9050919050565b7f4f6e6c79206f776e657220616c6c6f77656400000000000000000000000000005f82015250565b5f61129a601283610bc5565b91506112a582611266565b602082019050919050565b5f6020820190508181035f8301526112c78161128e565b9050919050565b7f4e6f7420656e6f75676820746f6b656e730000000000000000000000000000005f82015250565b5f611302601183610bc5565b915061130d826112ce565b602082019050919050565b5f6020820190508181035f83015261132f816112f6565b905091905056fea2646970667358221220298be8a0f0a55649be4822f13439f3022aef49597d8fc05aa63487f88758aabf64736f6c634300081e0033",
					"opcodes": "PUSH1 0x80 PUSH1 0x40 MSTORE PUSH1 0x40 MLOAD DUP1 PUSH1 0x40 ADD PUSH1 0x40 MSTORE DUP1 PUSH1 0xC DUP2 MSTORE PUSH1 0x20 ADD PUSH32 0x41656E7A626920546F6B656E0000000000000000000000000000000000000000 DUP2 MSTORE POP PUSH0 SWAP1 DUP2 PUSH2 0x47 SWAP2 SWAP1 PUSH2 0x501 JUMP JUMPDEST POP PUSH1 0x40 MLOAD DUP1 PUSH1 0x40 ADD PUSH1 0x40 MSTORE DUP1 PUSH1 0x3 DUP2 MSTORE PUSH1 0x20 ADD PUSH32 0x415A540000000000000000000000000000000000000000000000000000000000 DUP2 MSTORE POP PUSH1 0x1 SWAP1 DUP2 PUSH2 0x8C SWAP2 SWAP1 PUSH2 0x501 JUMP JUMPDEST POP PUSH1 0x12 PUSH1 0x2 PUSH0 PUSH2 0x100 EXP DUP2 SLOAD DUP2 PUSH1 0xFF MUL NOT AND SWAP1 DUP4 PUSH1 0xFF AND MUL OR SWAP1 SSTORE POP PUSH8 0xDE0B6B3A7640000 PUSH1 0x5 SSTORE CALLVALUE DUP1 ISZERO PUSH2 0xBF JUMPI PUSH0 PUSH0 REVERT JUMPDEST POP PUSH1 0x40 MLOAD PUSH2 0x1C5C CODESIZE SUB DUP1 PUSH2 0x1C5C DUP4 CODECOPY DUP2 DUP2 ADD PUSH1 0x40 MSTORE DUP2 ADD SWAP1 PUSH2 0xE1 SWAP2 SWAP1 PUSH2 0x5FE JUMP JUMPDEST CALLER PUSH1 0x4 PUSH0 PUSH2 0x100 EXP DUP2 SLOAD DUP2 PUSH20 0xFFFFFFFFFFFFFFFFFFFFFFFFFFFFFFFFFFFFFFFF MUL NOT AND SWAP1 DUP4 PUSH20 0xFFFFFFFFFFFFFFFFFFFFFFFFFFFFFFFFFFFFFFFF AND MUL OR SWAP1 SSTORE POP PUSH2 0x17A PUSH1 0x4 PUSH0 SWAP1 SLOAD SWAP1 PUSH2 0x100 EXP SWAP1 DIV PUSH20 0xFFFFFFFFFFFFFFFFFFFFFFFFFFFFFFFFFFFFFFFF AND PUSH1 0x2 PUSH0 SWAP1 SLOAD SWAP1 PUSH2 0x100 EXP SWAP1 DIV PUSH1 0xFF AND PUSH1 0xFF AND PUSH1 0xA PUSH2 0x164 SWAP2 SWAP1 PUSH2 0x785 JUMP JUMPDEST DUP4 PUSH2 0x16F SWAP2 SWAP1 PUSH2 0x7CF JUMP JUMPDEST PUSH2 0x180 PUSH1 0x20 SHL PUSH1 0x20 SHR JUMP JUMPDEST POP PUSH2 0x8E3 JUMP JUMPDEST PUSH1 0xA PUSH20 0xFFFFFFFFFFFFFFFFFFFFFFFFFFFFFFFFFFFFFFFF AND DUP3 PUSH20 0xFFFFFFFFFFFFFFFFFFFFFFFFFFFFFFFFFFFFFFFF AND SUB PUSH2 0x1EF JUMPI PUSH1 0x40 MLOAD PUSH32 0x8C379A000000000000000000000000000000000000000000000000000000000 DUP2 MSTORE PUSH1 0x4 ADD PUSH2 0x1E6 SWAP1 PUSH2 0x86A JUMP JUMPDEST PUSH1 0x40 MLOAD DUP1 SWAP2 SUB SWAP1 REVERT JUMPDEST DUP1 PUSH1 0x3 PUSH0 DUP3 DUP3 SLOAD PUSH2 0x200 SWAP2 SWAP1 PUSH2 0x888 JUMP JUMPDEST SWAP3 POP POP DUP2 SWAP1 SSTORE POP DUP1 PUSH1 0x6 PUSH0 DUP5 PUSH20 0xFFFFFFFFFFFFFFFFFFFFFFFFFFFFFFFFFFFFFFFF AND PUSH20 0xFFFFFFFFFFFFFFFFFFFFFFFFFFFFFFFFFFFFFFFF AND DUP2 MSTORE PUSH1 0x20 ADD SWAP1 DUP2 MSTORE PUSH1 0x20 ADD PUSH0 KECCAK256 PUSH0 DUP3 DUP3 SLOAD PUSH2 0x253 SWAP2 SWAP1 PUSH2 0x888 JUMP JUMPDEST SWAP3 POP POP DUP2 SWAP1 SSTORE POP DUP2 PUSH20 0xFFFFFFFFFFFFFFFFFFFFFFFFFFFFFFFFFFFFFFFF AND PUSH1 0xA PUSH20 0xFFFFFFFFFFFFFFFFFFFFFFFFFFFFFFFFFFFFFFFF AND PUSH32 0xDDF252AD1BE2C89B69C2B068FC378DAA952BA7F163C4A11628F55A4DF523B3EF DUP4 PUSH1 0x40 MLOAD PUSH2 0x2B8 SWAP2 SWAP1 PUSH2 0x8CA JUMP JUMPDEST PUSH1 0x40 MLOAD DUP1 SWAP2 SUB SWAP1 LOG3 POP POP JUMP JUMPDEST PUSH0 DUP2 MLOAD SWAP1 POP SWAP2 SWAP1 POP JUMP JUMPDEST PUSH32 0x4E487B7100000000000000000000000000000000000000000000000000000000 PUSH0 MSTORE PUSH1 0x41 PUSH1 0x4 MSTORE PUSH1 0x24 PUSH0 REVERT JUMPDEST PUSH32 0x4E487B7100000000000000000000000000000000000000000000000000000000 PUSH0 MSTORE PUSH1 0x22 PUSH1 0x4 MSTORE PUSH1 0x24 PUSH0 REVERT JUMPDEST PUSH0 PUSH1 0x2 DUP3 DIV SWAP1 POP PUSH1 0x1 DUP3 AND DUP1 PUSH2 0x33F JUMPI PUSH1 0x7F DUP3 AND SWAP2 POP JUMPDEST PUSH1 0x20 DUP3 LT DUP2 SUB PUSH2 0x352 JUMPI PUSH2 0x351 PUSH2 0x2FB JUMP JUMPDEST JUMPDEST POP SWAP2 SWAP1 POP JUMP JUMPDEST PUSH0 DUP2 SWAP1 POP DUP2 PUSH0 MSTORE PUSH1 0x20 PUSH0 KECCAK256 SWAP1 POP SWAP2 SWAP1 POP JUMP JUMPDEST PUSH0 PUSH1 0x20 PUSH1 0x1F DUP4 ADD DIV SWAP1 POP SWAP2 SWAP1 POP JUMP JUMPDEST PUSH0 DUP3 DUP3 SHL SWAP1 POP SWAP3 SWAP2 POP POP JUMP JUMPDEST PUSH0 PUSH1 0x8 DUP4 MUL PUSH2 0x3B4 PUSH32 0xFFFFFFFFFFFFFFFFFFFFFFFFFFFFFFFFFFFFFFFFFFFFFFFFFFFFFFFFFFFFFFFF DUP3 PUSH2 0x379 JUMP JUMPDEST PUSH2 0x3BE DUP7 DUP4 PUSH2 0x379 JUMP JUMPDEST SWAP6 POP DUP1 NOT DUP5 AND SWAP4 POP DUP1 DUP7 AND DUP5 OR SWAP3 POP POP POP SWAP4 SWAP3 POP POP POP JUMP JUMPDEST PUSH0 DUP2 SWAP1 POP SWAP2 SWAP1 POP JUMP JUMPDEST PUSH0 DUP2 SWAP1 POP SWAP2 SWAP1 POP JUMP JUMPDEST PUSH0 PUSH2 0x402 PUSH2 0x3FD PUSH2 0x3F8 DUP5 PUSH2 0x3D6 JUMP JUMPDEST PUSH2 0x3DF JUMP JUMPDEST PUSH2 0x3D6 JUMP JUMPDEST SWAP1 POP SWAP2 SWAP1 POP JUMP JUMPDEST PUSH0 DUP2 SWAP1 POP SWAP2 SWAP1 POP JUMP JUMPDEST PUSH2 0x41B DUP4 PUSH2 0x3E8 JUMP JUMPDEST PUSH2 0x42F PUSH2 0x427 DUP3 PUSH2 0x409 JUMP JUMPDEST DUP5 DUP5 SLOAD PUSH2 0x385 JUMP JUMPDEST DUP3 SSTORE POP POP POP POP JUMP JUMPDEST PUSH0 PUSH0 SWAP1 POP SWAP1 JUMP JUMPDEST PUSH2 0x446 PUSH2 0x437 JUMP JUMPDEST PUSH2 0x451 DUP2 DUP5 DUP5 PUSH2 0x412 JUMP JUMPDEST POP POP POP JUMP JUMPDEST JUMPDEST DUP2 DUP2 LT ISZERO PUSH2 0x474 JUMPI PUSH2 0x469 PUSH0 DUP3 PUSH2 0x43E JUMP JUMPDEST PUSH1 0x1 DUP2 ADD SWAP1 POP PUSH2 0x457 JUMP JUMPDEST POP POP JUMP JUMPDEST PUSH1 0x1F DUP3 GT ISZERO PUSH2 0x4B9 JUMPI PUSH2 0x48A DUP2 PUSH2 0x358 JUMP JUMPDEST PUSH2 0x493 DUP5 PUSH2 0x36A JUMP JUMPDEST DUP2 ADD PUSH1 0x20 DUP6 LT ISZERO PUSH2 0x4A2 JUMPI DUP2 SWAP1 POP JUMPDEST PUSH2 0x4B6 PUSH2 0x4AE DUP6 PUSH2 0x36A JUMP JUMPDEST DUP4 ADD DUP3 PUSH2 0x456 JUMP JUMPDEST POP POP JUMPDEST POP POP POP JUMP JUMPDEST PUSH0 DUP3 DUP3 SHR SWAP1 POP SWAP3 SWAP2 POP POP JUMP JUMPDEST PUSH0 PUSH2 0x4D9 PUSH0 NOT DUP5 PUSH1 0x8 MUL PUSH2 0x4BE JUMP JUMPDEST NOT DUP1 DUP4 AND SWAP2 POP POP SWAP3 SWAP2 POP POP JUMP JUMPDEST PUSH0 PUSH2 0x4F1 DUP4 DUP4 PUSH2 0x4CA JUMP JUMPDEST SWAP2 POP DUP3 PUSH1 0x2 MUL DUP3 OR SWAP1 POP SWAP3 SWAP2 POP POP JUMP JUMPDEST PUSH2 0x50A DUP3 PUSH2 0x2C4 JUMP JUMPDEST PUSH8 0xFFFFFFFFFFFFFFFF DUP2 GT ISZERO PUSH2 0x523 JUMPI PUSH2 0x522 PUSH2 0x2CE JUMP JUMPDEST JUMPDEST PUSH2 0x52D DUP3 SLOAD PUSH2 0x328 JUMP JUMPDEST PUSH2 0x538 DUP3 DUP3 DUP6 PUSH2 0x478 JUMP JUMPDEST PUSH0 PUSH1 0x20 SWAP1 POP PUSH1 0x1F DUP4 GT PUSH1 0x1 DUP2 EQ PUSH2 0x569 JUMPI PUSH0 DUP5 ISZERO PUSH2 0x557 JUMPI DUP3 DUP8 ADD MLOAD SWAP1 POP JUMPDEST PUSH2 0x561 DUP6 DUP3 PUSH2 0x4E6 JUMP JUMPDEST DUP7 SSTORE POP PUSH2 0x5C8 JUMP JUMPDEST PUSH1 0x1F NOT DUP5 AND PUSH2 0x577 DUP7 PUSH2 0x358 JUMP JUMPDEST PUSH0 JUMPDEST DUP3 DUP2 LT ISZERO PUSH2 0x59E JUMPI DUP5 DUP10 ADD MLOAD DUP3 SSTORE PUSH1 0x1 DUP3 ADD SWAP2 POP PUSH1 0x20 DUP6 ADD SWAP5 POP PUSH1 0x20 DUP2 ADD SWAP1 POP PUSH2 0x579 JUMP JUMPDEST DUP7 DUP4 LT ISZERO PUSH2 0x5BB JUMPI DUP5 DUP10 ADD MLOAD PUSH2 0x5B7 PUSH1 0x1F DUP10 AND DUP3 PUSH2 0x4CA JUMP JUMPDEST DUP4 SSTORE POP JUMPDEST PUSH1 0x1 PUSH1 0x2 DUP9 MUL ADD DUP9 SSTORE POP POP POP JUMPDEST POP POP POP POP POP POP JUMP JUMPDEST PUSH0 PUSH0 REVERT JUMPDEST PUSH2 0x5DD DUP2 PUSH2 0x3D6 JUMP JUMPDEST DUP2 EQ PUSH2 0x5E7 JUMPI PUSH0 PUSH0 REVERT JUMPDEST POP JUMP JUMPDEST PUSH0 DUP2 MLOAD SWAP1 POP PUSH2 0x5F8 DUP2 PUSH2 0x5D4 JUMP JUMPDEST SWAP3 SWAP2 POP POP JUMP JUMPDEST PUSH0 PUSH1 0x20 DUP3 DUP5 SUB SLT ISZERO PUSH2 0x613 JUMPI PUSH2 0x612 PUSH2 0x5D0 JUMP JUMPDEST JUMPDEST PUSH0 PUSH2 0x620 DUP5 DUP3 DUP6 ADD PUSH2 0x5EA JUMP JUMPDEST SWAP2 POP POP SWAP3 SWAP2 POP POP JUMP JUMPDEST PUSH32 0x4E487B7100000000000000000000000000000000000000000000000000000000 PUSH0 MSTORE PUSH1 0x11 PUSH1 0x4 MSTORE PUSH1 0x24 PUSH0 REVERT JUMPDEST PUSH0 DUP2 PUSH1 0x1 SHR SWAP1 POP SWAP2 SWAP1 POP JUMP JUMPDEST PUSH0 PUSH0 DUP3 SWAP2 POP DUP4 SWAP1 POP JUMPDEST PUSH1 0x1 DUP6 GT ISZERO PUSH2 0x6AB JUMPI DUP1 DUP7 DIV DUP2 GT ISZERO PUSH2 0x687 JUMPI PUSH2 0x686 PUSH2 0x629 JUMP JUMPDEST JUMPDEST PUSH1 0x1 DUP6 AND ISZERO PUSH2 0x696 JUMPI DUP1 DUP3 MUL SWAP2 POP JUMPDEST DUP1 DUP2 MUL SWAP1 POP PUSH2 0x6A4 DUP6 PUSH2 0x656 JUMP JUMPDEST SWAP5 POP PUSH2 0x66B JUMP JUMPDEST SWAP5 POP SWAP5 SWAP3 POP POP POP JUMP JUMPDEST PUSH0 DUP3 PUSH2 0x6C3 JUMPI PUSH1 0x1 SWAP1 POP PUSH2 0x77E JUMP JUMPDEST DUP2 PUSH2 0x6D0 JUMPI PUSH0 SWAP1 POP PUSH2 0x77E JUMP JUMPDEST DUP2 PUSH1 0x1 DUP2 EQ PUSH2 0x6E6 JUMPI PUSH1 0x2 DUP2 EQ PUSH2 0x6F0 JUMPI PUSH2 0x71F JUMP JUMPDEST PUSH1 0x1 SWAP2 POP POP PUSH2 0x77E JUMP JUMPDEST PUSH1 0xFF DUP5 GT ISZERO PUSH2 0x702 JUMPI PUSH2 0x701 PUSH2 0x629 JUMP JUMPDEST JUMPDEST DUP4 PUSH1 0x2 EXP SWAP2 POP DUP5 DUP3 GT ISZERO PUSH2 0x719 JUMPI PUSH2 0x718 PUSH2 0x629 JUMP JUMPDEST JUMPDEST POP PUSH2 0x77E JUMP JUMPDEST POP PUSH1 0x20 DUP4 LT PUSH2 0x133 DUP4 LT AND PUSH1 0x4E DUP5 LT PUSH1 0xB DUP5 LT AND OR ISZERO PUSH2 0x754 JUMPI DUP3 DUP3 EXP SWAP1 POP DUP4 DUP2 GT ISZERO PUSH2 0x74F JUMPI PUSH2 0x74E PUSH2 0x629 JUMP JUMPDEST JUMPDEST PUSH2 0x77E JUMP JUMPDEST PUSH2 0x761 DUP5 DUP5 DUP5 PUSH1 0x1 PUSH2 0x662 JUMP JUMPDEST SWAP3 POP SWAP1 POP DUP2 DUP5 DIV DUP2 GT ISZERO PUSH2 0x778 JUMPI PUSH2 0x777 PUSH2 0x629 JUMP JUMPDEST JUMPDEST DUP2 DUP2 MUL SWAP1 POP JUMPDEST SWAP4 SWAP3 POP POP POP JUMP JUMPDEST PUSH0 PUSH2 0x78F DUP3 PUSH2 0x3D6 JUMP JUMPDEST SWAP2 POP PUSH2 0x79A DUP4 PUSH2 0x3D6 JUMP JUMPDEST SWAP3 POP PUSH2 0x7C7 PUSH32 0xFFFFFFFFFFFFFFFFFFFFFFFFFFFFFFFFFFFFFFFFFFFFFFFFFFFFFFFFFFFFFFFF DUP5 DUP5 PUSH2 0x6B4 JUMP JUMPDEST SWAP1 POP SWAP3 SWAP2 POP POP JUMP JUMPDEST PUSH0 PUSH2 0x7D9 DUP3 PUSH2 0x3D6 JUMP JUMPDEST SWAP2 POP PUSH2 0x7E4 DUP4 PUSH2 0x3D6 JUMP JUMPDEST SWAP3 POP DUP3 DUP3 MUL PUSH2 0x7F2 DUP2 PUSH2 0x3D6 JUMP JUMPDEST SWAP2 POP DUP3 DUP3 DIV DUP5 EQ DUP4 ISZERO OR PUSH2 0x809 JUMPI PUSH2 0x808 PUSH2 0x629 JUMP JUMPDEST JUMPDEST POP SWAP3 SWAP2 POP POP JUMP JUMPDEST PUSH0 DUP3 DUP3 MSTORE PUSH1 0x20 DUP3 ADD SWAP1 POP SWAP3 SWAP2 POP POP JUMP JUMPDEST PUSH32 0x5A65726F2061646472657373206E6F7420616C6C6F7765640000000000000000 PUSH0 DUP3 ADD MSTORE POP JUMP JUMPDEST PUSH0 PUSH2 0x854 PUSH1 0x18 DUP4 PUSH2 0x810 JUMP JUMPDEST SWAP2 POP PUSH2 0x85F DUP3 PUSH2 0x820 JUMP JUMPDEST PUSH1 0x20 DUP3 ADD SWAP1 POP SWAP2 SWAP1 POP JUMP JUMPDEST PUSH0 PUSH1 0x20 DUP3 ADD SWAP1 POP DUP2 DUP2 SUB PUSH0 DUP4 ADD MSTORE PUSH2 0x881 DUP2 PUSH2 0x848 JUMP JUMPDEST SWAP1 POP SWAP2 SWAP1 POP JUMP JUMPDEST PUSH0 PUSH2 0x892 DUP3 PUSH2 0x3D6 JUMP JUMPDEST SWAP2 POP PUSH2 0x89D DUP4 PUSH2 0x3D6 JUMP JUMPDEST SWAP3 POP DUP3 DUP3 ADD SWAP1 POP DUP1 DUP3 GT ISZERO PUSH2 0x8B5 JUMPI PUSH2 0x8B4 PUSH2 0x629 JUMP JUMPDEST JUMPDEST SWAP3 SWAP2 POP POP JUMP JUMPDEST PUSH2 0x8C4 DUP2 PUSH2 0x3D6 JUMP JUMPDEST DUP3 MSTORE POP POP JUMP JUMPDEST PUSH0 PUSH1 0x20 DUP3 ADD SWAP1 POP PUSH2 0x8DD PUSH0 DUP4 ADD DUP5 PUSH2 0x8BB JUMP JUMPDEST SWAP3 SWAP2 POP POP JUMP JUMPDEST PUSH2 0x136C DUP1 PUSH2 0x8F0 PUSH0 CODECOPY PUSH0 RETURN INVALID PUSH1 0x80 PUSH1 0x40 MSTORE PUSH1 0x4 CALLDATASIZE LT PUSH2 0xAA JUMPI PUSH0 CALLDATALOAD PUSH1 0xE0 SHR DUP1 PUSH4 0x7FF9B596 GT PUSH2 0x63 JUMPI DUP1 PUSH4 0x7FF9B596 EQ PUSH2 0x1C7 JUMPI DUP1 PUSH4 0x8DA5CB5B EQ PUSH2 0x1F1 JUMPI DUP1 PUSH4 0x95D89B41 EQ PUSH2 0x21B JUMPI DUP1 PUSH4 0xA9059CBB EQ PUSH2 0x245 JUMPI DUP1 PUSH4 0xD0FEBE4C EQ PUSH2 0x281 JUMPI DUP1 PUSH4 0xE086E5EC EQ PUSH2 0x28B JUMPI PUSH2 0xB9 JUMP JUMPDEST DUP1 PUSH4 0x6FDDE03 EQ PUSH2 0xBD JUMPI DUP1 PUSH4 0x18160DDD EQ PUSH2 0xE7 JUMPI DUP1 PUSH4 0x313CE567 EQ PUSH2 0x111 JUMPI DUP1 PUSH4 0x4064A6EE EQ PUSH2 0x13B JUMPI DUP1 PUSH4 0x6A61E5FC EQ PUSH2 0x163 JUMPI DUP1 PUSH4 0x70A08231 EQ PUSH2 0x18B JUMPI PUSH2 0xB9 JUMP JUMPDEST CALLDATASIZE PUSH2 0xB9 JUMPI PUSH2 0xB7 PUSH2 0x2A1 JUMP JUMPDEST STOP JUMPDEST PUSH0 PUSH0 REVERT JUMPDEST CALLVALUE DUP1 ISZERO PUSH2 0xC8 JUMPI PUSH0 PUSH0 REVERT JUMPDEST POP PUSH2 0xD1 PUSH2 0x4D5 JUMP JUMPDEST PUSH1 0x40 MLOAD PUSH2 0xDE SWAP2 SWAP1 PUSH2 0xC2B JUMP JUMPDEST PUSH1 0x40 MLOAD DUP1 SWAP2 SUB SWAP1 RETURN JUMPDEST CALLVALUE DUP1 ISZERO PUSH2 0xF2 JUMPI PUSH0 PUSH0 REVERT JUMPDEST POP PUSH2 0xFB PUSH2 0x560 JUMP JUMPDEST PUSH1 0x40 MLOAD PUSH2 0x108 SWAP2 SWAP1 PUSH2 0xC63 JUMP JUMPDEST PUSH1 0x40 MLOAD DUP1 SWAP2 SUB SWAP1 RETURN JUMPDEST CALLVALUE DUP1 ISZERO PUSH2 0x11C JUMPI PUSH0 PUSH0 REVERT JUMPDEST POP PUSH2 0x125 PUSH2 0x569 JUMP JUMPDEST PUSH1 0x40 MLOAD PUSH2 0x132 SWAP2 SWAP1 PUSH2 0xC97 JUMP JUMPDEST PUSH1 0x40 MLOAD DUP1 SWAP2 SUB SWAP1 RETURN JUMPDEST CALLVALUE DUP1 ISZERO PUSH2 0x146 JUMPI PUSH0 PUSH0 REVERT JUMPDEST POP PUSH2 0x161 PUSH1 0x4 DUP1 CALLDATASIZE SUB DUP2 ADD SWAP1 PUSH2 0x15C SWAP2 SWAP1 PUSH2 0xCDE JUMP JUMPDEST PUSH2 0x57B JUMP JUMPDEST STOP JUMPDEST CALLVALUE DUP1 ISZERO PUSH2 0x16E JUMPI PUSH0 PUSH0 REVERT JUMPDEST POP PUSH2 0x189 PUSH1 0x4 DUP1 CALLDATASIZE SUB DUP2 ADD SWAP1 PUSH2 0x184 SWAP2 SWAP1 PUSH2 0xCDE JUMP JUMPDEST PUSH2 0x799 JUMP JUMPDEST STOP JUMPDEST CALLVALUE DUP1 ISZERO PUSH2 0x196 JUMPI PUSH0 PUSH0 REVERT JUMPDEST POP PUSH2 0x1B1 PUSH1 0x4 DUP1 CALLDATASIZE SUB DUP2 ADD SWAP1 PUSH2 0x1AC SWAP2 SWAP1 PUSH2 0xD63 JUMP JUMPDEST PUSH2 0x832 JUMP JUMPDEST PUSH1 0x40 MLOAD PUSH2 0x1BE SWAP2 SWAP1 PUSH2 0xC63 JUMP JUMPDEST PUSH1 0x40 MLOAD DUP1 SWAP2 SUB SWAP1 RETURN JUMPDEST CALLVALUE DUP1 ISZERO PUSH2 0x1D2 JUMPI PUSH0 PUSH0 REVERT JUMPDEST POP PUSH2 0x1DB PUSH2 0x878 JUMP JUMPDEST PUSH1 0x40 MLOAD PUSH2 0x1E8 SWAP2 SWAP1 PUSH2 0xC63 JUMP JUMPDEST PUSH1 0x40 MLOAD DUP1 SWAP2 SUB SWAP1 RETURN JUMPDEST CALLVALUE DUP1 ISZERO PUSH2 0x1FC JUMPI PUSH0 PUSH0 REVERT JUMPDEST POP PUSH2 0x205 PUSH2 0x87E JUMP JUMPDEST PUSH1 0x40 MLOAD PUSH2 0x212 SWAP2 SWAP1 PUSH2 0xD9D JUMP JUMPDEST PUSH1 0x40 MLOAD DUP1 SWAP2 SUB SWAP1 RETURN JUMPDEST CALLVALUE DUP1 ISZERO PUSH2 0x226 JUMPI PUSH0 PUSH0 REVERT JUMPDEST POP PUSH2 0x22F PUSH2 0x8A3 JUMP JUMPDEST PUSH1 0x40 MLOAD PUSH2 0x23C SWAP2 SWAP1 PUSH2 0xC2B JUMP JUMPDEST PUSH1 0x40 MLOAD DUP1 SWAP2 SUB SWAP1 RETURN JUMPDEST CALLVALUE DUP1 ISZERO PUSH2 0x250 JUMPI PUSH0 PUSH0 REVERT JUMPDEST POP PUSH2 0x26B PUSH1 0x4 DUP1 CALLDATASIZE SUB DUP2 ADD SWAP1 PUSH2 0x266 SWAP2 SWAP1 PUSH2 0xDB6 JUMP JUMPDEST PUSH2 0x92F JUMP JUMPDEST PUSH1 0x40 MLOAD PUSH2 0x278 SWAP2 SWAP1 PUSH2 0xE0E JUMP JUMPDEST PUSH1 0x40 MLOAD DUP1 SWAP2 SUB SWAP1 RETURN JUMPDEST PUSH2 0x289 PUSH2 0x2A1 JUMP JUMPDEST STOP JUMPDEST CALLVALUE DUP1 ISZERO PUSH2 0x296 JUMPI PUSH0 PUSH0 REVERT JUMPDEST POP PUSH2 0x29F PUSH2 0xAC5 JUMP JUMPDEST STOP JUMPDEST PUSH0 CALLVALUE GT PUSH2 0x2E3 JUMPI PUSH1 0x40 MLOAD PUSH32 0x8C379A000000000000000000000000000000000000000000000000000000000 DUP2 MSTORE PUSH1 0x4 ADD PUSH2 0x2DA SWAP1 PUSH2 0xE71 JUMP JUMPDEST PUSH1 0x40 MLOAD DUP1 SWAP2 SUB SWAP1 REVERT JUMPDEST PUSH0 PUSH1 0x5 SLOAD PUSH1 0x2 PUSH0 SWAP1 SLOAD SWAP1 PUSH2 0x100 EXP SWAP1 DIV PUSH1 0xFF AND PUSH1 0xFF AND PUSH1 0xA PUSH2 0x305 SWAP2 SWAP1 PUSH2 0xFEB JUMP JUMPDEST CALLVALUE PUSH2 0x310 SWAP2 SWAP1 PUSH2 0x1035 JUMP JUMPDEST PUSH2 0x31A SWAP2 SWAP1 PUSH2 0x10A3 JUMP JUMPDEST SWAP1 POP DUP1 PUSH1 0x6 PUSH0 PUSH1 0x4 PUSH0 SWAP1 SLOAD SWAP1 PUSH2 0x100 EXP SWAP1 DIV PUSH20 0xFFFFFFFFFFFFFFFFFFFFFFFFFFFFFFFFFFFFFFFF AND PUSH20 0xFFFFFFFFFFFFFFFFFFFFFFFFFFFFFFFFFFFFFFFF AND PUSH20 0xFFFFFFFFFFFFFFFFFFFFFFFFFFFFFFFFFFFFFFFF AND DUP2 MSTORE PUSH1 0x20 ADD SWAP1 DUP2 MSTORE PUSH1 0x20 ADD PUSH0 KECCAK256 SLOAD LT ISZERO PUSH2 0x3BD JUMPI PUSH1 0x40 MLOAD PUSH32 0x8C379A000000000000000000000000000000000000000000000000000000000 DUP2 MSTORE PUSH1 0x4 ADD PUSH2 0x3B4 SWAP1 PUSH2 0x111D JUMP JUMPDEST PUSH1 0x40 MLOAD DUP1 SWAP2 SUB SWAP1 REVERT JUMPDEST DUP1 PUSH1 0x6 PUSH0 PUSH1 0x4 PUSH0 SWAP1 SLOAD SWAP1 PUSH2 0x100 EXP SWAP1 DIV PUSH20 0xFFFFFFFFFFFFFFFFFFFFFFFFFFFFFFFFFFFFFFFF AND PUSH20 0xFFFFFFFFFFFFFFFFFFFFFFFFFFFFFFFFFFFFFFFF AND PUSH20 0xFFFFFFFFFFFFFFFFFFFFFFFFFFFFFFFFFFFFFFFF AND DUP2 MSTORE PUSH1 0x20 ADD SWAP1 DUP2 MSTORE PUSH1 0x20 ADD PUSH0 KECCAK256 PUSH0 DUP3 DUP3 SLOAD PUSH2 0x42A SWAP2 SWAP1 PUSH2 0x113B JUMP JUMPDEST SWAP3 POP POP DUP2 SWAP1 SSTORE POP DUP1 PUSH1 0x6 PUSH0 CALLER PUSH20 0xFFFFFFFFFFFFFFFFFFFFFFFFFFFFFFFFFFFFFFFF AND PUSH20 0xFFFFFFFFFFFFFFFFFFFFFFFFFFFFFFFFFFFFFFFF AND DUP2 MSTORE PUSH1 0x20 ADD SWAP1 DUP2 MSTORE PUSH1 0x20 ADD PUSH0 KECCAK256 PUSH0 DUP3 DUP3 SLOAD PUSH2 0x47D SWAP2 SWAP1 PUSH2 0x116E JUMP JUMPDEST SWAP3 POP POP DUP2 SWAP1 SSTORE POP CALLER PUSH20 0xFFFFFFFFFFFFFFFFFFFFFFFFFFFFFFFFFFFFFFFF AND PUSH32 0x55C18555197C6574627CF460C66073D10AA05D412468800B7B71FEEAF82EA92D DUP3 PUSH1 0x40 MLOAD PUSH2 0x4CA SWAP2 SWAP1 PUSH2 0xC63 JUMP JUMPDEST PUSH1 0x40 MLOAD DUP1 SWAP2 SUB SWAP1 LOG2 POP JUMP JUMPDEST PUSH0 DUP1 SLOAD PUSH2 0x4E1 SWAP1 PUSH2 0x11CE JUMP JUMPDEST DUP1 PUSH1 0x1F ADD PUSH1 0x20 DUP1 SWAP2 DIV MUL PUSH1 0x20 ADD PUSH1 0x40 MLOAD SWAP1 DUP2 ADD PUSH1 0x40 MSTORE DUP1 SWAP3 SWAP2 SWAP1 DUP2 DUP2 MSTORE PUSH1 0x20 ADD DUP3 DUP1 SLOAD PUSH2 0x50D SWAP1 PUSH2 0x11CE JUMP JUMPDEST DUP1 ISZERO PUSH2 0x558 JUMPI DUP1 PUSH1 0x1F LT PUSH2 0x52F JUMPI PUSH2 0x100 DUP1 DUP4 SLOAD DIV MUL DUP4 MSTORE SWAP2 PUSH1 0x20 ADD SWAP2 PUSH2 0x558 JUMP JUMPDEST DUP3 ADD SWAP2 SWAP1 PUSH0 MSTORE PUSH1 0x20 PUSH0 KECCAK256 SWAP1 JUMPDEST DUP2 SLOAD DUP2 MSTORE SWAP1 PUSH1 0x1 ADD SWAP1 PUSH1 0x20 ADD DUP1 DUP4 GT PUSH2 0x53B JUMPI DUP3 SWAP1 SUB PUSH1 0x1F AND DUP3 ADD SWAP2 JUMPDEST POP POP POP POP POP DUP2 JUMP JUMPDEST PUSH0 PUSH1 0x3 SLOAD SWAP1 POP SWAP1 JUMP JUMPDEST PUSH1 0x2 PUSH0 SWAP1 SLOAD SWAP1 PUSH2 0x100 EXP SWAP1 DIV PUSH1 0xFF AND DUP2 JUMP JUMPDEST DUP1 PUSH1 0x6 PUSH0 CALLER PUSH20 0xFFFFFFFFFFFFFFFFFFFFFFFFFFFFFFFFFFFFFFFF AND PUSH20 0xFFFFFFFFFFFFFFFFFFFFFFFFFFFFFFFFFFFFFFFF AND DUP2 MSTORE PUSH1 0x20 ADD SWAP1 DUP2 MSTORE PUSH1 0x20 ADD PUSH0 KECCAK256 SLOAD LT ISZERO PUSH2 0x5FB JUMPI PUSH1 0x40 MLOAD PUSH32 0x8C379A000000000000000000000000000000000000000000000000000000000 DUP2 MSTORE PUSH1 0x4 ADD PUSH2 0x5F2 SWAP1 PUSH2 0x1248 JUMP JUMPDEST PUSH1 0x40 MLOAD DUP1 SWAP2 SUB SWAP1 REVERT JUMPDEST DUP1 PUSH1 0x6 PUSH0 CALLER PUSH20 0xFFFFFFFFFFFFFFFFFFFFFFFFFFFFFFFFFFFFFFFF AND PUSH20 0xFFFFFFFFFFFFFFFFFFFFFFFFFFFFFFFFFFFFFFFF AND DUP2 MSTORE PUSH1 0x20 ADD SWAP1 DUP2 MSTORE PUSH1 0x20 ADD PUSH0 KECCAK256 PUSH0 DUP3 DUP3 SLOAD PUSH2 0x647 SWAP2 SWAP1 PUSH2 0x113B JUMP JUMPDEST SWAP3 POP POP DUP2 SWAP1 SSTORE POP DUP1 PUSH1 0x6 PUSH0 PUSH1 0x4 PUSH0 SWAP1 SLOAD SWAP1 PUSH2 0x100 EXP SWAP1 DIV PUSH20 0xFFFFFFFFFFFFFFFFFFFFFFFFFFFFFFFFFFFFFFFF AND PUSH20 0xFFFFFFFFFFFFFFFFFFFFFFFFFFFFFFFFFFFFFFFF AND PUSH20 0xFFFFFFFFFFFFFFFFFFFFFFFFFFFFFFFFFFFFFFFF AND DUP2 MSTORE PUSH1 0x20 ADD SWAP1 DUP2 MSTORE PUSH1 0x20 ADD PUSH0 KECCAK256 PUSH0 DUP3 DUP3 SLOAD PUSH2 0x6BB SWAP2 SWAP1 PUSH2 0x116E JUMP JUMPDEST SWAP3 POP POP DUP2 SWAP1 SSTORE POP PUSH1 0x4 PUSH0 SWAP1 SLOAD SWAP1 PUSH2 0x100 EXP SWAP1 DIV PUSH20 0xFFFFFFFFFFFFFFFFFFFFFFFFFFFFFFFFFFFFFFFF AND PUSH20 0xFFFFFFFFFFFFFFFFFFFFFFFFFFFFFFFFFFFFFFFF AND CALLER PUSH20 0xFFFFFFFFFFFFFFFFFFFFFFFFFFFFFFFFFFFFFFFF AND PUSH32 0xDDF252AD1BE2C89B69C2B068FC378DAA952BA7F163C4A11628F55A4DF523B3EF DUP4 PUSH1 0x40 MLOAD PUSH2 0x740 SWAP2 SWAP1 PUSH2 0xC63 JUMP JUMPDEST PUSH1 0x40 MLOAD DUP1 SWAP2 SUB SWAP1 LOG3 CALLER PUSH20 0xFFFFFFFFFFFFFFFFFFFFFFFFFFFFFFFFFFFFFFFF AND PUSH32 0x6EF95F06320E7A25A04A175CA677B7052BDD97131872C2192525A629F51BE770 DUP3 PUSH1 0x40 MLOAD PUSH2 0x78E SWAP2 SWAP1 PUSH2 0xC63 JUMP JUMPDEST PUSH1 0x40 MLOAD DUP1 SWAP2 SUB SWAP1 LOG2 POP JUMP JUMPDEST PUSH1 0x4 PUSH0 SWAP1 SLOAD SWAP1 PUSH2 0x100 EXP SWAP1 DIV PUSH20 0xFFFFFFFFFFFFFFFFFFFFFFFFFFFFFFFFFFFFFFFF AND PUSH20 0xFFFFFFFFFFFFFFFFFFFFFFFFFFFFFFFFFFFFFFFF AND CALLER PUSH20 0xFFFFFFFFFFFFFFFFFFFFFFFFFFFFFFFFFFFFFFFF AND EQ PUSH2 0x828 JUMPI PUSH1 0x40 MLOAD PUSH32 0x8C379A000000000000000000000000000000000000000000000000000000000 DUP2 MSTORE PUSH1 0x4 ADD PUSH2 0x81F SWAP1 PUSH2 0x12B0 JUMP JUMPDEST PUSH1 0x40 MLOAD DUP1 SWAP2 SUB SWAP1 REVERT JUMPDEST DUP1 PUSH1 0x5 DUP2 SWAP1 SSTORE POP POP JUMP JUMPDEST PUSH0 PUSH1 0x6 PUSH0 DUP4 PUSH20 0xFFFFFFFFFFFFFFFFFFFFFFFFFFFFFFFFFFFFFFFF AND PUSH20 0xFFFFFFFFFFFFFFFFFFFFFFFFFFFFFFFFFFFFFFFF AND DUP2 MSTORE PUSH1 0x20 ADD SWAP1 DUP2 MSTORE PUSH1 0x20 ADD PUSH0 KECCAK256 SLOAD SWAP1 POP SWAP2 SWAP1 POP JUMP JUMPDEST PUSH1 0x5 SLOAD DUP2 JUMP JUMPDEST PUSH1 0x4 PUSH0 SWAP1 SLOAD SWAP1 PUSH2 0x100 EXP SWAP1 DIV PUSH20 0xFFFFFFFFFFFFFFFFFFFFFFFFFFFFFFFFFFFFFFFF AND DUP2 JUMP JUMPDEST PUSH1 0x1 DUP1 SLOAD PUSH2 0x8B0 SWAP1 PUSH2 0x11CE JUMP JUMPDEST DUP1 PUSH1 0x1F ADD PUSH1 0x20 DUP1 SWAP2 DIV MUL PUSH1 0x20 ADD PUSH1 0x40 MLOAD SWAP1 DUP2 ADD PUSH1 0x40 MSTORE DUP1 SWAP3 SWAP2 SWAP1 DUP2 DUP2 MSTORE PUSH1 0x20 ADD DUP3 DUP1 SLOAD PUSH2 0x8DC SWAP1 PUSH2 0x11CE JUMP JUMPDEST DUP1 ISZERO PUSH2 0x927 JUMPI DUP1 PUSH1 0x1F LT PUSH2 0x8FE JUMPI PUSH2 0x100 DUP1 DUP4 SLOAD DIV MUL DUP4 MSTORE SWAP2 PUSH1 0x20 ADD SWAP2 PUSH2 0x927 JUMP JUMPDEST DUP3 ADD SWAP2 SWAP1 PUSH0 MSTORE PUSH1 0x20 PUSH0 KECCAK256 SWAP1 JUMPDEST DUP2 SLOAD DUP2 MSTORE SWAP1 PUSH1 0x1 ADD SWAP1 PUSH1 0x20 ADD DUP1 DUP4 GT PUSH2 0x90A JUMPI DUP3 SWAP1 SUB PUSH1 0x1F AND DUP3 ADD SWAP2 JUMPDEST POP POP POP POP POP DUP2 JUMP JUMPDEST PUSH0 DUP2 PUSH1 0x6 PUSH0 CALLER PUSH20 0xFFFFFFFFFFFFFFFFFFFFFFFFFFFFFFFFFFFFFFFF AND PUSH20 0xFFFFFFFFFFFFFFFFFFFFFFFFFFFFFFFFFFFFFFFF AND DUP2 MSTORE PUSH1 0x20 ADD SWAP1 DUP2 MSTORE PUSH1 0x20 ADD PUSH0 KECCAK256 SLOAD LT ISZERO PUSH2 0x9B0 JUMPI PUSH1 0x40 MLOAD PUSH32 0x8C379A000000000000000000000000000000000000000000000000000000000 DUP2 MSTORE PUSH1 0x4 ADD PUSH2 0x9A7 SWAP1 PUSH2 0x1318 JUMP JUMPDEST PUSH1 0x40 MLOAD DUP1 SWAP2 SUB SWAP1 REVERT JUMPDEST DUP2 PUSH1 0x6 PUSH0 CALLER PUSH20 0xFFFFFFFFFFFFFFFFFFFFFFFFFFFFFFFFFFFFFFFF AND PUSH20 0xFFFFFFFFFFFFFFFFFFFFFFFFFFFFFFFFFFFFFFFF AND DUP2 MSTORE PUSH1 0x20 ADD SWAP1 DUP2 MSTORE PUSH1 0x20 ADD PUSH0 KECCAK256 PUSH0 DUP3 DUP3 SLOAD PUSH2 0x9FC SWAP2 SWAP1 PUSH2 0x113B JUMP JUMPDEST SWAP3 POP POP DUP2 SWAP1 SSTORE POP DUP2 PUSH1 0x6 PUSH0 DUP6 PUSH20 0xFFFFFFFFFFFFFFFFFFFFFFFFFFFFFFFFFFFFFFFF AND PUSH20 0xFFFFFFFFFFFFFFFFFFFFFFFFFFFFFFFFFFFFFFFF AND DUP2 MSTORE PUSH1 0x20 ADD SWAP1 DUP2 MSTORE PUSH1 0x20 ADD PUSH0 KECCAK256 PUSH0 DUP3 DUP3 SLOAD PUSH2 0xA4F SWAP2 SWAP1 PUSH2 0x116E JUMP JUMPDEST SWAP3 POP POP DUP2 SWAP1 SSTORE POP DUP3 PUSH20 0xFFFFFFFFFFFFFFFFFFFFFFFFFFFFFFFFFFFFFFFF AND CALLER PUSH20 0xFFFFFFFFFFFFFFFFFFFFFFFFFFFFFFFFFFFFFFFF AND PUSH32 0xDDF252AD1BE2C89B69C2B068FC378DAA952BA7F163C4A11628F55A4DF523B3EF DUP5 PUSH1 0x40 MLOAD PUSH2 0xAB3 SWAP2 SWAP1 PUSH2 0xC63 JUMP JUMPDEST PUSH1 0x40 MLOAD DUP1 SWAP2 SUB SWAP1 LOG3 PUSH1 0x1 SWAP1 POP SWAP3 SWAP2 POP POP JUMP JUMPDEST PUSH1 0x4 PUSH0 SWAP1 SLOAD SWAP1 PUSH2 0x100 EXP SWAP1 DIV PUSH20 0xFFFFFFFFFFFFFFFFFFFFFFFFFFFFFFFFFFFFFFFF AND PUSH20 0xFFFFFFFFFFFFFFFFFFFFFFFFFFFFFFFFFFFFFFFF AND CALLER PUSH20 0xFFFFFFFFFFFFFFFFFFFFFFFFFFFFFFFFFFFFFFFF AND EQ PUSH2 0xB54 JUMPI PUSH1 0x40 MLOAD PUSH32 0x8C379A000000000000000000000000000000000000000000000000000000000 DUP2 MSTORE PUSH1 0x4 ADD PUSH2 0xB4B SWAP1 PUSH2 0x12B0 JUMP JUMPDEST PUSH1 0x40 MLOAD DUP1 SWAP2 SUB SWAP1 REVERT JUMPDEST PUSH1 0x4 PUSH0 SWAP1 SLOAD SWAP1 PUSH2 0x100 EXP SWAP1 DIV PUSH20 0xFFFFFFFFFFFFFFFFFFFFFFFFFFFFFFFFFFFFFFFF AND PUSH20 0xFFFFFFFFFFFFFFFFFFFFFFFFFFFFFFFFFFFFFFFF AND PUSH2 0x8FC SELFBALANCE SWAP1 DUP2 ISZERO MUL SWAP1 PUSH1 0x40 MLOAD PUSH0 PUSH1 0x40 MLOAD DUP1 DUP4 SUB DUP2 DUP6 DUP9 DUP9 CALL SWAP4 POP POP POP POP ISZERO DUP1 ISZERO PUSH2 0xBB8 JUMPI RETURNDATASIZE PUSH0 PUSH0 RETURNDATACOPY RETURNDATASIZE PUSH0 REVERT JUMPDEST POP JUMP JUMPDEST PUSH0 DUP2 MLOAD SWAP1 POP SWAP2 SWAP1 POP JUMP JUMPDEST PUSH0 DUP3 DUP3 MSTORE PUSH1 0x20 DUP3 ADD SWAP1 POP SWAP3 SWAP2 POP POP JUMP JUMPDEST DUP3 DUP2 DUP4 MCOPY PUSH0 DUP4 DUP4 ADD MSTORE POP POP POP JUMP JUMPDEST PUSH0 PUSH1 0x1F NOT PUSH1 0x1F DUP4 ADD AND SWAP1 POP SWAP2 SWAP1 POP JUMP JUMPDEST PUSH0 PUSH2 0xBFD DUP3 PUSH2 0xBBB JUMP JUMPDEST PUSH2 0xC07 DUP2 DUP6 PUSH2 0xBC5 JUMP JUMPDEST SWAP4 POP PUSH2 0xC17 DUP2 DUP6 PUSH1 0x20 DUP7 ADD PUSH2 0xBD5 JUMP JUMPDEST PUSH2 0xC20 DUP2 PUSH2 0xBE3 JUMP JUMPDEST DUP5 ADD SWAP2 POP POP SWAP3 SWAP2 POP POP JUMP JUMPDEST PUSH0 PUSH1 0x20 DUP3 ADD SWAP1 POP DUP2 DUP2 SUB PUSH0 DUP4 ADD MSTORE PUSH2 0xC43 DUP2 DUP5 PUSH2 0xBF3 JUMP JUMPDEST SWAP1 POP SWAP3 SWAP2 POP POP JUMP JUMPDEST PUSH0 DUP2 SWAP1 POP SWAP2 SWAP1 POP JUMP JUMPDEST PUSH2 0xC5D DUP2 PUSH2 0xC4B JUMP JUMPDEST DUP3 MSTORE POP POP JUMP JUMPDEST PUSH0 PUSH1 0x20 DUP3 ADD SWAP1 POP PUSH2 0xC76 PUSH0 DUP4 ADD DUP5 PUSH2 0xC54 JUMP JUMPDEST SWAP3 SWAP2 POP POP JUMP JUMPDEST PUSH0 PUSH1 0xFF DUP3 AND SWAP1 POP SWAP2 SWAP1 POP JUMP JUMPDEST PUSH2 0xC91 DUP2 PUSH2 0xC7C JUMP JUMPDEST DUP3 MSTORE POP POP JUMP JUMPDEST PUSH0 PUSH1 0x20 DUP3 ADD SWAP1 POP PUSH2 0xCAA PUSH0 DUP4 ADD DUP5 PUSH2 0xC88 JUMP JUMPDEST SWAP3 SWAP2 POP POP JUMP JUMPDEST PUSH0 PUSH0 REVERT JUMPDEST PUSH2 0xCBD DUP2 PUSH2 0xC4B JUMP JUMPDEST DUP2 EQ PUSH2 0xCC7 JUMPI PUSH0 PUSH0 REVERT JUMPDEST POP JUMP JUMPDEST PUSH0 DUP2 CALLDATALOAD SWAP1 POP PUSH2 0xCD8 DUP2 PUSH2 0xCB4 JUMP JUMPDEST SWAP3 SWAP2 POP POP JUMP JUMPDEST PUSH0 PUSH1 0x20 DUP3 DUP5 SUB SLT ISZERO PUSH2 0xCF3 JUMPI PUSH2 0xCF2 PUSH2 0xCB0 JUMP JUMPDEST JUMPDEST PUSH0 PUSH2 0xD00 DUP5 DUP3 DUP6 ADD PUSH2 0xCCA JUMP JUMPDEST SWAP2 POP POP SWAP3 SWAP2 POP POP JUMP JUMPDEST PUSH0 PUSH20 0xFFFFFFFFFFFFFFFFFFFFFFFFFFFFFFFFFFFFFFFF DUP3 AND SWAP1 POP SWAP2 SWAP1 POP JUMP JUMPDEST PUSH0 PUSH2 0xD32 DUP3 PUSH2 0xD09 JUMP JUMPDEST SWAP1 POP SWAP2 SWAP1 POP JUMP JUMPDEST PUSH2 0xD42 DUP2 PUSH2 0xD28 JUMP JUMPDEST DUP2 EQ PUSH2 0xD4C JUMPI PUSH0 PUSH0 REVERT JUMPDEST POP JUMP JUMPDEST PUSH0 DUP2 CALLDATALOAD SWAP1 POP PUSH2 0xD5D DUP2 PUSH2 0xD39 JUMP JUMPDEST SWAP3 SWAP2 POP POP JUMP JUMPDEST PUSH0 PUSH1 0x20 DUP3 DUP5 SUB SLT ISZERO PUSH2 0xD78 JUMPI PUSH2 0xD77 PUSH2 0xCB0 JUMP JUMPDEST JUMPDEST PUSH0 PUSH2 0xD85 DUP5 DUP3 DUP6 ADD PUSH2 0xD4F JUMP JUMPDEST SWAP2 POP POP SWAP3 SWAP2 POP POP JUMP JUMPDEST PUSH2 0xD97 DUP2 PUSH2 0xD28 JUMP JUMPDEST DUP3 MSTORE POP POP JUMP JUMPDEST PUSH0 PUSH1 0x20 DUP3 ADD SWAP1 POP PUSH2 0xDB0 PUSH0 DUP4 ADD DUP5 PUSH2 0xD8E JUMP JUMPDEST SWAP3 SWAP2 POP POP JUMP JUMPDEST PUSH0 PUSH0 PUSH1 0x40 DUP4 DUP6 SUB SLT ISZERO PUSH2 0xDCC JUMPI PUSH2 0xDCB PUSH2 0xCB0 JUMP JUMPDEST JUMPDEST PUSH0 PUSH2 0xDD9 DUP6 DUP3 DUP7 ADD PUSH2 0xD4F JUMP JUMPDEST SWAP3 POP POP PUSH1 0x20 PUSH2 0xDEA DUP6 DUP3 DUP7 ADD PUSH2 0xCCA JUMP JUMPDEST SWAP2 POP POP SWAP3 POP SWAP3 SWAP1 POP JUMP JUMPDEST PUSH0 DUP2 ISZERO ISZERO SWAP1 POP SWAP2 SWAP1 POP JUMP JUMPDEST PUSH2 0xE08 DUP2 PUSH2 0xDF4 JUMP JUMPDEST DUP3 MSTORE POP POP JUMP JUMPDEST PUSH0 PUSH1 0x20 DUP3 ADD SWAP1 POP PUSH2 0xE21 PUSH0 DUP4 ADD DUP5 PUSH2 0xDFF JUMP JUMPDEST SWAP3 SWAP2 POP POP JUMP JUMPDEST PUSH32 0x53656E642045544820746F2062757920746F6B656E7300000000000000000000 PUSH0 DUP3 ADD MSTORE POP JUMP JUMPDEST PUSH0 PUSH2 0xE5B PUSH1 0x16 DUP4 PUSH2 0xBC5 JUMP JUMPDEST SWAP2 POP PUSH2 0xE66 DUP3 PUSH2 0xE27 JUMP JUMPDEST PUSH1 0x20 DUP3 ADD SWAP1 POP SWAP2 SWAP1 POP JUMP JUMPDEST PUSH0 PUSH1 0x20 DUP3 ADD SWAP1 POP DUP2 DUP2 SUB PUSH0 DUP4 ADD MSTORE PUSH2 0xE88 DUP2 PUSH2 0xE4F JUMP JUMPDEST SWAP1 POP SWAP2 SWAP1 POP JUMP JUMPDEST PUSH32 0x4E487B7100000000000000000000000000000000000000000000000000000000 PUSH0 MSTORE PUSH1 0x11 PUSH1 0x4 MSTORE PUSH1 0x24 PUSH0 REVERT JUMPDEST PUSH0 DUP2 PUSH1 0x1 SHR SWAP1 POP SWAP2 SWAP1 POP JUMP JUMPDEST PUSH0 PUSH0 DUP3 SWAP2 POP DUP4 SWAP1 POP JUMPDEST PUSH1 0x1 DUP6 GT ISZERO PUSH2 0xF11 JUMPI DUP1 DUP7 DIV DUP2 GT ISZERO PUSH2 0xEED JUMPI PUSH2 0xEEC PUSH2 0xE8F JUMP JUMPDEST JUMPDEST PUSH1 0x1 DUP6 AND ISZERO PUSH2 0xEFC JUMPI DUP1 DUP3 MUL SWAP2 POP JUMPDEST DUP1 DUP2 MUL SWAP1 POP PUSH2 0xF0A DUP6 PUSH2 0xEBC JUMP JUMPDEST SWAP5 POP PUSH2 0xED1 JUMP JUMPDEST SWAP5 POP SWAP5 SWAP3 POP POP POP JUMP JUMPDEST PUSH0 DUP3 PUSH2 0xF29 JUMPI PUSH1 0x1 SWAP1 POP PUSH2 0xFE4 JUMP JUMPDEST DUP2 PUSH2 0xF36 JUMPI PUSH0 SWAP1 POP PUSH2 0xFE4 JUMP JUMPDEST DUP2 PUSH1 0x1 DUP2 EQ PUSH2 0xF4C JUMPI PUSH1 0x2 DUP2 EQ PUSH2 0xF56 JUMPI PUSH2 0xF85 JUMP JUMPDEST PUSH1 0x1 SWAP2 POP POP PUSH2 0xFE4 JUMP JUMPDEST PUSH1 0xFF DUP5 GT ISZERO PUSH2 0xF68 JUMPI PUSH2 0xF67 PUSH2 0xE8F JUMP JUMPDEST JUMPDEST DUP4 PUSH1 0x2 EXP SWAP2 POP DUP5 DUP3 GT ISZERO PUSH2 0xF7F JUMPI PUSH2 0xF7E PUSH2 0xE8F JUMP JUMPDEST JUMPDEST POP PUSH2 0xFE4 JUMP JUMPDEST POP PUSH1 0x20 DUP4 LT PUSH2 0x133 DUP4 LT AND PUSH1 0x4E DUP5 LT PUSH1 0xB DUP5 LT AND OR ISZERO PUSH2 0xFBA JUMPI DUP3 DUP3 EXP SWAP1 POP DUP4 DUP2 GT ISZERO PUSH2 0xFB5 JUMPI PUSH2 0xFB4 PUSH2 0xE8F JUMP JUMPDEST JUMPDEST PUSH2 0xFE4 JUMP JUMPDEST PUSH2 0xFC7 DUP5 DUP5 DUP5 PUSH1 0x1 PUSH2 0xEC8 JUMP JUMPDEST SWAP3 POP SWAP1 POP DUP2 DUP5 DIV DUP2 GT ISZERO PUSH2 0xFDE JUMPI PUSH2 0xFDD PUSH2 0xE8F JUMP JUMPDEST JUMPDEST DUP2 DUP2 MUL SWAP1 POP JUMPDEST SWAP4 SWAP3 POP POP POP JUMP JUMPDEST PUSH0 PUSH2 0xFF5 DUP3 PUSH2 0xC4B JUMP JUMPDEST SWAP2 POP PUSH2 0x1000 DUP4 PUSH2 0xC4B JUMP JUMPDEST SWAP3 POP PUSH2 0x102D PUSH32 0xFFFFFFFFFFFFFFFFFFFFFFFFFFFFFFFFFFFFFFFFFFFFFFFFFFFFFFFFFFFFFFFF DUP5 DUP5 PUSH2 0xF1A JUMP JUMPDEST SWAP1 POP SWAP3 SWAP2 POP POP JUMP JUMPDEST PUSH0 PUSH2 0x103F DUP3 PUSH2 0xC4B JUMP JUMPDEST SWAP2 POP PUSH2 0x104A DUP4 PUSH2 0xC4B JUMP JUMPDEST SWAP3 POP DUP3 DUP3 MUL PUSH2 0x1058 DUP2 PUSH2 0xC4B JUMP JUMPDEST SWAP2 POP DUP3 DUP3 DIV DUP5 EQ DUP4 ISZERO OR PUSH2 0x106F JUMPI PUSH2 0x106E PUSH2 0xE8F JUMP JUMPDEST JUMPDEST POP SWAP3 SWAP2 POP POP JUMP JUMPDEST PUSH32 0x4E487B7100000000000000000000000000000000000000000000000000000000 PUSH0 MSTORE PUSH1 0x12 PUSH1 0x4 MSTORE PUSH1 0x24 PUSH0 REVERT JUMPDEST PUSH0 PUSH2 0x10AD DUP3 PUSH2 0xC4B JUMP JUMPDEST SWAP2 POP PUSH2 0x10B8 DUP4 PUSH2 0xC4B JUMP JUMPDEST SWAP3 POP DUP3 PUSH2 0x10C8 JUMPI PUSH2 0x10C7 PUSH2 0x1076 JUMP JUMPDEST JUMPDEST DUP3 DUP3 DIV SWAP1 POP SWAP3 SWAP2 POP POP JUMP JUMPDEST PUSH32 0x4E6F7420656E6F75676820746F6B656E7320696E207265736572766500000000 PUSH0 DUP3 ADD MSTORE POP JUMP JUMPDEST PUSH0 PUSH2 0x1107 PUSH1 0x1C DUP4 PUSH2 0xBC5 JUMP JUMPDEST SWAP2 POP PUSH2 0x1112 DUP3 PUSH2 0x10D3 JUMP JUMPDEST PUSH1 0x20 DUP3 ADD SWAP1 POP SWAP2 SWAP1 POP JUMP JUMPDEST PUSH0 PUSH1 0x20 DUP3 ADD SWAP1 POP DUP2 DUP2 SUB PUSH0 DUP4 ADD MSTORE PUSH2 0x1134 DUP2 PUSH2 0x10FB JUMP JUMPDEST SWAP1 POP SWAP2 SWAP1 POP JUMP JUMPDEST PUSH0 PUSH2 0x1145 DUP3 PUSH2 0xC4B JUMP JUMPDEST SWAP2 POP PUSH2 0x1150 DUP4 PUSH2 0xC4B JUMP JUMPDEST SWAP3 POP DUP3 DUP3 SUB SWAP1 POP DUP2 DUP2 GT ISZERO PUSH2 0x1168 JUMPI PUSH2 0x1167 PUSH2 0xE8F JUMP JUMPDEST JUMPDEST SWAP3 SWAP2 POP POP JUMP JUMPDEST PUSH0 PUSH2 0x1178 DUP3 PUSH2 0xC4B JUMP JUMPDEST SWAP2 POP PUSH2 0x1183 DUP4 PUSH2 0xC4B JUMP JUMPDEST SWAP3 POP DUP3 DUP3 ADD SWAP1 POP DUP1 DUP3 GT ISZERO PUSH2 0x119B JUMPI PUSH2 0x119A PUSH2 0xE8F JUMP JUMPDEST JUMPDEST SWAP3 SWAP2 POP POP JUMP JUMPDEST PUSH32 0x4E487B7100000000000000000000000000000000000000000000000000000000 PUSH0 MSTORE PUSH1 0x22 PUSH1 0x4 MSTORE PUSH1 0x24 PUSH0 REVERT JUMPDEST PUSH0 PUSH1 0x2 DUP3 DIV SWAP1 POP PUSH1 0x1 DUP3 AND DUP1 PUSH2 0x11E5 JUMPI PUSH1 0x7F DUP3 AND SWAP2 POP JUMPDEST PUSH1 0x20 DUP3 LT DUP2 SUB PUSH2 0x11F8 JUMPI PUSH2 0x11F7 PUSH2 0x11A1 JUMP JUMPDEST JUMPDEST POP SWAP2 SWAP1 POP JUMP JUMPDEST PUSH32 0x496E73756666696369656E7420746F6B656E2062616C616E6365000000000000 PUSH0 DUP3 ADD MSTORE POP JUMP JUMPDEST PUSH0 PUSH2 0x1232 PUSH1 0x1A DUP4 PUSH2 0xBC5 JUMP JUMPDEST SWAP2 POP PUSH2 0x123D DUP3 PUSH2 0x11FE JUMP JUMPDEST PUSH1 0x20 DUP3 ADD SWAP1 POP SWAP2 SWAP1 POP JUMP JUMPDEST PUSH0 PUSH1 0x20 DUP3 ADD SWAP1 POP DUP2 DUP2 SUB PUSH0 DUP4 ADD MSTORE PUSH2 0x125F DUP2 PUSH2 0x1226 JUMP JUMPDEST SWAP1 POP SWAP2 SWAP1 POP JUMP JUMPDEST PUSH32 0x4F6E6C79206F776E657220616C6C6F7765640000000000000000000000000000 PUSH0 DUP3 ADD MSTORE POP JUMP JUMPDEST PUSH0 PUSH2 0x129A PUSH1 0x12 DUP4 PUSH2 0xBC5 JUMP JUMPDEST SWAP2 POP PUSH2 0x12A5 DUP3 PUSH2 0x1266 JUMP JUMPDEST PUSH1 0x20 DUP3 ADD SWAP1 POP SWAP2 SWAP1 POP JUMP JUMPDEST PUSH0 PUSH1 0x20 DUP3 ADD SWAP1 POP DUP2 DUP2 SUB PUSH0 DUP4 ADD MSTORE PUSH2 0x12C7 DUP2 PUSH2 0x128E JUMP JUMPDEST SWAP1 POP SWAP2 SWAP1 POP JUMP JUMPDEST PUSH32 0x4E6F7420656E6F75676820746F6B656E73000000000000000000000000000000 PUSH0 DUP3 ADD MSTORE POP JUMP JUMPDEST PUSH0 PUSH2 0x1302 PUSH1 0x11 DUP4 PUSH2 0xBC5 JUMP JUMPDEST SWAP2 POP PUSH2 0x130D DUP3 PUSH2 0x12CE JUMP JUMPDEST PUSH1 0x20 DUP3 ADD SWAP1 POP SWAP2 SWAP1 POP JUMP JUMPDEST PUSH0 PUSH1 0x20 DUP3 ADD SWAP1 POP DUP2 DUP2 SUB PUSH0 DUP4 ADD MSTORE PUSH2 0x132F DUP2 PUSH2 0x12F6 JUMP JUMPDEST SWAP1 POP SWAP2 SWAP1 POP JUMP INVALID LOG2 PUSH5 0x6970667358 0x22 SLT KECCAK256 0x29 DUP12 0xE8 LOG0 CREATE 0xA5 JUMP BLOBHASH 0xBE BASEFEE 0x22 CALL CALLVALUE CODECOPY RETURN MUL 0x2A 0xEF BLOBHASH MSIZE PUSH30 0x8FC05AA63487F88758AABF64736F6C634300081E00330000000000000000 "
				},
				"gasEstimates": {
					"creation": {
						"codeDepositCost": "994400",
						"executionCost": "infinite",
						"totalCost": "infinite"
					},
					"external": {
						"balanceOf(address)": "2940",
						"buyTokens()": "infinite",
						"decimals()": "2511",
						"name()": "infinite",
						"owner()": "2530",
						"payWithTokens(uint256)": "infinite",
						"setTokenPrice(uint256)": "24773",
						"symbol()": "infinite",
						"tokenPrice()": "2425",
						"totalSupply()": "2455",
						"transfer(address,uint256)": "infinite",
						"withdrawETH()": "infinite"
					},
					"internal": {
						"_mint(address,uint256)": "infinite"
					}
				},
				"methodIdentifiers": {
					"balanceOf(address)": "70a08231",
					"buyTokens()": "d0febe4c",
					"decimals()": "313ce567",
					"name()": "06fdde03",
					"owner()": "8da5cb5b",
					"payWithTokens(uint256)": "4064a6ee",
					"setTokenPrice(uint256)": "6a61e5fc",
					"symbol()": "95d89b41",
					"tokenPrice()": "7ff9b596",
					"totalSupply()": "18160ddd",
					"transfer(address,uint256)": "a9059cbb",
					"withdrawETH()": "e086e5ec"
				}
			},
			"storageLayout": {
				"storage": [
					{
						"astId": 29,
						"contract": "contracts/AenzbiToken.sol:AenzbiToken",
						"label": "name",
						"offset": 0,
						"slot": "0",
						"type": "t_string_storage"
					},
					{
						"astId": 32,
						"contract": "contracts/AenzbiToken.sol:AenzbiToken",
						"label": "symbol",
						"offset": 0,
						"slot": "1",
						"type": "t_string_storage"
					},
					{
						"astId": 35,
						"contract": "contracts/AenzbiToken.sol:AenzbiToken",
						"label": "decimals",
						"offset": 0,
						"slot": "2",
						"type": "t_uint8"
					},
					{
						"astId": 37,
						"contract": "contracts/AenzbiToken.sol:AenzbiToken",
						"label": "_totalSupply",
						"offset": 0,
						"slot": "3",
						"type": "t_uint256"
					},
					{
						"astId": 39,
						"contract": "contracts/AenzbiToken.sol:AenzbiToken",
						"label": "owner",
						"offset": 0,
						"slot": "4",
						"type": "t_address"
					},
					{
						"astId": 42,
						"contract": "contracts/AenzbiToken.sol:AenzbiToken",
						"label": "tokenPrice",
						"offset": 0,
						"slot": "5",
						"type": "t_uint256"
					},
					{
						"astId": 46,
						"contract": "contracts/AenzbiToken.sol:AenzbiToken",
						"label": "_balances",
						"offset": 0,
						"slot": "6",
						"type": "t_mapping(t_address,t_uint256)"
					}
				],
				"types": {
					"t_address": {
						"encoding": "inplace",
						"label": "address",
						"numberOfBytes": "20"
					},
					"t_mapping(t_address,t_uint256)": {
						"encoding": "mapping",
						"key": "t_address",
						"label": "mapping(address => uint256)",
						"numberOfBytes": "32",
						"value": "t_uint256"
					},
					"t_string_storage": {
						"encoding": "bytes",
						"label": "string",
						"numberOfBytes": "32"
					},
					"t_uint256": {
						"encoding": "inplace",
						"label": "uint256",
						"numberOfBytes": "32"
					},
					"t_uint8": {
						"encoding": "inplace",
						"label": "uint8",
						"numberOfBytes": "1"
					}
				}
			},
			"userdoc": {
				"kind": "user",
				"methods": {},
				"version": 1
			}
		}
	}
}